:100000000C9454010C9485010C9485010C94850189
:100010000C9485010C9485010C9485010C94850148
:100020000C9485010C9485010C9485010C94850138
:100030000C9485010C9485010C9485010C94850128
:100040000C9485010C9485010C9485010C94850118
:100050000C9485010C9485010C9485010C940A0E76
:100060000C9485010C9485010C9485010C948501F8
:100070000C9485010C9485010C9485010C948501E8
:100080000C9485010C9485010C9485010C948501D8
:100090000C9485010C9485010C9485010C94540EEC
:1000A0000C9485010C9485010C9485010C948501B8
:1000B0000C9485010C9485010C9485010C948501A8
:1000C0000C9485010C9485010C9485010C94D40D3D
:1000D0000C94AA0D0C9485010C9485010C94850157
:1000E0000C9485010C9409030C9449070C94FD01B0
:1000F0000C9424030C94AC010C940D030C94630732
:100100000C941A030C9432130C94AA010C9411034E
:100110000C9405030C9490020C9471030C94BF078B
:100120000C94E2030C9414030C9443020C942C03DF
:100130000C943A030C940B020C94E9010C94900774
:100140000C9439070C9436030C94AB010C94780F83
:100150000C943A070C94FF020C9428030C9440036F
:100160000C945C070C94AD010C9457090C943F035C
:100170000C94DA010C94A2030C9444030C94320303
:100180000C941E0300002100240027002A002D00EB
:100190003000330001010000040107010A010000E2
:1001A0002200250028002B002E003100340002011F
:1001B0000000050108010B010000200023002600BB
:1001C00029002C002F00320000010000030106016D
:1001D00009010505050507050808080802020202CD
:1001E0000A0A0808040404040101010101010101D3
:1001F0000303030303030303040707070C0C0C0C9E
:100200000C0C0C0C02020202060606060606060686
:100210000B0B0B0B0B0B0B0B010210202008081013
:100220002040102040800201020108040201010266
:10023000040810204080804020100804020180043F
:10024000020180402010080402010804020101029A
:1002500004081020408001020408102040800000A3
:100260000A0B02090C0D0E08070304010000000030
:10027000000000000000000000000000000000007E
:10028000000000000000000000001211100000003B
:10029000000000000000000000000000000000005E
:1002A00000000000780F321311241FBECFEFD1E2FF
:1002B000DEBFCDBF00E00CBF24E0A0ECB2E001C087
:1002C0001D92AF3CB207E1F712E0A0E0B2E0E2EC31
:1002D000FBE200E00BBF02C007900D92A03CB1070B
:1002E000D9F711E0C3E5D1E000E006C0219701098C
:1002F000802FFE010E94A813C235D10780E00807B5
:10030000A9F70E944E100C94CF150C94000096E0B3
:10031000899FD0011124AC5BBB4F90967C936E9368
:100320005F9791E091969C939197E091B104F09141
:10033000B2049091B004992339F0309751F08111B3
:1003400008C0809160041994309719F05C968C91E4
:10035000FACF0895089508950895AF92BF92CF926D
:10036000DF92EF92FF920F931F93CF93DF936C0175
:100370007B018B01040F151FEB015E01AE18BF0856
:10038000C017D10759F06991D601ED91FC91019008
:10039000F081E02DC6011995892B79F7C501DF9110
:1003A000CF911F910F91FF90EF90DF90CF90BF9072
:1003B000AF900895FC01538D448D252F30E0842F9C
:1003C00090E0821B930B541710F0CF96089501977D
:1003D0000895FC01918D828D981761F0A28DAE0F6A
:1003E000BF2FB11D5D968C91928D9F5F9F73928FF1
:1003F00090E008958FEF9FEF0895FC01918D828D1D
:10040000981731F0828DE80FF11D858D90E00895E9
:100410008FEF9FEF0895FC01918D228D892F90E041
:10042000805C9F4F821B91098F73992708958FE8F5
:1004300093E00E940B0221E0892B09F420E0822F37
:100440000895FC01A48DA80FB92FB11DA35ABF4F69
:100450002C91848D90E001968F739927848FA689C3
:10046000B7892C93A089B1898C91837080648C9317
:10047000938D848D981306C00288F389E02D8081C6
:100480008F7D80830895EF92FF920F931F93CF93F8
:10049000DF93EC0181E0888F9B8D8C8D98131AC0BF
:1004A000E889F989808185FF15C09FB7F894EE89A6
:1004B000FF896083E889F989808183708064808303
:1004C0009FBF81E090E0DF91CF911F910F91FF904E
:1004D000EF900895F62E0B8D10E00F5F1F4F0F73F6
:1004E0001127E02E8C8D8E110CC00FB607FCFACFB1
:1004F000E889F989808185FFF5CFCE010E9421022C
:10050000F1CFEB8DEC0FFD2FF11DE35AFF4FF08281
:100510009FB7F8940B8FEA89FB8980818062CFCFE7
:10052000CF93DF93EC01888D8823B9F0AA89BB892A
:10053000E889F9898C9185FD03C0808186FD0DC015
:100540000FB607FCF7CF8C9185FFF2CF808185FF36
:10055000EDCFCE010E942102E9CFDF91CF91089526
:1005600080E090E0892B49F080E090E0892B29F031
:100570000E94000081110E94000080E090E0892B21
:1005800049F080E090E0892B29F00E940000811161
:100590000E94000080E090E0892B29F00E94170261
:1005A00081110E94000080E090E0892B49F080E0FA
:1005B00090E0892B29F00E94000081110C9400002A
:1005C00008958150823108F05AC0E82FF0E0882762
:1005D000E351FD4F8F4F0C94A8130D031103FF023D
:1005E000050309033F0314031A031E03240328030E
:1005F0002C03320336033F033A0340034403809144
:1006000080008F77809380000895809180008F7D97
:10061000F9CF80918000877FF5CF84B58F7784BD37
:10062000089584B58F7DFBCF8091B0008F77809344
:10063000B00008958091B0008F7DF9CF8091900037
:100640008F77809390000895809190008F7DF9CFEF
:1006500080919000877FF5CF8091A0008F77809365
:10066000A00008958091A0008F7DF9CF8091A00017
:10067000877FF5CF809120018F77809320010895A7
:10068000809120018F7DF9CF80912001877FF5CF68
:10069000CF93DF93282F30E0F901E25AFD4F849188
:1006A000F901E85EFD4FD491F901EE52FE4FC4917D
:1006B000CC23A1F081110E94E102EC2FF0E0EE0FBB
:1006C000FF1FE854FE4FA591B491EC91ED2381E01A
:1006D00090E009F480E0DF91CF91089580E090E010
:1006E000FACF862F0C9448031F93CF93DF93282FC4
:1006F00030E0F901E25AFD4F8491F901E85EFD4FC7
:10070000D491F901EE52FE4FC491CC23A9F0162FDB
:1007100081110E94E102EC2FF0E0EE0FFF1FE25684
:10072000FE4FA591B4918FB7F894EC91111108C0C8
:10073000D095DE23DC938FBFDF91CF911F91089579
:10074000DE2BF8CF862F642F0C947403CF93DF93A6
:1007500090E0FC01E85EFD4F24918E529E4FFC011B
:1007600084918823C9F090E0880F991FFC01EC5711
:10077000FE4FA591B491FC01E256FE4FC591D49174
:1007800061110DC09FB7F8948C91209582238C93B2
:100790008881282328839FBFDF91CF9108956230FD
:1007A00051F49FB7F8943C91822F809583238C93CA
:1007B000E8812E2BEFCF8FB7F894EC912E2B2C9352
:1007C0008FBFEACF862F642F0C94A6033FB7F8940F
:1007D0008091290390912A03A0912B03B0912C03BF
:1007E00026B5A89B05C02F3F19F00196A11DB11D8C
:1007F0003FBFBA2FA92F982F8827BC01CD01620FC8
:10080000711D811D911D42E0660F771F881F991F82
:100810004A95D1F708952FB7F89460912503709108
:10082000260380912703909128032FBF08950F93EB
:100830001F93CF93DF93C82FD62F86E0C89FF00178
:100840001124EC5BFB4F11A2878D90A181309105A3
:10085000F1F058F082309105F1F1039709F440C0AE
:10086000DF91CF911F910F9108956623C9F361E045
:1008700070E08C2F0E9487010E940B0460939C04FF
:1008800070939D0480939E0490939F04E9CF0E94EF
:100890000B0400919C0410919D0420919E043091C2
:1008A0009F04AB01BC01401B510B620B730B809189
:1008B000AE049091AF04B0E0A0E084179507A607BE
:1008C000B70748F462E070E08C2FDF91CF911F9161
:1008D0000F910C94870163E070E0D111C1CFF4CF88
:1008E00070E060E0F1CF6F927F928F929F92AF9213
:1008F000BF92CF92DF92EF92FF920F931F93CF930D
:10090000DF9381E08093B0040E940B040091A00467
:100910001091A1042091A2043091A304AB01BC0169
:10092000401B510B620B730B8091AC049091AD0492
:10093000B0E0A0E084179507A607B70708F014C138
:10094000C0E08091AA04C81760F4E091A604F09179
:10095000A704EC0FF11D62E080810E94A603CF5F27
:10096000F0CF712C812C912C540183948091AB0495
:10097000781608F05FC0072D10E0E091A804F09110
:10098000A904E00FF11F61E080810E94A603E091BD
:10099000A804F091A904E00FF11F60E080810E949B
:1009A0007403D501C401072C04C0880F991FAA1F26
:1009B000BB1F0A94D2F76C017C01E094F094612C87
:1009C0008091AA046816F8F4C62DD0E0E091A60440
:1009D000F091A704EC0FFD1F80810E94480324962C
:1009E000CC0FDD1FCC5BDB4F892B41F488819981D3
:1009F0008C299D29998388836394E2CF888199818A
:100A00008E219F21F7CFE091A804F091A904E00F77
:100A1000F11F61E080810E9474038091A80490918D
:100A2000A904080F191F60E0F80180810E94A60345
:100A300073949CCFC4E4D4E0FE018FEF9FEF278D29
:100A400030A1232B21F4148E968F858F11A2369618
:100A500024E0E038F20799F7F12C96E0D92E809146
:100A6000AA04F81608F050C0E12C0F2D10E0000F7A
:100A7000111F045B1B4F2091AB04E21608F042C02B
:100A8000F801608171810E2C02C0769567950A94F9
:100A9000E2F7F29E900111242E0D311DE4E4F4E002
:100AA00080E0458D568D2417350709F461C08F5FAE
:100AB00036968A30B1F760FF23C0E4E4F4E090E0BA
:100AC00080E0448D411117C0E091A404F091A50489
:100AD000E20FF31F4081D89EF001D99EF00D112442
:100AE000EC5BFB4F448F368F258F10A2178E61E091
:100AF0000E94170405C0019636968A30910509F7C1
:100B0000E394B9CFF394ABCF10E089A18111182FF2
:100B10002696F4E0C038DF07C1F70E940B0460930B
:100B2000A0047093A1048093A2049093A3041123C2
:100B3000D9F0809165048823B9F080916304909185
:100B40006404019789F480916004DF91CF911F9133
:100B50000F91FF90EF90DF90CF90BF90AF909F905C
:100B60008F907F906F9008951092B00480E0EDCF49
:100B70006170BECF0F931F930E940B046093970385
:100B8000709398038093990390939A038FE893E06E
:100B90000E94E90197FF1DC00E940B04009197037A
:100BA000109198032091990330919A03601B710B67
:100BB000820B930B00919303109194032091950362
:100BC000309196036017710782079307F8F28FEF51
:100BD0009FEF1F910F91089520910103260F332756
:100BE000331F21323105ECF420916503FC0190E0C4
:100BF00080E0243069F082E00895A0910103219102
:100C0000AC014F515D4FA40FB52FB11D2C93019630
:100C1000861798F380910103680F6093010380E0C9
:100C2000089581E008951092650381E08093640344
:100C300010923F0361E084E10E94740361E085E16A
:100C40000E947403E9EBF0E080818E7F80838081D5
:100C50008D7F808388E48093B80085E48093BC0016
:100C60000895CF93DF9391E09093E0028823B9F049
:100C7000C091B800D091BA008091BC008A7B80936B
:100C8000BC0060E084E10E94740360E085E10E94A2
:100C900074030E941306D093BA00C093B800DF918A
:100CA000CF910895CF92DF92EF92FF920F931F930F
:100CB000CF93DF93D0918E0381E0D13208F09CC0B6
:100CC000C0918D030E94E6036B017C018091650356
:100CD00081116CC082E08093650381E0809364039E
:100CE0008FEF8093630310926203D0936103ADE6AC
:100CF000B3E0E1E4F3E080E0D8138DC0109240034C
:100D000080914003CC0FC82BC093400380913F03D8
:100D1000813009F084C010923F030E94E6036B010A
:100D20007C01809140038093BB0080916703909188
:100D30006803A0916903B0916A03892B8A2B8B2BDE
:100D4000A1F00E94E60300916703109168032091CF
:100D5000690330916A036C197D098E099F09061792
:100D600017072807390708F442C08091BC0083FDAB
:100D7000D8CF85EC8093BC000E94E6036B017C0118
:100D800080916503823009F44CC0809163038F3FEA
:100D900009F469C080916303803209F466C08091D0
:100DA0006303803309F463C084E026C08091670345
:100DB00090916803A0916903B0916A03892B8A2BF3
:100DC0008B2B09F483CF0E94E603009167031091F7
:100DD00068032091690330916A036C197D098E09BB
:100DE0009F09061717072807390708F06FCF80916A
:100DF00066030E94310685E010926C0310928E0308
:100E000010926B03DF91CF911F910F91FF90EF90A4
:100E1000DF90CF9008959D9191938F5F6DCF85EE78
:100E2000A9CF8091670390916803A0916903B09165
:100E30006A03892B8A2B8B2B09F4A2CF0E94E6032D
:100E400000916703109168032091690330916A0350
:100E50006C197D098E099F0906171707280739079E
:100E600008F08ECFC4CF80E0C7CF82E0C5CF83E04B
:100E7000C3CF0895E091320380913103E81730F435
:100E8000F0E0E054FD4F808190E008958FEF9FEFF8
:100E9000089590913203809131032FEF3FEF98171F
:100EA00048F4E92FF0E0E054FD4F208130E09F5FEF
:100EB00090933203C90108958091310390913203D8
:100EC000891B990B0895CF92DF92EF92FF920F93B7
:100ED0001F93CF93DF937C01CB018A0120916B0399
:100EE000222389F0EB016B01C40ED51ECC15DD0564
:100EF00069F06991D701ED91FC910190F081E02DAD
:100F0000C7011995F3CF642F0E94EC05C801DF914A
:100F1000CF911F910F91FF90EF90DF90CF900895A8
:100F2000CF93DF931F92CDB7DEB7698320916B0318
:100F30002223F9F020918E03203258F021E030E096
:100F4000FC013383228390E080E00F90DF91CF910A
:100F5000089580916C03E82FF0E0E359FC4F9981EC
:100F600090838F5F80936C0380938E0381E090E089
:100F7000ECCF61E0CE0101960E94EC05F7CF90E046
:100F800080E00895CF93DF93EC0160E08E810E94B2
:100F9000740361E08E810E94740360E08E810E9480
:100FA00074038BE891E00197F1F7DF91CF910895F9
:100FB000CF92DF92EF92FF920F931F93CF93DF9325
:100FC0006C017C0187E0E80EF11CD0E0C0E0062F48
:100FD00010E0B8010C2E02C0759567950A94E2F7EF
:100FE0006170F70181917F010E9474032196C430E2
:100FF000D10579F7C601DF91CF911F910F91FF9035
:10100000EF90DF90CF900C94C207CF92DF92EF92D7
:10101000FF920F931F93CF93DF93EC01F62E642F73
:101020008C810E9474038D818F3F19F060E00E94D3
:1010300074030F2D10E08F8584FF25C06E0187E0BB
:10104000C80ED11CF12CE12CB8010E2C02C07595F4
:1010500067950A94E2F76170F60181916F010E9431
:101060007403FFEFEF1AFF0A88E0E816F10461F756
:10107000CE01DF91CF911F910F91FF90EF90DF9004
:10108000CF900C94C207B80184E0759567958A9556
:10109000E1F7CE010E94D8076F2DCE01DF91CF91ED
:1010A0001F910F91FF90EF90DF90CF900C94D80795
:1010B00040E0682F83EB94E00C940508CF93DF9316
:1010C000823029F49091C20498609093C204809376
:1010D000C6041092C70480E48093C80480E1809322
:1010E000C90480E58093CA0461E08091B7040E943E
:1010F000A6038091B8048F3F19F061E00E94A60317
:1011000061E08091B9040E94A603C3EBD4E09E0184
:10111000235B34408091C20484FD0BC084E090E0E6
:1011200021962817390744F461E08E810E94A603B6
:10113000EECF88E090E0F4CF8BE39DE00197F1F7EC
:1011400060E08091B7040E94740360E08091B9046C
:101150000E9474038091B8048F3F19F060E00E94F0
:1011600074038091C20484FD39C063E083EB94E092
:101170000E94D807CBE4D6E4CE010197F1F763E0F3
:1011800083EB94E00E94D8072197F1F763E083EBAB
:1011900094E00E94D80783E592E00197F1F762E0BE
:1011A00083EB94E00E94D8078091C20480620E9481
:1011B000580884E08093C3048CE00E94580881E0C2
:1011C0000E9458088BE39FE10197F1F782E080933A
:1011D000C40486E0DF91CF910C94580880620E948D
:1011E00058088BE496E40197F1F78091C20480627D
:1011F0000E94580883E592E00197F1F78091C204BC
:1012000080620E945808D0CFCF93DF9381E00E9484
:1012100058088BE39FE10197F1F7E1E08091C60464
:101220008111E0E0E195F0E0ED54FB4FC0E1D0E04A
:1012300080914204909143049E01281B390B3695FE
:1012400027958489820F80680E9458084091420443
:101250005091430460913E0470913F0483EB94E00D
:101260000E94AD0180913C0490913D04C81BD90BB4
:10127000D695C795E091C604E230B8F4E150F0E0AD
:10128000ED54FB4F84898C0F80680E945808409170
:101290003C0450913D04609138047091390483EB13
:1012A00094E0DF91CF910C94AD01E1E0E8CF41E013
:1012B0000E94050881E090E00895CF93DF93EC0150
:1012C00080913804909139040097E9F06881798120
:1012D00061157105B1F040913A0450913B042C81A5
:1012E0003D814217530768F00E94C8158C819D818B
:1012F00090933D0480933C041D821C82DF91CF912A
:1013000008950E944C1488819981909339048093A8
:1013100038048A819B8190933B0480933A048C81AA
:101320009D8190933D0480933C04198218821B8216
:101330001A82E2CFCF93DF93EC01888199810097E5
:1013400011F00E944C14198218821D821C821B828B
:101350001A82DF91CF910895FC01808191810097DD
:1013600011F00C944C140895FC0124813581232B39
:1013700039F421E0FB018081882349F020E007C097
:10138000808191810E94BF1521E0892BB9F7822FBE
:1013900008950F931F93CF93DF93EC018881998178
:1013A000009759F02A813B812617370730F081E0FA
:1013B000DF91CF911F910F9108958B016F5F7F4F48
:1013C0000E94D514009759F0998388831B830A8360
:1013D0002C813D81232B59F7FC011082E8CF80E05E
:1013E000E7CFEF92FF920F931F93CF93DF93EC0120
:1013F000FB01E080F180E114F10411F10481158119
:1014000001151105A9F08C819D81080F191FB801E4
:10141000CE010E94C909882399F0288139818C81E5
:101420009D81B701820F931F0E94C8151D830C83F5
:10143000CE01DF91CF911F910F91FF90EF90089512
:10144000CE010E949A09F4CFEF92FF920F931F935F
:10145000CF93DF93EC017B018A01BA010E94C90995
:1014600081110BC0CE010E949A09CE01DF91CF916C
:101470001F910F91FF90EF9008951D830C83B7018A
:10148000888199810E94C815F0CFFB01019000204E
:10149000E9F73197AF01461B570B0C94240A0F93C1
:1014A0001F93CF93DF9300D000D000D0CDB7DEB72D
:1014B0008C01862FF801118210821382128215820C
:1014C00014824AE0BE016F5F7F4F90E00E945C1380
:1014D000BE016F5F7F4FC8010E94450A29960FB673
:1014E000F894DEBF0FBECDBFDF91CF911F910F915A
:1014F0000895CF93DF93EC01FB018617970749F01E
:10150000608171816115710541F0448155810E94AE
:10151000240ACE01DF91CF9108950E949A09F9CF54
:10152000FC01118210821382128215821482FB0147
:1015300001900020E9F73197AF01461B570B0C943F
:10154000240A8F929F92AF92BF92CF92DF92EF9236
:10155000FF920F931F93CF93DF93CDB7DEB72C97F6
:101560000FB6F894DEBF0FBECDBF182F81E0809379
:101570006B0380E580938D0310926C0310928E03B1
:10158000612F8CE294E00E9490070E9452060E9414
:10159000E6036B017C0180916503811163C081E0EA
:1015A00080936503809364039FEF9093630310928D
:1015B0006203109261038093400380914003806A2C
:1015C0008093400380913F03813009F0BCC01092AA
:1015D0003F030E94E6036B017C01809140038093EE
:1015E000BB008091670390916803A0916903B0915B
:1015F0006A03892B8A2B8B2BA1F00E94E603809033
:10160000670390906803A0906903B0906A036C1917
:101610007D098E099F0986169706A806B90608F463
:1016200042C08091BC0083FDD8CF85EC8093BC0084
:101630000E94E6036B017C0180916503813009F40F
:1016400084C0809162038111A2C080916203A1E4F1
:10165000B3E0E0ECF2E090E0981751F12D91219386
:101660009F5FFACF8091670390916803A09169030F
:10167000B0916A03892B8A2B8B2B09F48CCF0E94A3
:10168000E6038090670390906803A0906903B09090
:101690006A036C197D098E099F0986169706A806AC
:1016A000B90608F078CF809166030E94310680E089
:1016B00010923203809331038CE294E00E94490738
:1016C000082F612FCE0107960E944F0A6AE572E04B
:1016D000CE0101960E94900ABE01695F7F4FCE0144
:1016E00001960E94F109BC018EE394E00E94790A00
:1016F000CE0101960E94AC09CE0107960E94AC096A
:10170000602FCE0101960E944F0ACE0101960E94E1
:101710005D09CE0101960E94AC090E940409802F48
:101720002C960FB6F894DEBF0FBECDBFDF91CF91E0
:101730001F910F91FF90EF90DF90CF90BF90AF90EF
:101740009F908F90089585EE71CF8091670390915F
:101750006803A0916903B0916A03892B8A2B8B2BB4
:1017600009F46ACF0E94E6038090670390906803B3
:10177000A0906903B0906A036C197D098E099F09D6
:1017800086169706A806B90608F056CF8CCF81E0DA
:101790005ECF8F929F92AF92BF92CF92DF92EF92E5
:1017A000FF920F931F93CF93DF93CDB7DEB72C97A4
:1017B0000FB6F894DEBF0FBECDBF082F162F81E005
:1017C00080936B0380E580938D0310926C031092DD
:1017D0008E03602F8CE294E00E949007612F8CE2D0
:1017E00094E00E9490070E9452060E94E6034B017B
:1017F0005C0188ECC82ED12CE12CF12C0E94E60370
:10180000681979098A099B09683E73408105910529
:10181000A8F321E0C21AD108E108F10888EE880E89
:1018200083E0981EA11CB11CC114D104E104F10491
:1018300029F7602FCE0107960E944F0A64E672E0F6
:10184000CE0101960E94900ABE01695F7F4FCE01D2
:1018500001960E94F109BC018EE394E00E94790A8E
:10186000CE0101960E94AC09CE0107960E94AC09F8
:10187000612FCE0101960E944F0ACE0101960E946F
:101880005D09CE0101960E94AC090E9404092C96C4
:101890000FB6F894DEBF0FBECDBFDF91CF911F9181
:1018A0000F91FF90EF90DF90CF90BF90AF909F90FF
:1018B0008F900895CF936EE672E08EE394E00E94DD
:1018C000450A62E772E088E394E00E94450A0E94BC
:1018D000040910923E0310923D03CAE00E94730473
:1018E0008823E1F360913D0370913E0390ED980FE2
:1018F0009A3080F4C69F9001C79F300D1124082EA6
:10190000000C990BC097820F931F90933E03809316
:101910003D03E4CF8EE10E94C90B40913D035091FD
:101920003E0328EE33E0429FC001439F900D529F3B
:10193000900D112490933E0380933D03CF91089521
:10194000CF936EE672E08EE394E00E94450A66E76C
:1019500072E088E394E00E94450A0E940409109214
:101960003C0310923B03CAE00E9473048823E1F316
:1019700060913B0370913C0390ED980F9A3080F496
:10198000C69F9001C79F300D1124082E000C990BA3
:10199000C097820F931F90933C0380933B03E4CF47
:1019A00089E10E94C90B40913B0350913C0328EE12
:1019B00033E0429FC001439F900D529F900D112430
:1019C00090933C0380933B03CF910895CF936EE6B1
:1019D00072E08EE394E00E94450A6CE772E088E3CF
:1019E00094E00E94450A0E94040910923A03109262
:1019F0003903CAE00E9473048823E1F3609139033C
:101A000070913A0390ED980F9A3080F4C69F900140
:101A1000C79F300D1124082E000C990BC097820F20
:101A2000931F90933A0380933903E4CF84E10E949B
:101A3000C90B4091390350913A0328EE33E0429F9D
:101A4000C001439F900D529F900D112490933A0333
:101A500080933903CF910895CF936EE672E08EE3C1
:101A600094E00E94450A62E872E088E394E00E94F4
:101A7000450A0E9404091092380310923703CAE005
:101A80000E9473048823E1F3609137037091380357
:101A900090ED980F9A3080F4C69F9001C79F300D4B
:101AA0001124082E000C990BC097820F931F90935E
:101AB000380380933703E4CF8FE00E94C90B409135
:101AC00037035091380328EE33E0429FC001439F13
:101AD000900D529F900D11249093380380933703FB
:101AE000CF91089585ED8093BC008091670390911C
:101AF0006803A0916903B0916A030796A11DB11D07
:101B000023E0B695A795979587952A95D1F72091CB
:101B1000BC0024FD03C01092650308954091670343
:101B2000509168036091690370916A03452B462BBD
:101B3000472B69F30097A105B10541F025E32A95EC
:101B4000F1F700000197A109B109E1CF8091660387
:101B50000C9431061F920F920FB60F9211240BB600
:101B60000F922F933F934F935F936F937F938F9336
:101B70009F93AF93BF93EF93FF938FE893E00E94FF
:101B80002102FF91EF91BF91AF919F918F917F9132
:101B90006F915F914F913F912F910F900BBE0F90DE
:101BA0000FBE0F901F9018951F920F920FB60F92B5
:101BB00011240BB60F922F938F939F93EF93FF9364
:101BC000E0919F03F091A0038081E091A503F09143
:101BD000A60382FD1DC090818091A8038F5F8F7343
:101BE0002091A903821741F0E091A803F0E0E157AA
:101BF000FC4F958F8093A803FF91EF919F918F9158
:101C00002F910F900BBE0F900FBE0F901F90189545
:101C10008081F2CF1F920F920FB60F9211242F9353
:101C20003F938F939F93AF93BF93809125039091A0
:101C30002603A0912703B09128033091240323E0C9
:101C4000230F2D3758F50196A11DB11D20932403B4
:101C50008093250390932603A0932703B093280332
:101C60008091290390912A03A0912B03B0912C031A
:101C70000196A11DB11D8093290390932A03A0937F
:101C80002B03B0932C03BF91AF919F918F913F9104
:101C90002F910F900FBE0F901F90189526E8230FDD
:101CA0000296A11DB11DD2CF1F920F920FB60F92B7
:101CB00011240BB60F922F933F934F935F936F9323
:101CC0007F938F939F93AF93BF93EF93FF938091F5
:101CD000B900887F803609F44DC008F040C08832D2
:101CE00009F4A9C028F5803109F49DC0C8F48823FF
:101CF00009F4FBC0883009F496C0FF91EF91BF91C1
:101D0000AF919F918F917F916F915F914F913F9193
:101D10002F910F900BBE0F900FBE0F901F90189534
:101D2000883109F488C0803241F78093630314C07E
:101D3000803409F49DC040F48033B9F38833E9F668
:101D40008093630385ECB0C0803509F485C0883585
:101D500009F496C0883489F60E94720DCECF883976
:101D600009F48CC038F5883729F050F4883611F022
:101D7000803719F683E0809365031092230357C0E0
:101D8000883809F47BC0803919F0803809F0B5CF64
:101D900080912303803208F071C0E091230381E039
:101DA0008E0F809323038091BB00F0E0ED5FFC4F2A
:101DB00080833DC0803B39F0E0F4803A09F479C07B
:101DC000883A09F09ACF84E0809365031092020369
:101DD00010920103E0912F03F09130031995809147
:101DE000010381110FC081E0809301031092E10291
:101DF00009C0803C09F4A6CF883C09F4A3CF883BF6
:101E000009F07BCFE091020381E08E0F8093020303
:101E1000F0E0EF51FD4F80818093BB009091020371
:101E20008091010329C0809140038093BB0085EC21
:101E30008093BC0062CF90916203809161039817F8
:101E400058F5E091620381E08E0F80936203F0E029
:101E5000EF5BFC4F8081E9CFE091620381E08E0F60
:101E6000809362038091BB00F0E0EF5BFC4F8083C6
:101E700090916203809161039817C8F285E8D8CFEA
:101E8000E091620381E08E0F809362038091BB003A
:101E9000F0E0EF5BFC4F80838091640381115CCFA5
:101EA00081E080933F0384EA8093BC001092650335
:101EB00024CF85EC8093BC001092650380912303AE
:101EC000803230F4E0912303F0E0ED5FFC4F1082AC
:101ED0006091230370E0E0912D03F0912E0383E0E5
:101EE00093E019951092230308CF1092630334CF27
:101EF000109292031092910388EE93E0A0E0B0E07C
:101F00008093930390939403A0939503B0939603C7
:101F100024E232E03093900320938F0325ED30E0EC
:101F200030939C0320939B0324ED30E030939E0379
:101F300020939D0320ED30E03093A00320939F0376
:101F400021ED30E03093A2032093A10322ED30E095
:101F50003093A4032093A30326ED30E03093A6032F
:101F60002093A5031092A8031092A9031092AA032C
:101F70001092AB0310922F0410922E048093300421
:101F800090933104A0933204B093330486E392E03B
:101F900090932D0480932C041092B6041092B504F3
:101FA00082E592E09093B4048093B3048DE0809333
:101FB000B7048FEF8093B8048CE08093B9048BE072
:101FC0008093BA048AE08093BB0489E08093BC04C8
:101FD00088E08093BD041092BE041092BF0410925A
:101FE000C0041092C1041092C20481E00E945E08F5
:101FF0001092460410924A041092490410924B0425
:1020000088E492E09093450480934404E0E6F4E091
:102010001082148213821582369684E0EC39F80718
:10202000B9F786E092E09093A7048093A60482E03B
:1020300092E09093A9048093A80484E08093AA047A
:102040008093AB048AE092E09093A5048093A4046B
:102050008AE090E09093AD048093AC0484EF91E02B
:102060009093AF048093AE041092B2041092B10426
:102070001092A0041092A1041092A2041092A30442
:102080001092B00463E672E08EE394E00E94900A3E
:1020900063E672E088E394E00C94900ACF93DF93B8
:1020A000CDB7DEB7A7970FB6F894DEBF0FBECDBF92
:1020B000789484B5826084BD84B5816084BD85B523
:1020C000826085BD85B5816085BD80916E0081602F
:1020D00080936E00109281008091810082608093D5
:1020E00081008091810081608093810080918000D7
:1020F0008160809380008091B10084608093B10002
:102100008091B00081608093B000809191008260E6
:1021100080939100809191008160809391008091E3
:1021200090008160809390008091A10082608093F4
:10213000A1008091A10081608093A1008091A00006
:1021400081608093A00080912101826080932101B1
:102150008091210181608093210180912001816023
:102160008093200180917A00846080937A0080912E
:102170007A00826080937A0080917A0081608093F7
:102180007A0080917A00806880937A001092C10072
:1021900061E086E30E94A60361E087E30E94A60354
:1021A00061E088E30E94A60361E089E30E94A60340
:1021B00082E00E945E081092320310923103109266
:1021C0006C0310928E030E9413068AEA91E09093AA
:1021D000300380932F038BEA91E090932E0380933A
:1021E0002D03E0919F03F091A00382E08083E091B2
:1021F0009B03F0919C031082E0919D03F0919E035C
:102200008FEC80831092A703E091A303F091A403C5
:1022100086E08083E091A103F091A2038081806138
:102220008083E091A103F091A20380818860808384
:10223000E091A103F091A203808180688083E09106
:10224000A103F091A20380818F7D808380E49CE9CB
:10225000AFEFBFEF8093930390939403A093950304
:10226000B09396036BE872E08EE394E00E94450A17
:1022700063E972E088E394E00E94450A0E94040941
:1022800038EE832E33E0932EA12CB12C22242394FC
:10229000312C52E0C52ED12C809100029091010288
:1022A00061E0009709F4E5C08130910551F460E0E8
:1022B00086E30E94740361E087E30E94740360E098
:1022C0000CC08230910571F460E086E30E947403D3
:1022D00060E087E30E94740361E088E30E94740376
:1022E00060E011C08330910509F0B6C060E086E37C
:1022F0000E94740360E087E30E94740360E088E357
:102300000E94740361E089E30E9474030E947304D5
:10231000182FE0900002F090010224E0E216F10490
:1023200008F083C00E940B04A50194010E9486134B
:10233000672B682B692B09F044C0F701EE0FFF1FD4
:10234000E95CFC4FE080F18040903303509034030F
:1023500060903503709036030E940B041BA21AA2F2
:102360001DA21CA21FA21EA29701FF0C440B550B1D
:10237000420E531E641E751EA3019201261B370BCD
:10238000480B590BCA01B901A50194010E9486139B
:10239000CA01B9012AE0AE014F5F5F4F0E943A13B4
:1023A000BE016F5F7F4FCE0182960E94450ACE012B
:1023B00082960E945D09CE0182960E94AC090E941D
:1023C00004090E940B042091000230910102409008
:1023D0003303509034036090350370903603AB01A3
:1023E000BC014419550966097709F901EE0FFF1F71
:1023F000E95CFC4F40805180052C000C6608770892
:10240000441655066606770680F4C9010196909336
:102410000102809300020E940B04609333037093C7
:1024200034038093350390933603112309F4B5C028
:102430001D3209F407C114F51A3209F4F9C01B3230
:1024400009F4FBC0809100029091010201969093E3
:1024500001028093000297C060E0049751F461E0AC
:1024600086E30E94740361E087E30E94740361E0E5
:1024700046CF86E30E94740360E01ECF1D3309F44B
:10248000E8C0133639F01F32E9F63092010220928B
:10249000000279C08FE893E00E94900261EA72E046
:1024A0008EE394E00E94450A63E972E088E394E0D9
:1024B0000E94450A0E9404091A8219821C821B820A
:1024C0001E821D8250E040E063E672E0CE0101967C
:1024D0000E94240A0E94BA0597FD1FC08A33910505
:1024E000E1F08AA31BA2ED80FE803FEFE31AF30A1E
:1024F000B701CE0101960E94C909882359F32981A9
:102500003A818D819E81BE016E5D7F4F820F931F48
:102510000E94C815FE82ED82DDCFBE016F5F7F4F46
:1025200088E394E00E94790A0E9404096EE672E052
:10253000CE0101960E94B409882349F00E942C0D17
:102540000E94E60C0E94A00C0E945A0C0AC06AEA83
:1025500072E0CE0101960E94B409882309F10E941D
:102560002C0D63EB72E08EE394E00E94450A63E673
:1025700072E088E394E00E94450A0E940409CE01BB
:1025800001960E94AC090E940B0460933303709380
:10259000340380933503909336030E94B0027CCEBF
:1025A0006CE772E0CE0101960E94B409882319F00D
:1025B0000E94E60CD6CF66E772E0CE0101960E943B
:1025C000B409882319F00E94A00CCBCF62E772E017
:1025D000CE0101960E94B4098111B6CF6EEA72E075
:1025E000CE0101960E94B409882309F4BACF8AE08B
:1025F0000E94A10A90E0909301028093000207E3F9
:1026000013E08FE0F82E8F2D0E94A10AE82F48EEEC
:1026100053E0E49FC001E59F900D1124F8018193E0
:1026200091938F01F5E0FF0E23E2F212ECCF99CFE8
:102630001092010210920002A6CFD0920102C09225
:102640000002A1CF43E050E050930102409300020A
:102650009ACF609100028AE00E94C90B90E080E06E
:102660000E94CF1588E394E00E94AC098EE394E0C9
:102670000C94AC09BB27FA01A62F621771058105DE
:102680009105330B30FB66F0AA27660F771F881F72
:10269000991FAA1FA21710F0A21B63953850A9F723
:1026A000A05DAA3308F0A95DA19336F7B111B193EB
:1026B0001082CA010C947613BB27FB015527AA2769
:1026C000880F991FAA1FA41710F0A41B83955051BF
:1026D000B9F7A05DAA3308F0A95DA193009779F737
:1026E000B111B1931192CB010C947613DC01FC0172
:1026F000672F71917723E1F7329704C07C916D9336
:1027000070836291AE17BF07C8F30895A1E21A2E35
:10271000AA1BBB1BFD010DC0AA1FBB1FEE1FFF1F85
:10272000A217B307E407F50720F0A21BB30BE40BD5
:10273000F50B661F771F881F991F1A9469F760951C
:102740007095809590959B01AC01BD01CF010895D6
:10275000EE0FFF1F881F8BBF0790F691E02D199495
:102760000F931F93CF93DF938230910510F482E093
:1027700090E0E091CD04F091CE0430E020E0B0E0B4
:10278000A0E0309799F42115310509F44AC0281BBF
:10279000390B24303105D8F58A819B81611571058B
:1027A00089F1FB0193838283FE0111C04081518135
:1027B0000281138148175907E0F04817590799F427
:1027C000109761F012960C93129713961C93329601
:1027D000CF01DF91CF911F910F9108950093CD0408
:1027E0001093CE04F4CF2115310551F04217530751
:1027F00038F0A901DB019A01BD01DF01F801C1CF69
:10280000EF01F9CF9093CE048093CD04CDCFFE019C
:10281000E20FF31F8193919322503109398328836A
:10282000D7CF2091CB043091CC04232B41F42091BD
:102830001C0230911D023093CC042093CB042091D4
:102840001A0230911B022115310541F42DB73EB714
:1028500040911E0250911F02241B350BE091CB04C6
:10286000F091CC04E217F307A0F42E1B3F0B2817BE
:10287000390778F0AC014E5F5F4F2417350748F0F9
:102880004E0F5F1F5093CC044093CB0481939193E0
:102890009FCFF0E0E0E09CCFCF93DF930097E9F08B
:1028A000FC01329713821282A091CD04B091CE0424
:1028B000ED0130E020E01097A1F420813181820FFA
:1028C000931F2091CB043091CC042817390709F0CD
:1028D00061C0F093CC04E093CB04DF91CF910895D5
:1028E000EA01CE17DF07E8F54A815B819E014115B9
:1028F0005105B1F7E901FB83EA8349915991C40F6E
:10290000D51FEC17FD0761F4808191810296840F39
:10291000951FE90199838883828193819B838A83B0
:10292000F0E0E0E012968D919C9113970097B9F535
:102930002D913C911197CD010296820F931F20910A
:10294000CB043091CC042817390739F6309751F56C
:102950001092CE041092CD04B093CC04A093CB047B
:10296000BCCFD383C28340815181840F951FC81788
:10297000D90761F44E5F5F4F88819981480F591FD5
:10298000518340838A819B81938382832115310502
:1029900009F0B0CFF093CE04E093CD049ECFFD01BB
:1029A000DC01C0CF13821282D7CF4F925F926F9219
:1029B0007F928F929F92AF92BF92CF92DF92EF92CF
:1029C000FF920F931F93CF93DF938C01009799F49D
:1029D000CB01DF91CF911F910F91FF90EF90DF908E
:1029E000CF90BF90AF909F908F907F906F905F90AF
:1029F0004F900C94B013FC01E60FF71F9C0122507E
:102A00003109E217F30708F4AEC0D901CD91DC918A
:102A10001197C617D70720F1C530D10578F0CE0140
:102A200004978617970750F0C61BD70B2297C193C0
:102A3000D1936D937C93CF010E944C14C801DF9118
:102A4000CF911F910F91FF90EF90DF90CF90BF90AB
:102A5000AF909F908F907F906F905F904F90089570
:102A60005B01AC1ABD0A4C018C0E9D1EA091CD04D9
:102A7000B091CE04512C412CF12CE12C109731F562
:102A80008091CB049091CC048815990509F05CC025
:102A90004616570608F058C080911A0290911B0202
:102AA000009741F48DB79EB740911E0250911F02CE
:102AB000841B950BE817F90708F055C0F093CC0478
:102AC000E093CB04F90171836083B8CF8D919C9121
:102AD000119712966C90129713967C901397A815E5
:102AE000B90559F56C0142E0C40ED11CCA14DB04CF
:102AF00020F1AC014A195B09DA011296159780F0B2
:102B00006282738251834083D9016D937C93E11477
:102B1000F10471F0D7011396FC93EE9312978ECFC8
:102B200022968C0F9D1FF90191838083F301EFCFD3
:102B3000F093CE04E093CD0481CF4816590608F4F3
:102B40002C017D01D3019ACFCB010E94B0137C01EF
:102B5000009749F0AE01B8010E94B615C8010E9465
:102B60004C1487016BCF10E000E068CFFB01DC0163
:102B700002C001900D9241505040D8F70895FB01DA
:102B8000DC018D91019080190110D9F3990B089502
:102B9000FB01DC0101900D920020E1F7089511E0A6
:102BA000C3E5D1E000E006C0802FFE010E94A8131B
:102BB0002196011DC435D10780E00807A9F7F894D4
:022BC000FFCF45
:102BC200FFFF19181716323334353738392F343599
:102BD200362A3132332D63303D2B0000CF04800082
:102BE200000000004302AD01DA0190020B02E9018C
:102BF200FD010000000090076307BF0739075C076B
:102C020049073A0700000000E203A2037103000033
:102C120000005709AD01BF07AC0152656164696EDE
:102C2200673A200057726974696E673A20007365CB
:102C32007400647279007761736832007761736837
:102C4200310070726520776173680057656C636F3D
:102C52006D6500456E74657220436F6D6D616E64C3
:102C62000053657474696E677300707265007265F3
:102C72006164004E6F726D616C204D6F646500007F
:00000001FF
