:100000000C9418010C9439010C9439010C943901A9
:100010000C9439010C9439010C9439010C94390178
:100020000C9439010C9439010C9439010C94390168
:100030000C9439010C9460010C9439010C94390131
:100040000C9439010C9439010C9439010C94390148
:100050000C9439010C9439010C9439010C948002F0
:100060000C9439010C9439010C9439010C94390128
:100070000C9439010C9439010C9439010C94390118
:100080000C9439010C9439010C9439010C94390108
:100090000C9439010C9439010C9439010C943901F8
:1000A0000C9439010C9439010C9439010C943901E8
:1000B0000C9439010C9439010C9439010C943901D8
:1000C0000C9439010C9439010C9439010C943901C8
:1000D0000C9439010C9439010C9439010C943901B8
:1000E0000C9439010C9452020C9456020C94280280
:1000F0000C945C020C9445020C9464020C94720201
:100100000C9478020C942D020C943D020C946E0217
:100110000C9441020C947C020C944C020C946002EE
:100120000C9449020C946A0200000A0B02090C0D9F
:100130000E0807030401000000000000000000009A
:1001400000000000000000000000000000000000AF
:10015000000000001211100000000000000000006C
:10016000000000000000000000000000000000008F
:100170002100240027002A002D0030003300010157
:100180000000040107010A010102102020080810E4
:1001900020401020408002010201080402010102F7
:1001A00004081020408080402010080402018004D0
:1001B000020180402010080402010804020101022B
:1001C0000408102040800102040810204080000034
:1001D0002200250028002B002E00310034000201EF
:1001E0000000050108010B010505050507050808C4
:1001F0000808020202020A0A0808040404040101B1
:1002000001010101010103030303030303030407C5
:1002100007070C0C0C0C0C0C0C0C0202020206065C
:100220000606060606060B0B0B0B0B0B0B0B020050
:1002300011241FBECFEFD1E2DEBFCDBF00E00CBF67
:1002400013E0A0E0B2E0ECEBF1E100E00BBF02C094
:1002500007900D92A232B107D9F723E0A2E2B3E0F2
:1002600001C01D92AB34B207E1F70E94CA020C94A0
:10027000DC080C9400003FB7F8948091270390911C
:100280002803A0912903B0912A0326B5A89B05C095
:100290002F3F19F00196A11DB11D3FBFBA2FA92F05
:1002A000982F8827BC01CD01620F711D811D911D02
:1002B00042E0660F771F881F991F4A95D1F708956E
:1002C0001F920F920FB60F9211240BB60F922F931D
:1002D0003F938F939F93AF93BF93EF93FF9380913F
:1002E0003F0390914003A0914103B0914203892BB9
:1002F0008A2B8B2BC1F190912E03E0912F03F0916B
:10030000300380818927808380913F03909140034F
:10031000A0914103B0914203181619061A061B0654
:100320009CF480913F0390914003A0914103B091D0
:1003300042030197A109B10980933F0390934003C1
:10034000A0934103B0934203FF91EF91BF91AF910E
:100350009F918F913F912F910F900BBE0F900FBEE9
:100360000F901F90189520910002EEE2F2E0E491C8
:100370008FEF80930002E23009F44DC008F036C0E0
:10038000EE2309F43FC0E13009F43FC030E0F90149
:10039000E85DFE4F8491F901E857FE4F9491285192
:1003A0003E4FF9012491222379F2882309F455C0A4
:1003B0008150823108F051C0E82FF0E08827EC51DD
:1003C000FE4F8F4F0C94BE084502490228023D02A1
:1003D00041022D024C02520256025C02600264028B
:1003E0006A026E022D02720278027C02E43051F140
:1003F00018F1E53009F0CACF809173008D7F8093AA
:100400007300C4CF10926E00C1CF80916F008D7FBA
:1004100080936F00BBCF809170008D7F80937000C0
:1004200081E08093B0008091B100887F84608093E8
:10043000B1001092B300AACF809171008D7F80939C
:100440007100A4CF809172008D7F809372009ECF47
:10045000809180008F7780938000E22FF0E0EE0F94
:10046000FF1FE253FE4FA591B4918FB7F894EC9122
:1004700090959E239C938FBF67CF809180008F7D46
:10048000EACF80918000877FE6CF84B58F7784BDE7
:10049000E4CF84B58F7DFBCF8091B0008F778093C0
:1004A000B000DBCF8091B0008F7DF9CF80919000BC
:1004B0008F7780939000D1CF809190008F7DF9CF7E
:1004C00080919000877FF5CF8091A0008F778093F7
:1004D000A000C3CF8091A0008F7DF9CF8091A000B4
:1004E000877FF5CF809120018F7780932001B5CF52
:1004F000809120018F7DF9CF80912001877FF5CFFA
:100500001F920F920FB60F9211242F933F938F9348
:100510009F93AF93BF938091230390912403A09165
:100520002503B09126033091220323E0230F2D37BA
:1005300058F50196A11DB11D20932203809323033A
:1005400090932403A0932503B0932603809127035F
:1005500090912803A0912903B0912A030196A11D2F
:10056000B11D8093270390932803A0932903B09390
:100570002A03BF91AF919F918F913F912F910F903F
:100580000FBE0F901F90189526E8230F0296A11D0D
:10059000B11DD2CFCF93DF93CDB7DEB761970FB642
:1005A000F894DEBF0FBECDBF789484B5826084BD61
:1005B00084B5816084BD85B5826085BD85B5816067
:1005C00085BD80916E00816080936E0010928100E5
:1005D00080918100826080938100809181008160A0
:1005E0008093810080918000816080938000809161
:1005F000B10084608093B1008091B00081608093ED
:10060000B000809191008260809391008091910070
:100610008160809391008091900081608093900030
:100620008091A10082608093A1008091A1008160EF
:100630008093A1008091A00081608093A0008091B0
:10064000210182608093210180912101816080934A
:1006500021018091200181608093200180917A00A6
:10066000846080937A0080917A00826080937A001F
:1006700080917A00816080937A0080917A0080680E
:1006800080937A001092C10021E032E03A832983FE
:1006900081EC92E098878F8301EF11E021E9222E0F
:1006A00021E0322E80917B00877F80937B0090E455
:1006B00090937C0080917A00806480937A0080918E
:1006C0007A0086FDFCCFE0907800F0907900E98117
:1006D000FA812191319141915191FA83E98360E04E
:1006E00070E08FE294E40E94DA060E944C0769876A
:1006F0007A878B879C87EF81F885A190B190F887E6
:10070000EF838091000229853A852901330F66081D
:100710007708893009F03CC0EEE2F2E0F491F98B01
:10072000F989F7FFA4C0C301B2010E9484072AE936
:1007300039E949E95FE30E94100826E636E646EA11
:100740005FE30E94DA060E9453076B017C010E945E
:100750003B014B015C01C114D104E104F10409F433
:1007600019C30E943B01681979098A099B09683EEF
:1007700073408105910578F3E1E0CE1AD108E108D4
:10078000F108F8EE8F0EF3E09F1EA11CB11CE3CF21
:100790008F3F49F689E080930002EEE2F2E0F491A7
:1007A000F98BFF3F09F4BFCFF23009F44FC118F5C0
:1007B000FF2309F446C0F13009F0B2CF1092800057
:1007C00010928100809181008860809381008091E7
:1007D0008100816080938100F8018491E82FF0E02E
:1007E000EE0FFF1FE253FE4F85919491F10184912A
:1007F000809331033CC02989243009F467C108F48F
:1008000046C1253009F08CCF1092200110922101B1
:100810008091210188608093210180912101816074
:1008200080932101F8018491E82FF0E0EE0FFF1F83
:10083000E253FE4F85919491F101849180932B03B3
:1008400016C014BC15BC84B5826084BD85B58160BA
:1008500085BDF8018491E82FF0E0EE0FFF1FE25311
:10086000FE4F85919491F101849180933203F101BF
:100870004491F8018491882399F090E0880F991FA2
:10088000FC01E259FE4FA591B491FC01E253FE4FE9
:10089000259134918FB7F8949C91492B4C938FBF3D
:1008A000B701072E000C880B990B0E94840720E0EB
:1008B00030E040E05BE30E9410086B017C01B50171
:1008C000BB0C880B990B0E9484079B01AC01C701EC
:1008D000B6010E9410080E944C076D877E878F87A3
:1008E000988B2D853E854901B12CA12C60E072E1E9
:1008F0008AE790E0A5010E949F082B833C834D83EB
:100900005E8369017A0131E0C31AD108E108F10878
:1009100089898D7F09F074C18FEFC816D104E10475
:10092000F10409F00CF43BC160E472E48FE090E064
:10093000A50194010E949F0869017A0191E0C91AFA
:10094000D108E108F108E989E23009F0DCC082E071
:10095000FFEFCF16D104E104F10409F00CF46FC0ED
:1009600060E970ED83E090E0A50194010E949F088A
:1009700069017A0181E0C81AD108E108F10883E031
:100980009FEFC916D104E104F10409F00CF457C03B
:1009900068E478EE81E090E0A50194010E949F0850
:1009A00069017A0181E0C81AD108E108F10884E000
:1009B0009FEFC916D104E104F10409F00CF43FC023
:1009C00064E274EF80E090E0A50194010E949F082A
:1009D00069017A0181E0C81AD108E108F10885E0CF
:1009E0003FEFC316D104E104F10449F140F162E1A3
:1009F0007AE780E090E0A50194010E949F086901D8
:100A00007A01F1E0CF1AD108E108F10886E02FEF72
:100A1000C216D104E104F10491F088F0CB80DC80AF
:100A2000ED80FE809AE0F594E794D794C7949A9568
:100A3000D1F7F1E0CF1AD108E108F10887E09091F1
:100A4000B100987F892B8093B100B1C01092B000A3
:100A50001092B1008091B00082608093B0008091CC
:100A6000B10081608093B100F8018491E82FF0E03B
:100A7000EE0FFF1FE253FE4F859194919093300348
:100A800080932F03F101849180932E03F0CE109276
:100A90009000109291008091910088608093910065
:100AA00080919100816080939100F8018491E82FFA
:100AB000F0E0EE0FFF1FE253FE4F85919491F1019C
:100AC000849180932D03F3E0F98BD1CE1092A00096
:100AD0001092A1008091A10088608093A100809174
:100AE000A10081608093A100F8018491E82FF0E0DB
:100AF000EE0FFF1FE253FE4F85919491F101849117
:100B000080932C03B4CEEFEFCE16D104E104F104B0
:100B100009F00CF473C068E478EE81E090E0A50180
:100B200094010E949F0869017A01F1E0CF1AD1086F
:100B3000E108F108298984E0211152CF83E0EFEF29
:100B4000CE16D104E104F10471F16CF162E17AE7AF
:100B500080E090E0A50194010E949F0869017A015C
:100B600091E0C91AD108E108F10884E0EFEFCE1650
:100B7000D104E104F104B9F0B0F0CB80DC80ED8069
:100B8000FE808AE0F594E794D794C7948A95D1F7CC
:100B900021E0C21AD108E108F10885E004C081E033
:100BA000F989F1114CCF95B5987F892B85BD2FEF31
:100BB0003FEFA901411451046104710409F048C0D8
:100BC0008989823009F4D6C00CF0BDC0882309F4AD
:100BD000C2C0813009F0A7CDD0928900C0928800B0
:100BE00020934303309344034093450350934603BB
:100BF00080916F00826080936F0095CD82E0D0CFAE
:100C000091E0C114D10421E0E206F10484F068E42B
:100C100078EE81E090E0A50194010E949F086901AF
:100C20007A0181E0C81AD108E108F10893E0E98966
:100C3000E130E9F480918100887F892B80938100E5
:100C40002FEF3FEFA901411451046104710421F217
:100C50002D853E85220F331FA985BA850E94C608BF
:100C600028EE33E040E050E00E947D08A9CFF989EA
:100C7000F33001F580919100887F892B809391005A
:100C80002FEF3FEFA901411451046104710401F7F2
:100C9000D0929900C092980020933B0330933C037C
:100CA00040933D0350933E03809171008260809396
:100CB000710039CD2989243009F58091A100887F00
:100CC000892B8093A1002FEF3FEFA901411451041C
:100CD0006104710409F0BCCFD092A900C092A800B1
:100CE00020933703309338034093390350933A03EA
:100CF0008091720082608093720015CD3989353001
:100D000009F055CF80912101887F892B80932101A3
:100D10002FEF3FEFA901411451046104710409F060
:100D200097CFD0922901C0922801209333033093AA
:100D300034034093350350933603809173008260EF
:100D400080937300F0CC9989943031F20CF4A0CFE9
:100D5000953039F3E8CCC7BC209347033093480360
:100D60004093490350934A0380916E0082608093C0
:100D70006E00D9CCC092B30020933F033093400360
:100D800040934103509342038091700082608093AE
:100D90007000C9CC81EC92E0E981FA818E179F073F
:100DA00009F080CC80E090E0892B09F46DCC0E94A2
:100DB00000006ACC0E94EE060C94D6070E94CF0772
:100DC00058F00E94C80740F029F45F3F29F00C94C6
:100DD000BF0751110C940A080C94C5070E94E7073D
:100DE00068F39923B1F3552391F3951B550BBB275A
:100DF000AA2762177307840738F09F5F5F4F220F9F
:100E0000331F441FAA1FA9F335D00E2E3AF0E0E895
:100E100032D091505040E695001CCAF72BD0FE2FDF
:100E200029D0660F771F881FBB1F26173707480773
:100E3000AB07B0E809F0BB0B802DBF01FF2793582B
:100E40005F4F3AF09E3F510578F00C94BF070C9429
:100E50000A085F3FE4F3983ED4F38695779567954B
:100E6000B795F7959F5FC9F7880F911D9695879560
:100E700097F90895E1E0660F771F881FBB1F62177F
:100E800073078407BA0720F0621B730B840BBA0B3D
:100E9000EE1F88F7E09508950E9453076894B111FA
:100EA0000C940A0808950E94EF0788F09F5798F065
:100EB000B92F9927B751B0F0E1F0660F771F881F5F
:100EC000991F1AF0BA95C9F714C0B13091F00E9479
:100ED0000908B1E008950C940908672F782F882736
:100EE000B85F39F0B93FCCF3869577956795B395A0
:100EF000D9F73EF490958095709561957F4F8F4F0F
:100F00009F4F0895E89409C097FB3EF49095809513
:100F1000709561957F4F8F4F9F4F9923A9F0F92FBF
:100F200096E9BB279395F695879577956795B7953D
:100F3000F111F8CFFAF4BB0F11F460FF1BC06F5F23
:100F40007F4F8F4F9F4F16C0882311F096E911C035
:100F5000772321F09EE8872F762F05C0662371F056
:100F600096E8862F70E060E02AF09A95660F771F6A
:100F7000881FDAF7880F9695879597F9089597F95E
:100F80009F6780E870E060E008959FEF80EC08952F
:100F900000240A9416161706180609060895002458
:100FA0000A9412161306140605060895092E0394D2
:100FB000000C11F4882352F0BB0F40F4BF2B11F446
:100FC00060FF04C06F5F7F4F8F4F9F4F089557FDA5
:100FD0009058440F551F59F05F3F71F04795880FA7
:100FE00097FB991F61F09F3F79F08795089512163E
:100FF00013061406551FF2CF4695F1DF08C01616EA
:1010000017061806991FF1CF86957105610508949A
:101010000895E894BB2766277727CB0197F90895B1
:101020000E9423080C94D6070E94C80738F00E943B
:10103000CF0720F0952311F00C94BF070C94C5073F
:1010400011240C940A080E94E70770F3959FC1F3DE
:10105000950F50E0551F629FF001729FBB27F00D66
:10106000B11D639FAA27F00DB11DAA1F649F6627BB
:10107000B00DA11D661F829F2227B00DA11D621F0A
:10108000739FB00DA11D621F839FA00D611D221FC4
:10109000749F3327A00D611D231F849F600D211DA8
:1010A000822F762F6A2F11249F5750409AF0F1F02B
:1010B00088234AF0EE0FFF1FBB1F661F771F881F94
:1010C00091505040A9F79E3F510580F00C94BF0706
:1010D0000C940A085F3FE4F3983ED4F38695779525
:1010E0006795B795F795E7959F5FC1F7FE2B880F3A
:1010F000911D9695879597F90895A1E21A2EAA1B3E
:10110000BB1BFD010DC0AA1FBB1FEE1FFF1FA217B7
:10111000B307E407F50720F0A21BB30BE40BF50BB4
:10112000661F771F881F991F1A9469F7609570953D
:10113000809590959B01AC01BD01CF010895052ECE
:1011400097FB1EF400940E94B60857FD07D00E943A
:101150007D0807FC03D04EF40C94B60850954095DA
:10116000309521953F4F4F4F5F4F08959095809553
:10117000709561957F4F8F4F9F4F0895EE0FFF1F22
:10118000881F8BBF0790F691E02D19940E94CD081F
:10119000B7FF0895821B930B0895A29FB001B39FE0
:1011A000C001A39F700D811D1124911DB29F700D70
:0C11B000811D1124911D0895F894FFCFBB
:1011BC00FF00000040000000400000004000000064
:1011CC004000000040000000400000004000000013
:1011DC004000000040000000400000004000000003
:1011EC0040713DAA3F000080400000803F0000009D
:1011FC0040000000400000004000000040000000E3
:10120C0040000000400000004000000040000000D2
:10121C0040000000400000004000000040713DAA6A
:10122C003F000080400000803F00000040000000B4
:10123C004000000040000000400000004000008022
:10124C004000008040000000400000004000000012
:10125C004000008040000080400000004000000082
:10126C004000000040000000400000004000000072
:10127C00404A014A015D01880188015D014A01264D
:10128C00010601060126014A014A01260126014AEE
:10129C00014A015D01880188015D014A01260106B0
:1012AC0001060126014A0126010601060126012636
:1012BC00014A01060126014A015D014A0106012687
:1012CC00014A015D014A01260106012601000000C8
:0212DC00000010
:00000001FF
