:100000000C943B010C946C010C946C010C946C01ED
:100010000C946C010C946C010C946C010C946C01AC
:100020000C946C010C946C010C946C010C946C019C
:100030000C946C010C946C010C946C010C946C018C
:100040000C946C010C9425070C946C010C946C01BD
:100050000C946C010C946C010C946C010C94510682
:100060000C946C010C946C010C946C010C946C015C
:100070000C946C010C946C010C946C010C946C014C
:100080000C94F7060C946C010C946C010C946C01AC
:100090000C946C010C946C010C946C010C946C012C
:1000A0000C946C010C946C010C94C9060C946C01BA
:1000B0000C946C010C946C010C946C010C949B06D8
:1000C0000C946C010C946C010C946C010C941B0648
:1000D0000C94F1050C946C010C946C010C946C0163
:1000E0000C946C010C9492030C9402040C9449023D
:1000F0000C948C030C9488030C9442040C947403A9
:100100000C949A030C945F030C943A020C94A4038D
:100110000C94D1030C94F0020C9496030C9471038C
:100120000C945D020C9469030C947E030C945307A9
:100130000C9465030C946B020C947A030C94840366
:100140000C949F030C946D030C940D020C94A30269
:100150000C94A00300002100240027002A002D0099
:100160003000330001010000040107010A01000012
:100170002200250028002B002E003100340002014F
:100180000000050108010B010000200023002600EB
:1001900029002C002F00320000010000030106019D
:1001A00009010505050507050808080802020202FD
:1001B0000A0A080804040404010101010101010103
:1001C0000303030303030303040707070C0C0C0CCE
:1001D0000C0C0C0C020202020606060606060606B7
:1001E0000B0B0B0B0B0B0B0B010210202008081044
:1001F0002040102040800201020108040201010297
:10020000040810204080804020100804020180046F
:1002100002018040201008040201080402010102CA
:1002200004081020408001020408102040800000D3
:100230000A0B02090C0D0E08070304010000000060
:1002400000000000000000000000000000000000AE
:10025000000000000000000000001211100000006B
:10026000000000000000000000000000000000008E
:1002700000000000530711241FBECFEFD1E2DEBF04
:10028000CDBF00E00CBF12E0A0E0B2E0EEE3F8E189
:1002900000E00BBF02C007900D92A433B107D9F75D
:1002A00023E0A4E3B2E001C01D92AB3EB207E1F748
:1002B00011E0CBE3D1E000E006C021970109802FD7
:1002C000FE010E940E0CCA33D10780E00807A9F78F
:1002D0000E94FA070C941D0C0C940000CF92DF9240
:1002E000EF92FF92DC01A03282E0B807D4F5A53B83
:1002F000B10514F0A4EBB0E040917A0328E830E0B7
:10030000241B310947FD3395220F331F220F331F62
:100310006901330FEE08FF0840917B0328E532E0C6
:10032000241B310947FD3395220F331F220F331F42
:10033000032E000C440B550B2C193D094E095F0987
:10034000B7FF02C0B0E0A0E00E94B50B24EB30E0A4
:1003500040E050E00E948B0BC20ED31EE41EF51E3F
:10036000D601E0917903E03380F520917A0388E8A3
:1003700090E0821B910927FD9395880F991F880FA4
:10038000991FA817B90784F020917B0388E592E0B4
:10039000821B910927FD9395880F991F880F991F3C
:1003A000A817B9070CF4CD010297880F991F4FB712
:1003B000F8942E2F30E0F901EE0FFF1FE20FF31F2C
:1003C000E851FD4F928381834FBFFF90EF90DF9004
:1003D000CF90089596E0899FD0011124A458BC4F76
:1003E00090967C936E935F9791E091969C939197F2
:1003F000E091E903F091EA039091E803992339F041
:10040000309751F0811108C080919803199430976A
:1004100019F05C968C91FACF0895AF92BF92CF926B
:10042000DF92EF92FF920F931F93CF93DF936C01B4
:100430007B018B01040F151FEB015E01AE18BF0895
:10044000C017D10759F06991D601ED91FC91019047
:10045000F081E02DC6011995892B79F7C501DF914F
:10046000CF911F910F91FF90EF90DF90CF90BF90B1
:10047000AF900895FC01538D448D252F30E0842FDB
:1004800090E0821B930B541710F0CF9608950197BC
:100490000895FC01918D828D981761F0A28DAE0FA9
:1004A000BF2FB11D5D968C91928D9F5F9F73928F30
:1004B00090E008958FEF9FEF0895FC01918D828D5C
:1004C000981731F0828DE80FF11D858D90E0089529
:1004D0008FEF9FEF0895FC01918D228D892F90E081
:1004E000805C9F4F821B91098F73992708958BE43D
:1004F00092E00E946B0221E0892B09F420E0822F18
:100500000895FC01A48DA80FB92FB11DA35ABF4FA8
:100510002C91848D90E001968F739927848FA68902
:10052000B7892C93A089B1898C91837080648C9356
:10053000938D848D981306C00288F389E02D808105
:100540008F7D80830895EF92FF920F931F93CF9337
:10055000DF93EC0181E0888F9B8D8C8D98131AC0FE
:10056000E889F989808185FF15C09FB7F894EE89E5
:10057000FF896083E889F989808183708064808342
:100580009FBF81E090E0DF91CF911F910F91FF908D
:10059000EF900895F62E0B8D10E00F5F1F4F0F7335
:1005A0001127E02E8C8D8E110CC00FB607FCFACFF0
:1005B000E889F989808185FFF5CFCE010E9481020B
:1005C000F1CFEB8DEC0FFD2FF11DE35AFF4FF082C1
:1005D0009FB7F8940B8FEA89FB8980818062CFCF27
:1005E000CF93DF93EC01888D8823B9F0AA89BB896A
:1005F000E889F9898C9185FD03C0808186FD0DC055
:100600000FB607FCF7CF8C9185FFF2CF808185FF75
:10061000EDCFCE010E948102E9CFDF91CF91089505
:1006200080E090E0892B49F080E090E0892B29F070
:100630000E94000081110E94000080E090E0892B60
:1006400049F080E090E0892B29F00E9400008111A0
:100650000E94000080E090E0892B29F00E94770240
:1006600081110E94000080E090E0892B49F080E039
:1006700090E0892B29F00E94000081110C94000069
:1006800008958150823108F05AC0E82FF0E08827A1
:10069000E35BFC4F8F4F0C940E0C6D0371035F03F3
:1006A000650369039F0374037A037E03840388034D
:1006B0008C03920396039F039A03A003A4038091E3
:1006C00080008F77809380000895809180008F7DD7
:1006D000F9CF80918000877FF5CF84B58F7784BD77
:1006E000089584B58F7DFBCF8091B0008F77809384
:1006F000B00008958091B0008F7DF9CF8091900077
:100700008F77809390000895809190008F7DF9CF2E
:1007100080919000877FF5CF8091A0008F778093A4
:10072000A00008958091A0008F7DF9CF8091A00056
:10073000877FF5CF809120018F77809320010895E6
:10074000809120018F7DF9CF80912001877FF5CFA7
:10075000CF93DF93282F30E0F901E25DFD4F8491C4
:10076000F901E851FE4FD491F901EE55FE4FC491C5
:10077000CC23A1F081110E944103EC2FF0E0EE0F99
:10078000FF1FE857FE4FA591B491EC91ED2381E056
:1007900090E009F480E0DF91CF91089580E090E04F
:1007A000FACF862F0C94A8031F93CF93DF93282FA3
:1007B00030E0F901E25DFD4F8491F901E851FE4F0F
:1007C000D491F901EE55FE4FC491CC23A9F0162F18
:1007D00081110E944103EC2FF0E0EE0FFF1FE25960
:1007E000FE4FA591B4918FB7F894EC91111108C008
:1007F000D095DE23DC938FBFDF91CF911F910895B9
:10080000DE2BF8CF862F642F0C94D403CF93DF9385
:1008100090E0FC01E851FE4F24918E559E4FFC0163
:1008200084918823C9F090E0880F991FFC01EC5A4D
:10083000FE4FA591B491FC01E259FE4FC591D491B0
:1008400061110DC09FB7F8948C91209582238C93F1
:100850008881282328839FBFDF91CF91089562303C
:1008600051F49FB7F8943C91822F809583238C9309
:10087000E8812E2BEFCF8FB7F894EC912E2B2C9391
:100880008FBFEACF862F642F0C9406043FB7F894ED
:1008900080913D0290913E02A0913F02B0914002B2
:1008A00026B5A89B05C02F3F19F00196A11DB11DCB
:1008B0003FBFBA2FA92F982F8827BC01CD01620F07
:1008C000711D811D911D42E0660F771F881F991FC2
:1008D0004A95D1F708958F929F92AF92BF92CF928F
:1008E000DF92EF92FF924B015C010E9446046B0184
:1008F0007C010E9446046C197D098E099F09683E9F
:10090000734081059105A8F321E0821A9108A1089E
:10091000B10888EEC80E83E0D81EE11CF11C8114DA
:100920009104A104B10429F7FF90EF90DF90CF90DC
:10093000BF90AF909F908F9008952FB7F8946091DB
:10094000390270913A0280913B0290913C022FBF94
:1009500008950F931F930E949D0460935302709318
:10096000540280935502909356028BE492E00E94C9
:100970005D0297FF1DC00E949D04009153021091DB
:1009800054022091550230915602601B710B820B6C
:10099000930B00914F02109150022091510230911F
:1009A00052026017710782079307F8F28FEF9FEFEB
:1009B0001F910F9108950F931F93CF93DF93C82F2B
:1009C000D62F86E0C89FF0011124E458FC4F11A2F5
:1009D000878D90A181309105F1F058F0823091051A
:1009E000F1F1039709F440C0DF91CF911F910F916E
:1009F00008956623C9F361E070E08C2F0E94EA013C
:100A00000E949D046093D4037093D5038093D60312
:100A10009093D703E9CF0E949D040091D4031091D5
:100A2000D5032091D6033091D703AB01BC01401B05
:100A3000510B620B730B8091E6039091E703B0E0DA
:100A4000A0E084179507A607B70748F462E070E0B6
:100A50008C2FDF91CF911F910F910C94EA0163E0ED
:100A600070E0D111C1CFF4CF70E060E0F1CFAF9270
:100A7000BF92CF92DF92EF92FF920F931F93CF938B
:100A8000DF936B017A01EC01CC5CDD4F28813CE007
:100A9000389F8001399F100D1124A0907803B12C4C
:100AA00027FF1FC0FB011182108288818F5F88831E
:100AB00088819801280F311D87FD3A95F6012A1586
:100AC0003B051CF488818C30C4F1808191810496AF
:100AD00080349C4908F473C0F601808191810496AA
:100AE00070C088819801280F311D87FD3A952A151D
:100AF0003B05DCF68881A801480F511D87FD5A95FA
:100B0000FA01EE0FFF1FE40FF51FE851FD4F808142
:100B100086FFCBCF8881F801E80FF11D87FDFA959C
:100B2000CF01EE0FFF1FE80FF91FE851FD4F808145
:100B300060E08F730E94D403B8CF808191812881B7
:100B4000A801420F511D27FD5A959A01FA01EE0F97
:100B5000FF1FE20FF31FE851FD4F21813281820F09
:100B6000931FF7019183808388819801280F311D9D
:100B700087FD3A95F901EE0FFF1FE20FF31FE851D1
:100B8000FD4F808186FF22C08881080F111D87FDDF
:100B90001A95F801EE0FFF1FE00FF11FE851FD4F0E
:100BA000808161E08F73DF91CF911F910F91FF9052
:100BB000EF90DF90CF90BF90AF900C94D40380E47F
:100BC0009CE9F701918380838FEF8883DF91CF9138
:100BD0001F910F91FF90EF90DF90CF90BF90AF905B
:100BE00008951F920F920FB60F9211240BB60F9219
:100BF0002F933F934F935F936F937F938F939F9325
:100C0000AF93BF93EF93FF938BE492E00E94810236
:100C1000FF91EF91BF91AF919F918F917F916F91D4
:100C20005F914F913F912F910F900BBE0F900FBE90
:100C30000F901F9018951F920F920FB60F921124CC
:100C40000BB60F922F938F939F93EF93FF93E091A7
:100C50005B02F0915C028081E0916102F09162029E
:100C600082FD1DC09081809164028F5F8F732091FF
:100C70006502821741F0E0916402F0E0E55BFD4F10
:100C8000958F80936402FF91EF919F918F912F91A7
:100C90000F900BBE0F900FBE0F901F901895808184
:100CA000F2CF1F920F920FB60F9211242F933F9302
:100CB0008F939F93AF93BF938091390290913A02A3
:100CC000A0913B02B0913C023091380223E0230F07
:100CD0002D3758F50196A11DB11D20933802809340
:100CE000390290933A02A0933B02B0933C02809168
:100CF0003D0290913E02A0913F02B09140020196C8
:100D0000A11DB11D80933D0290933E02A0933F022E
:100D1000B0934002BF91AF919F918F913F912F91DE
:100D20000F900FBE0F901F90189526E8230F029684
:100D3000A11DB11DD2CF1F920F920FB60F92112499
:100D40000BB60F922F933F934F935F936F937F93C5
:100D50008F939F93AF93BF93EF93FF9348E251E03C
:100D600064E271E090E080E00E943705FF91EF912E
:100D7000BF91AF919F918F917F916F915F914F91B3
:100D80003F912F910F900BBE0F900FBE0F901F90B1
:100D900018951F920F920FB60F9211240BB60F9257
:100DA0002F933F934F935F936F937F938F939F9373
:100DB000AF93BF93EF93FF9348EA50E064EA70E08B
:100DC00083E090E00E943705FF91EF91BF91AF91D2
:100DD0009F918F917F916F915F914F913F912F9153
:100DE0000F900BBE0F900FBE0F901F9018951F9283
:100DF0000F920FB60F9211240BB60F922F933F93C1
:100E00004F935F936F937F938F939F93AF93BF9312
:100E1000EF93FF9348E950E064E970E082E090E0EE
:100E20000E943705FF91EF91BF91AF919F918F91F4
:100E30007F916F915F914F913F912F910F900BBEDA
:100E40000F900FBE0F901F9018951F920F920FB624
:100E50000F9211240BB60F922F933F934F935F93F2
:100E60006F937F938F939F93AF93BF93EF93FF9372
:100E700048E850E064E870E081E090E00E943705C7
:100E8000FF91EF91BF91AF919F918F917F916F9162
:100E90005F914F913F912F910F900BBE0F900FBE1E
:100EA0000F901F90189510924E0210924D0288EEEE
:100EB00093E0A0E0B0E080934F0290935002A093A3
:100EC0005102B09352028CE192E090934C028093D5
:100ED0004B0285ED90E0909358028093570284ED89
:100EE00090E090935A028093590280ED90E09093A5
:100EF0005C0280935B0281ED90E090935E028093B0
:100F00005D0282ED90E09093600280935F0286ED37
:100F100090E09093620280936102109264021092BA
:100F20006502109266021092670210927E03109280
:100F3000820310928103109283038EE292E09093D9
:100F40007D0380937C03E8E9F3E01082148213822E
:100F50001582369683E0E43DF807B9F784E092E025
:100F60009093DF038093DE0380E092E09093E103AF
:100F70008093E00384E08093E2038093E30388E0BE
:100F800092E09093DD038093DC038AE090E09093FD
:100F9000E5038093E40384EF91E09093E70380936B
:100FA000E6031092EA031092E9031092D80310921C
:100FB000D9031092DA031092DB031092E8038091B8
:100FC0007803803398F491E0980F9093780380939E
:100FD000790390E0FC01EE0FFF1FE80FF91FE851C5
:100FE000FD4F88EB9BE09283818308958FEF809380
:100FF00079030895789484B5826084BD84B5816056
:1010000084BD85B5826085BD85B5816085BD8091D3
:101010006E00816080936E0010928100809181004B
:101020008260809381008091810081608093810043
:10103000809180008160809380008091B100846005
:101040008093B1008091B00081608093B000809166
:1010500091008260809391008091910081608093E3
:101060009100809190008160809390008091A10018
:1010700082608093A1008091A10081608093A10093
:101080008091A00081608093A00080912101826006
:1010900080932101809121018160809321018091C1
:1010A000200181608093200180917A008460809388
:1010B0007A0080917A00826080937A0080917A0031
:1010C000816080937A0080917A00806880937A00B2
:1010D0001092C10080917903803308F053C061E021
:1010E00082E00E94060480917903282F30E0F90104
:1010F000EE0FFF1FE20FF31FE851FD4F9081907C30
:10110000926090839EE890937A0394E690937B0399
:101110002CE0622F0E94EE0B829FB001112430E080
:1011200020E0AB01420F531FFA01EE0FFF1FE40F47
:10113000F51FE851FD4F908196FD16C02F5F3F4F80
:101140002C30310571F78130B9F51092800082E0C2
:10115000809381001092850010928400B19A809152
:101160006F00826080936F00E09179038E2F90E092
:10117000FC01EE0FFF1FE80FF91FE851FD4F8081C2
:10118000806480831092420210924102C091410219
:10119000D0914202C53BD105DCF5CE010E946E0123
:1011A0006FE070E080E090E00E946B042196D093A5
:1011B0004202C0934102EACF823061F41092900063
:1011C00080939100109295001092940088BB8093B8
:1011D0007100CACF833069F41092A00082E080933E
:1011E000A1001092A5001092A40089BB8093720008
:1011F000BBCF8111B9CF1092200182E080932101F1
:1012000010922501109224018ABB80937300ACCF09
:1012100084EB90E09093420280934102C09141029E
:10122000D0914202D7FD0FC0CE010E946E016FE047
:1012300070E080E090E00E946B042197D09342021E
:10124000C0934102EBCFE0915B02F0915C0282E03F
:101250008083E0915702F09158021082E091590288
:10126000F0915A028FEC808310926302E0915F024A
:10127000F091600286E08083E0915D02F0915E0271
:10128000808180618083E0915D02F0915E028081C7
:1012900088608083E0915D02F0915E0280818068C9
:1012A0008083E0915D02F0915E0280818F7D80837A
:1012B0006CE271E080E090E00E946B048AE590E0CF
:1012C0000E946E0122242A94322C66E0C62E7AE017
:1012D000D72E44244A94E3E05E2E612C712C21E049
:1012E0002093E8030E949D040091D8031091D90334
:1012F0002091DA033091DB03AB01BC01401B510BA1
:10130000620B730B8091E4039091E503B0E0A0E0E1
:1013100084179507A607B70708F08DC1C0E0809134
:10132000E203C81760F4E091DE03F091DF03EC0FF5
:10133000F11D62E080810E940604CF5FF0CF912C06
:101340008091E303981608F061C0092D10E0E09148
:10135000E003F091E103E00FF11F61E080810E9462
:101360000604E091E003F091E103E00FF11F60E07B
:1013700080810E94D40381E090E0A0E0B0E0092CDD
:1013800004C0880F991FAA1FBB1F0A94D2F75C01E3
:101390007C01E094F094812C8091E2038816F8F4AB
:1013A000C82DD0E0E091DE03F091DF03EC0FFD1FCC
:1013B00080810E94A8032496CC0FDD1FC458DC4F07
:1013C000892B41F4888199818A299B299983888373
:1013D0008394E2CF888199818E219F21F7CFE0917C
:1013E000E003F091E103E00FF11F61E080810E94D2
:1013F000D4038091E0039091E103080F191F60E08E
:10140000F80180810E94060493949ACF3CE7E32E72
:1014100033E0F32EE7018F8D98A1892B21F41C8EE8
:101420003E8E2D8E19A22696F3E0C83BDF0799F772
:1014300010E08091E203181708F052C000E0812FFD
:1014400090E0880F991F9C012C573C4F5901209127
:10145000E303021708F042C0F50160817181002E9C
:1014600002C0769567950A94E2F7129F90011124C5
:10147000200F311DECE7F3E080E0458D568D2417F9
:10148000350709F446C18F5F36968A30B1F760FFA1
:1014900023C0ECE7F3E090E080E0448D411117C0F9
:1014A000E091DC03F091DD03E20FF31F4081C89E61
:1014B000F001C99EF00D1124E458FC4F448F368F83
:1014C000258F10A2178E61E00E94DB0405C00196F3
:1014D00036968A30910509F70F5FB9CF1F5FA9CF04
:1014E00010E0F70181A18111182FF6E0EF0EF11C39
:1014F000CE15DF05B1F70E949D046093D803709369
:10150000D9038093DA039093DB03112309F493C08A
:1015100080919D03882309F48EC080919B03909154
:101520009C038130910509F086C0409198034111D8
:1015300085C08091490290914A028130910509F05D
:10154000C3C000914502109146020F5F1F4F1093D8
:101550004602009345028091430290914402D89E36
:10156000E001D99ED00D1124D0934402C0934302D0
:101570000E94A904FC0197FDA3C08D32910521F0C2
:10158000C0970A9708F094C0812C912C5401F12C3B
:10159000E130F105D9F0ED32F10509F48EC0CF014B
:1015A000C0970A9798F4AAE0B0E0A50194010E94C0
:1015B000AA0B4F01FF0FAA08BB08860E971EA81E94
:1015C000B91E30E3831A9108A108B1088BE492E0B8
:1015D0000E9449020E94A904FC01C0970A97C0F228
:1015E000E130F105A9F2FF2041F0B094A09490946D
:1015F0008094811C911CA11CB11CCE01880D991DE9
:1016000090934402809343028331910518F4033090
:10161000110571F40E946E0110924402109243026F
:1016200010924A021092490210924602109245020C
:101630000E94100354CE1092E8037BCF4A3229F463
:1016400090934A028093490274CF4F3239F422E0DA
:1016500030E030934A02209349026BCF4D3329F496
:1016600010924A021092490264CF809147029091F1
:10167000480220ED240F2A30A0F4D89E9001D99E74
:10168000300D1124C901840F911D47FD9A95C09713
:1016900065EB70E00E94FA0B90934802809347023A
:1016A00048CF0E946E01109248021092470241CF2B
:1016B0008BE492E00E9449025BCFFF24F39486CF33
:1016C000812C912C540199CF029709F0B1CF8091D0
:1016D0007B00877F80937B0080E480937C008091F7
:1016E0007A00806480937A0080917A0086FDFCCF36
:1016F000A091780080917900B82F24EB30E00E940F
:10170000160CA30192010E948B0BC9010E946E016D
:101710008FCF6170D9CE052E97FB1EF400940E94E6
:10172000A20B57FD07D00E94BD0B07FC03D04EF45F
:101730000C94A20B50954095309521953F4F4F4FFB
:101740005F4F089590958095709561957F4F8F4F6D
:101750009F4F08950E94DF0BA59F900DB49F900DA1
:10176000A49F800D911D11240895B7FF0C94AA0B1E
:101770000E94AA0B821B930B0895A1E21A2EAA1BAA
:10178000BB1BFD010DC0AA1FBB1FEE1FFF1FA21731
:10179000B307E407F50720F0A21BB30BE40BF50B2E
:1017A000661F771F881F991F1A9469F760957095B7
:1017B000809590959B01AC01BD01CF010895A29F3A
:1017C000B001B39FC001A39F700D811D1124911D15
:1017D000B29F700D811D1124911D0895991B79E010
:1017E00004C0991F961708F0961B881F7A95C9F7B1
:1017F00080950895AA1BBB1B51E107C0AA1FBB1F00
:10180000A617B70710F0A61BB70B881F991F5A958C
:10181000A9F780959095BC01CD010895EE0FFF1FAB
:10182000881F8BBF0790F691E02D19940E94DF0B63
:0E183000B7FF0895821B930B0895F894FFCF25
:10183E0019181716323334353738392F3435362ACE
:10184E003132332D63303D2B00000000A3020D0218
:10185E003A02F0026B0249025D02000000004204EF
:04186E000204D1039C
:00000001FF
