:100000000C9439010C946A010C946A010C946A01F5
:100010000C946A010C946A010C946A010C946A01B4
:100020000C946A010C946A010C946A010C946A01A4
:100030000C946A010C94AC0A0C946A010C946A0149
:100040000C946A010C941F0C0C946A010C946A01C4
:100050000C946A010C946A010C946A010C944B0B89
:100060000C944D0C0C946A010C946A010C946A0176
:100070000C946A010C946A010C946A010C946A0154
:100080000C94F10B0C946A010C946A010C946A01B3
:100090000C946A010C946A010C946A010C946A0134
:1000A0000C946A010C946A010C94C30B0C946A01C1
:1000B0000C946A010C946A010C946A010C94950BDF
:1000C0000C946A010C946A010C946A010C946A0104
:1000D0000C946A010C946A010C946A010C946A01F4
:1000E0000C946A010C944C020C947F020C948702CD
:1000F0000C94060F0C945E020C946B020C9400029C
:100100000C945A020C94BF090C9467020C948D0253
:100110000C9479020C9452020C9475020C943C05D8
:100120000C9456020C9483020C9471020C94EF020E
:100130000C9491020C948C020C949E0F0C9461020E
:100140000C942F030C9401020C94BE0200002100B9
:10015000240027002A002D00300033000101000098
:10016000040107010A0100002200250028002B00DD
:100170002E003100340002010000050108010B01CE
:10018000000020002300260029002C002F00320050
:100190000001000003010601090105050505070529
:1001A00008080808020202020A0A080804040404F3
:1001B000010101010101010103030303030303031F
:1001C000040707070C0C0C0C0C0C0C0C02020202AE
:1001D00006060606060606060B0B0B0B0B0B0B0B97
:1001E0000102102020080810204010204080020149
:1001F000020108040201010204081020408080402E
:10020000201008040201800402018040201008042C
:1002100002010804020101020408102040800102CA
:1002200004081020408000000A0B02090C0D0E0883
:1002300007030401000000000000000000000000AF
:1002400000000000000000000000000000000000AE
:10025000000012111000000000000000000000006B
:100260000000000000000000000000000200060F77
:100270009E0F11241FBECFEFD1E2DEBFCDBF00E045
:100280000CBF12E0A0E0B2E0EEE5F7E200E00BBF49
:1002900002C007900D92A43DB107D9F724E0A4ED68
:1002A000B2E001C01D92AA33B207E1F711E0C8E342
:1002B000D1E000E006C021970109802FFE010E94D5
:1002C0007811C733D10780E00807A9F70E94930C83
:1002D0000C949D130C94000096E0899FD00111248A
:1002E000A155BC4F90967C936E935F9791E0919649
:1002F0009C939197E0911C04F0911D0490911B0434
:10030000992339F0309751F0811108C08091CB03C7
:100310001994309719F05C968C91FACF08958F92CA
:100320009F92AF92BF92FF920F931F93CF93DF9351
:100330008F3F980709F461C0853B910511F484EB68
:1003400090E0F090AC032FE22F1508F44CC0209100
:10035000AE0308E512E0021B110927FD1395000FFB
:10036000111F000F111F2091AD03C8E8D0E0C21B80
:10037000D10927FDD395CC0FDD1FCC0FDD1F4E011A
:100380000D2E000CAA08BB089801012E000C440B8E
:10039000550B281939094A095B09DC010E94FD1037
:1003A00024EB30E040E050E00E94D310820E931E18
:1003B000A41EB51E8C169D062CF0E8018016910631
:1003C0000CF4E4012297CC0FDD1F2FB7F8948F2D8A
:1003D00090E0FC01EE0FFF1FE80FF91FE45EFC4FF9
:1003E000D283C1832FBFDF91CF911F910F91FF90D7
:1003F000BF90AF909F908F90089590E080E0A1CF44
:100400000895AF92BF92CF92DF92EF92FF920F9337
:100410001F93CF93DF936C017B018B01040F151F9A
:10042000EB015E01AE18BF08C017D10759F0699102
:10043000D601ED91FC910190F081E02DC601199556
:10044000892B79F7C501DF91CF911F910F91FF9013
:10045000EF90DF90CF90BF90AF90089581508231A0
:1004600008F05AC0E82FF0E08827E65CFD4F8F4F78
:100470000C9478115A025E024C02520256028C020F
:10048000610267026B027102750279027F028302C8
:100490008C0287028D029102809180008F77809379
:1004A00080000895809180008F7DF9CF8091800039
:1004B000877FF5CF84B58F7784BD089584B58F7D10
:1004C000FBCF8091B0008F778093B000089580912A
:1004D000B0008F7DF9CF809190008F77809390004E
:1004E0000895809190008F7DF9CF80919000877F53
:1004F000F5CF8091A0008F778093A0000895809120
:10050000A0008F7DF9CF8091A000877FF5CF8091EB
:1005100020018F77809320010895809120018F7DA5
:10052000F9CF80912001877FF5CFCF93DF93282FDC
:1005300030E0F901EA5DFD4F8491F901E052FE4F90
:10054000D491F901E656FE4FC491CC23A1F081115C
:100550000E942E02EC2FF0E0EE0FFF1FE058FE4F3E
:10056000A591B491EC91ED2381E090E009F480E055
:10057000DF91CF91089580E090E0FACF862F0C9420
:1005800095021F93CF93DF93282F30E0F901EA5DA6
:10059000FD4F8491F901E052FE4FD491F901E656E6
:1005A000FE4FC491CC23A9F0162F81110E942E0278
:1005B000EC2FF0E0EE0FFF1FEA59FE4FA591B4912A
:1005C0008FB7F894EC91111108C0D095DE23DC931D
:1005D0008FBFDF91CF911F910895DE2BF8CF862F2B
:1005E000642F0C94C102CF93DF9390E0FC01E052A2
:1005F000FE4F249186569E4FFC0184918823C9F0BA
:1006000090E0880F991FFC01E45BFE4FA591B49127
:10061000FC01EA59FE4FC591D49161110DC09FB7FD
:10062000F8948C91209582238C93888128232883A9
:100630009FBFDF91CF910895623051F49FB7F89436
:100640003C91822F809583238C93E8812E2BEFCFD2
:100650008FB7F894EC912E2B2C938FBFEACF862F77
:10066000642F0C94F3023FB7F8948091F7029091B5
:10067000F802A091F902B091FA0226B5A89B05C034
:100680002F3F19F00196A11DB11D3FBFBA2FA92F11
:10069000982F8827BC01CD01620F711D811D911D0E
:1006A00042E0660F771F881F991F4A95D1F708957A
:1006B0008F929F92AF92BF92CF92DF92EF92FF9272
:1006C0000E9433034B015C0185E0C82ED12CE12C44
:1006D000F12C0E943303681979098A099B09683E45
:1006E000734081059105A8F321E0C21AD108E10801
:1006F000F10888EE880E83E0981EA11CB11CC1147D
:10070000D104E104F10429F7FF90EF90DF90CF903E
:10071000BF90AF909F908F9008952FB7F8946091FD
:10072000F3027091F4028091F5029091F6022FBFCE
:1007300008950F931F93CF93DF93C82FD62F86E092
:10074000C89FF0011124E155FC4F11A2878D90A1A3
:1007500081309105F1F058F082309105F1F1039765
:1007600009F440C0DF91CF911F910F910895662346
:10077000C9F361E070E08C2F0E946C010E948D0330
:1007800060930704709308048093090490930A040B
:10079000E9CF0E948D030091070410910804209175
:1007A000090430910A04AB01BC01401B510B620BE0
:1007B000730B8091190490911A04B0E0A0E08417A3
:1007C0009507A607B70748F462E070E08C2FDF9129
:1007D000CF911F910F910C946C0163E070E0D111E7
:1007E000C1CFF4CF70E060E0F1CF6F927F928F9233
:1007F0009F92AF92BF92CF92DF92EF92FF920F93B0
:100800001F93CF93DF9381E080931B040E948D039D
:1008100000910B0410910C0420910D0430910E04F2
:10082000AB01BC01401B510B620B730B8091170491
:1008300090911804B0E0A0E084179507A607B707C9
:1008400008F014C1C0E080911504C81760F4E0916D
:100850001104F0911204EC0FF11D62E080810E94FE
:10086000F302CF5FF0CF712C812C912C5401839433
:1008700080911604781608F05FC0072D10E0E09113
:100880001304F0911404E00FF11F61E080810E94D5
:10089000F302E0911304F0911404E00FF11F60E003
:1008A00080810E94C102D501C401072C04C0880FB9
:1008B000991FAA1FBB1F0A94D2F76C017C01E09418
:1008C000F094612C809115046816F8F4C62DD0E0E0
:1008D000E0911104F0911204EC0FFD1F80810E9441
:1008E00095022496CC0FDD1FC155DC4F892B41F4B6
:1008F000888199818C299D29998388836394E2CF8B
:10090000888199818E219F21F7CFE0911304F09186
:100910001404E00FF11F61E080810E94C102809108
:10092000130490911404080F191F60E0F8018081EE
:100930000E94F30273949CCFCFEAD3E0FE018FEFC5
:100940009FEF278D30A1232B21F4148E968F858F56
:1009500011A2369623E0EB3EF20799F7F12C96E0D0
:10096000D92E80911504F81608F050C0E12C0F2DF7
:1009700010E0000F111F09541C4F20911604E216BD
:1009800008F042C0F801608171810E2C02C076959A
:1009900067950A94E2F7F29E900111242E0D311D05
:1009A000EFEAF3E080E0458D568D2417350709F412
:1009B00061C08F5F36968A30B1F760FF23C0EFEADF
:1009C000F3E090E080E0448D411117C0E0910F0406
:1009D000F0911004E20FF31F4081D89EF001D99EE0
:1009E000F00D1124E155FC4F448F368F258F10A256
:1009F000178E61E00E94990305C0019636968A30F1
:100A0000910509F7E394B9CFF394ABCF10E089A136
:100A10008111182F2696F3E0CB3EDF07C1F70E9425
:100A20008D0360930B0470930C0480930D049093DA
:100A30000E041123D9F08091D0038823B9F080915E
:100A4000CE039091CF03019789F48091CB03DF917E
:100A5000CF911F910F91FF90EF90DF90CF90BF90BB
:100A6000AF909F908F907F906F90089510921B048D
:100A700080E0EDCF6170BECF90E080E00895AF924E
:100A8000BF92CF92DF92EF92FF920F931F93CF937B
:100A9000DF936B017A01EC01C251DD4F28813CE00C
:100AA000389F8001399F100D1124A090ED02B12CC8
:100AB00027FF1FC0FB011182108288818F5F88830E
:100AC00088819801280F311D87FD3A95F6012A1576
:100AD0003B051CF488818C30C4F18081918104969F
:100AE00080349C4908F473C0F6018081918104969A
:100AF00070C088819801280F311D87FD3A952A150D
:100B00003B05DCF68881A801480F511D87FD5A95E9
:100B1000FA01EE0FFF1FE40FF51FE45EFC4F80812A
:100B200086FFCBCF8881F801E80FF11D87FDFA958C
:100B3000CF01EE0FFF1FE80FF91FE45EFC4F80812D
:100B400060E08F730E94C102B8CF808191812881BB
:100B5000A801420F511D27FD5A959A01FA01EE0F87
:100B6000FF1FE20FF31FE45EFC4F21813281820FF1
:100B7000931FF7019183808388819801280F311D8D
:100B800087FD3A95F901EE0FFF1FE20FF31FE45EB8
:100B9000FC4F808186FF22C08881080F111D87FDD0
:100BA0001A95F801EE0FFF1FE00FF11FE45EFC4FF6
:100BB000808161E08F73DF91CF911F910F91FF9042
:100BC000EF90DF90CF90BF90AF900C94C10280E483
:100BD0009CE9F701918380838FEF8883DF91CF9128
:100BE0001F910F91FF90EF90DF90CF90BF90AF904B
:100BF000089560E08EE30E94C10260E08FE30C94F0
:100C0000C102EF92FF921F93CF93DF937C0161E0CB
:100C100085E40E94C10280911902853441F08F3F22
:100C2000E9F0DF91CF911F91FF90EF900895ECE6EE
:100C3000F2E0C491C7FDF5CF61E085E40E94F302C4
:100C4000CC2309F4DEC0C23009F00AC18091B100A2
:100C5000887F83608093B100D9EFD8C085E480930A
:100C60001902ECE6F2E0C4918C2FCF3FD1F2C230F2
:100C700009F468C060F4CC2379F1C13009F444C0B0
:100C800087FDCFCF61E085E40E94F302DCCFC43062
:100C900009F499C008F478C0C53091F7109220018A
:100CA000109221018091210188608093210180911F
:100CB0002101816080932101EFEDF1E0E491F0E00A
:100CC000EE0FFF1FEA59FE4F85919491E5E2F2E0A5
:100CD000E491E093D402B0CF14BC15BC84B582601B
:100CE00084BD85B5816085BDEFEDF1E0E491F0E074
:100CF000EE0FFF1FEA59FE4F85919491E5E2F2E075
:100D0000E491E093D80298CF109280001092810075
:100D10008091810088608093810080918100816052
:100D200080938100EFEDF1E0E491F0E0EE0FFF1F22
:100D3000EA59FE4F85919491E5E2F2E0E491E09367
:100D4000D7027ACF1092B0001092B1008091B0001B
:100D500082608093B0008091B10081608093B10087
:100D6000EFEDF1E0E491F0E0EE0FFF1FEA59FE4FE6
:100D7000859194919093FC028093FB02E5E2F2E06E
:100D8000E491E093FD0258CF1092900010929100F0
:100D900080919100886080939100809191008160A2
:100DA00080939100EFEDF1E0E491F0E0EE0FFF1F92
:100DB000EA59FE4F85919491E5E2F2E0E491E093E7
:100DC000D602C3E039CF1092A0001092A10080910A
:100DD000A10088608093A1008091A1008160809330
:100DE000A100EFEDF1E0E491F0E0EE0FFF1FEA5912
:100DF000FE4F85919491E5E2F2E0E491E093D50213
:100E00001BCF85B5887F836085BDDCE710E020EDD2
:100E100037E0D7010E94801128EE33E040E050E037
:100E20000E940511C23009F450C00CF086C0CC23DA
:100E3000E9F1C13009F0F5CE8D2F912F9093890003
:100E4000809388002093E5023093E6024093E70206
:100E50005093E80280916F00826080936F00E1CE32
:100E6000C13049F480918100887F81608093810046
:100E7000DFE31FE1CCCFC33039F480919100887F4C
:100E8000816080939100F4CFC43039F48091A10047
:100E9000887F81608093A100EBCFC53049F78091B6
:100EA0002101887F816080932101E2CFD7BD20930B
:100EB000E9023093EA024093EB025093EC028091F6
:100EC0006E00826080936E00ACCED093B30020930E
:100ED000FE023093FF024093000350930103809180
:100EE00070008260809370009CCE8D2F912F909324
:100EF0009900809398002093E1023093E20240939E
:100F0000E3025093E402809171008260809371004B
:100F100088CE8D2F912F9093A9008093A8002093C5
:100F2000DD023093DE024093DF025093E0028091B5
:100F3000720082608093720074CEC43051F3ACF2C0
:100F4000C53009F06ECE8D2F912F9093290180939B
:100F500028012093D9023093DA024093DB025093A8
:100F6000DC02809173008260809373005ACECF932D
:100F70000E94F905C091000261E0CC2369F08EE384
:100F80000E94C10280E991E00E94010681E0C82729
:100F9000C0930002CF9108958FE30E94C102F6CF63
:100FA000CF93DF9388EE93E00E940106D0E0C0E08B
:100FB000CE010E948F010E9458032196C53BD105A6
:100FC000B9F781E080931A03DF91CF9108950F93D1
:100FD0001F93CF93DF93EC01188219821A821B8230
:100FE0000E94F503182F8823D9F382E390E00E9432
:100FF0000106288139814A815B8180ED810F8A3029
:10100000C0F4AAE0B0E00E94F210212F110F330BC0
:10101000205331098901330F220B330BDC01CB0143
:10102000800F911FA21FB31F88839983AA83BB835C
:10103000D7CF232B242B252B99F2DF91CF911F9112
:101040000F910895FC0180819181009711F00C941B
:1010500023120895CF93DF93EC0160E08E810E940C
:10106000C10261E08E810E94C10260E08E810E9417
:10107000C1028BE891E00197F1F7DF91CF910895DC
:10108000CF92DF92EF92FF920F931F93CF93DF9354
:101090006C017C0187E0E80EF11CD0E0C0E0062F77
:1010A00010E0B8010C2E02C0759567950A94E2F71E
:1010B0006170F70181917F010E94C1022196C430C5
:1010C000D10579F7C601DF91CF911F910F91FF9064
:1010D000EF90DF90CF900C942A08CF92DF92EF929E
:1010E000FF920F931F93CF93DF93EC01F62E642FA3
:1010F0008C810E94C1028D818F3F19F060E00E94B7
:10110000C1020F2D10E08F8584FF25C06E0187E09E
:10111000C80ED11CF12CE12CB8010E2C02C0759523
:1011200067950A94E2F76170F60181916F010E9460
:10113000C102FFEFEF1AFF0A88E0E816F10461F739
:10114000CE01DF91CF911F910F91FF90EF90DF9033
:10115000CF900C942A08B80184E0759567958A951C
:10116000E1F7CE010E9440086F2DCE01DF91CF91B3
:101170001F910F91FF90EF90DF90CF900C9440085B
:1011800040E0682F8EE194E00C946D08CF93DF93DC
:10119000823029F490912D04986090932D048093CF
:1011A00031041092320480E48093330480E1809310
:1011B000340480E58093350461E0809122040E942C
:1011C000F302809123048F3F19F061E00E94F30243
:1011D00061E0809124040E94F302CEE1D4E09E01FC
:1011E0002E51344080912D0484FD0BC084E090E0AA
:1011F00021962817390744F461E08E810E94F3029A
:10120000EECF88E090E0F4CF8BE39DE00197F1F71B
:1012100060E0809122040E94C10260E08091240479
:101220000E94C102809123048F3F19F060E00E9468
:10123000C10280912D0484FD39C063E08EE194E009
:101240000E944008CBE4D6E4CE010197F1F763E0B9
:101250008EE194E00E9440082197F1F763E08EE16F
:1012600094E00E94400883E592E00197F1F762E084
:101270008EE194E00E94400880912D0480620E94DB
:10128000C00884E080932E048CE00E94C00881E0B6
:101290000E94C0088BE39FE10197F1F782E0809301
:1012A0002F0486E0DF91CF910C94C00880620E94E9
:1012B000C0088BE496E40197F1F780912D048062D9
:1012C0000E94C00883E592E00197F1F780912D0418
:1012D00080620E94C008D0CFCF93DF9381E00E944C
:1012E000C0088BE39FE10197F1F7E1E080913104C1
:1012F0008111E0E0E195F0E0E25EFB4FC0E1D0E07B
:1013000080911003909111039E01281B390B369593
:1013100027958489820F80680E94C008409110033D
:101320005091110360910C0370910D038EE194E0D4
:101330000E9401028091060390910703C81BD90BFC
:10134000D695C795E0913104E230B8F4E150F0E071
:10135000E25EFB4F84898C0F80680E94C008409138
:1013600006035091070360910203709103038EE11D
:1013700094E0DF91CF910C940102E1E0E8CF41E0ED
:101380000E946D0881E090E008950F931F93CF9322
:10139000DF93EC0188819981009759F02A813B8184
:1013A0002617370730F081E0DF91CF911F910F9121
:1013B00008958B016F5F7F4F0E94AC12009759F028
:1013C000998388831B830A832C813D81232B59F7C2
:1013D000FC011082E8CF80E0E7CFCF93DF93EC01F0
:1013E000198218821B821A821D821C8270E060E0C2
:1013F0000E94C5092881398181110FC0211531054D
:1014000019F0C9010E942312198218821D821C82C0
:101410001B821A82DF91CF9108951D821C8262ED9A
:1014200072E0C901DF91CF910C949613EF92FF9275
:101430000F931F93CF93DF93EC017B01FB0101908E
:101440000020E9F731978F01061B170BB8010E94A6
:10145000C50928813981811113C02115310519F081
:10146000C9010E942312198218821D821C821B82CC
:101470001A82DF91CF911F910F91FF90EF90089505
:101480001D830C83B701C901DF91CF911F910F918B
:10149000FF90EF900C949613CF93DF9381E08093AD
:1014A0001A0210921B0288EE93E00E940106C4EB20
:1014B000D0E0CE010E948F010E9458032197C8F707
:1014C00010921A0368E372E08CE093E00E94160A1F
:1014D00067E472E082E093E00E94160ADF91CF9108
:1014E0000C946C0967E572E08CE093E00E94160AA8
:1014F00066E672E082E093E00E94160A0E946C09A0
:1015000086E193E00E94E70767E572E08CE093E0F4
:101510000E94160A61E772E082E093E00E94160AD8
:101520000E946C0988E093E00E94E707209108037D
:101530003091090340910A0350910B03A8EEB3E0E8
:101540000E94F210609308037093090380930A03CA
:1015500090930B030C944C0A1F920F920FB60F92AC
:1015600011240BB60F922F933F934F935F936F937A
:101570007F938F939F93AF93BF93EF93FF9380914C
:10158000FE029091FF02A0910003B0910103892B0C
:101590008A2B8B2BE1F19091FD02E091FB02F091FF
:1015A000FC028081892780838091FE029091FF0256
:1015B000A0910003B0910103181619061A061B0624
:1015C0009CF48091FE029091FF02A0910003B091E3
:1015D00001030197A109B1098093FE029093FF02D4
:1015E000A0930003B0930103FF91EF91BF91AF91DE
:1015F0009F918F917F916F915F914F913F912F912B
:101600000F900BBE0F900FBE0F901F9018958091FA
:101610001902ECE6F2E0E4919FEF90931902E230B8
:10162000E9F040F4EE2389F0E13091F060E00E94AF
:10163000C102DACFE43049F110F1E530B9F7909109
:1016400073009D7F90937300F1CF10926E00EECFE8
:1016500090916F009D7F90936F00E8CF9091700004
:101660009D7F9093700091E09093B0009091B100B5
:10167000987F94609093B1001092B300D7CF90916F
:1016800071009D7F90937100D1CF909172009D7FEA
:1016900090937200CBCF1F920F920FB60F9211242E
:1016A0002F933F938F939F93AF93BF938091F302B8
:1016B0009091F402A091F502B091F6023091F202FD
:1016C00023E0230F2D3758F50196A11DB11D20935E
:1016D000F2028093F3029093F402A093F502B09388
:1016E000F6028091F7029091F802A091F902B09170
:1016F000FA020196A11DB11D8093F7029093F802A2
:10170000A093F902B093FA02BF91AF919F918F918C
:101710003F912F910F900FBE0F901F90189526E8C4
:10172000230F0296A11DB11DD2CF1F920F920FB6AB
:101730000F9211240BB60F922F933F934F935F9309
:101740006F937F938F939F93AF93BF93EF93FF9389
:1017500048E251E064E271E090E080E00E943F05E1
:10176000FF91EF91BF91AF919F918F917F916F9179
:101770005F914F913F912F910F900BBE0F900FBE35
:101780000F901F9018951F920F920FB60F92112471
:101790000BB60F922F933F934F935F936F937F936B
:1017A0008F939F93AF93BF93EF93FF9348EA50E0DB
:1017B00064EA70E083E090E00E943F05FF91EF91C2
:1017C000BF91AF919F918F917F916F915F914F9159
:1017D0003F912F910F900BBE0F900FBE0F901F9057
:1017E00018951F920F920FB60F9211240BB60F92FD
:1017F0002F933F934F935F936F937F938F939F9319
:10180000AF93BF93EF93FF9348E950E064E970E032
:1018100082E090E00E943F05FF91EF91BF91AF9170
:101820009F918F917F916F915F914F913F912F91F8
:101830000F900BBE0F900FBE0F901F9018951F9228
:101840000F920FB60F9211240BB60F922F933F9366
:101850004F935F936F937F938F939F93AF93BF93B8
:10186000EF93FF9348E850E064E870E081E090E097
:101870000E943F05FF91EF91BF91AF919F918F9192
:101880007F916F915F914F913F912F910F900BBE80
:101890000F900FBE0F901F9018951F920F920FB6CA
:1018A0000F9211240BB60F922F933F934F935F9398
:1018B0006F937F938F939F93AF93BF93EF93FF9318
:1018C0009EB581E0911101C080E080931B0380915F
:1018D0001B03882329F10E94D0076DEB72E08CE096
:1018E00093E00E94160A67EC72E082E093E00E94A7
:1018F000160A0E946C090E94B707FF91EF91BF91F1
:10190000AF919F918F917F916F915F914F913F9197
:101910002F910F900BBE0F900FBE0F901F90189538
:101920000E94F905EACFCF93DF93CDB7DEB7A79733
:101930000FB6F894DEBF0FBECDBF789484B5826039
:1019400084BD84B5816084BD85B5826085BD85B563
:10195000816085BD80916E00816080936E001092E1
:10196000810080918100826080938100809181005C
:1019700081608093810080918000816080938000ED
:101980008091B10084608093B1008091B00081604B
:101990008093B0008091910082608093910080914B
:1019A000910081608093910080919000816080938C
:1019B00090008091A10082608093A1008091A1009D
:1019C00081608093A1008091A00081608093A0003D
:1019D00080912101826080932101809121018160A9
:1019E000809321018091200181608093200180916A
:1019F0007A00846080937A0080917A00826080937C
:101A00007A0080917A00816080937A0080917A00D8
:101A1000806880937A001092C10061E08EE30E949A
:101A2000F30261E08FE30E94F3028CB580648CBD09
:101A30008CB580688CBD61E082E30E94F302109255
:101A40001B038CB580688CBD61E085E40E94F302C5
:101A500082E00E94C6088091AC03803308F054C035
:101A600061E082E00E94F3028091AC03282F30E015
:101A7000F901EE0FFF1FE20FF31FE45EFC4F9081B0
:101A8000907C926090839EE89093AD0394E690934F
:101A9000AE032CE0622F0E946C11829FB0011124D2
:101AA00030E020E0AB01420F531FFA01EE0FFF1FA1
:101AB000E40FF51FE45EFC4F908196FD17C02F5F89
:101AC0003F4F2C30310571F7813009F0A8C01092DA
:101AD000800082E080938100109285001092840043
:101AE000B19A80916F00826080936F00E091AC03A7
:101AF0008E2F90E0FC01EE0FFF1FE80FF91FE45E50
:101B0000FC4F8081806480830E94D0070E94720A0B
:101B100080E4282E98EE892E93E0992EA12CB12CEA
:101B200000E010E03324339480911B0381115EC1E7
:101B300080911A0381114AC080917B00877F809336
:101B40007B0020927C0080917A00806480937A00F0
:101B500080917A0086FDFCCF8091780060917900B9
:101B6000762F682F072E000C880B990B0E94DA0F36
:101B700020E030E04AEF5EE30E9415100E9436112B
:101B8000072E000C880B990BC0901603D0901703FA
:101B9000E0901803F09019036C157D058E059F05E4
:101BA000A8F080911B02811111C080911A02882334
:101BB00009F461C010921A020E948D03609312030F
:101BC0007093130380931403909315030E94F503FD
:101BD000F82E8823E9F082E390E00E9401068091CC
:101BE0001A038111FAC080911B0267E572E0882315
:101BF00009F4ECC08CE093E00E94160A63EA72E0FC
:101C000082E093E00E94160A0E946C090E94D007AD
:101C10000115110509F488CF0E94000085CF82309C
:101C200061F41092900080939100109295001092B0
:101C3000940088BB8093710059CF833069F410926F
:101C4000A00082E08093A1001092A5001092A40051
:101C500089BB809372004ACF811148CF1092200136
:101C600082E08093210110922501109224018ABB09
:101C7000809373003BCF0E948D03409012035090DD
:101C800013036090140370901503A50194010E9442
:101C90000511672B682B692B09F073C06CE772E0A4
:101CA0008CE093E00E94160AC0900803D0900903CC
:101CB000E0900A03F0900B030E948D031BA21AA26E
:101CC0001DA21CA21FA21EA2C40CD51CE61CF71C40
:101CD000A7019601261B370B480B590BCA01B90106
:101CE000A50194010E940511CA01B9012AE0AE01C3
:101CF0004F5F5F4F0E94A60FBE016F5F7F4FCE0107
:101D000082960E94160A8091020390910303009725
:101D100009F16AA17BA161157105D1F0409104031D
:101D2000509105032EA13FA14217530788F00E944E
:101D300096138EA19FA190930703809306031FA281
:101D40001EA2CE0182960E9422080E946C093ECFFC
:101D50000E9423128AA19BA1909303038093020304
:101D60008CA19DA190930503809304038EA19FA154
:101D700090930703809306031BA21AA21DA21CA224
:101D8000DECF0E948D036419750986099709C090FA
:101D90000803D0900903E0900A03F0900B03C616E5
:101DA000D706E806F90608F011CF67E872E08CE084
:101DB00093E00E94160A65E972E082E093E00E94D7
:101DC000160A0E946C0930921B0200CF8CE093E04F
:101DD0000E94160A6FEA72E013CF3FE2F31203C0CB
:101DE0000E94720A15CF0E944C0A12CF0E948D03E6
:101DF00024EF31E040E050E00E940511672B682B92
:101E0000692B09F005CF0E94B70702CF1092210479
:101E10001092200480E392E090931F0480931E04AC
:101E20008DE0809322048FEF809323048CE08093D5
:101E3000240488E08093250489E0809326048AE0C6
:101E4000809327048BE08093280410922904109239
:101E50002A0410922B0410922C0410922D0481E07D
:101E60000E94C6081092B1031092B5031092B403F9
:101E70001092B60386E292E09093B0038093AF0392
:101E8000EBECF3E01082148213821582369684E024
:101E9000E730F807B9F785E092E090931204809359
:101EA000110481E092E0909314048093130484E081
:101EB000809315048093160489E092E090931004B7
:101EC00080930F048AE090E09093180480931704A5
:101ED00084EF91E090931A048093190410921D04EA
:101EE00010921C0410920B0410920C0410920D041A
:101EF00010920E0410921B048091ED028033D0F4F6
:101F000091E0980F9093ED028093AC0390E0FC0178
:101F1000EE0FFF1FE80FF91FE45EFC4F88EB9BE01C
:101F2000928381838CE093E00E94ED0982E093E04C
:101F30000C94ED098FEF8093AC03F4CF82E093E033
:101F40000E9422088CE093E00C942208BB27FA013F
:101F5000A62F6217710581059105330B30FB66F0E2
:101F6000AA27660F771F881F991FAA1FA21710F0B4
:101F7000A21B63953850A9F7A05DAA3308F0A95DAC
:101F8000A19336F7B111B1931082CA010C94C80F16
:101F9000DC01FC01672F71917723E1F7329704C0D0
:101FA0007C916D9370836291AE17BF07C8F308955B
:101FB000E89409C097FB3EF49095809570956195E3
:101FC0007F4F8F4F9F4F9923A9F0F92F96E9BB2799
:101FD0009395F695879577956795B795F111F8CF15
:101FE000FAF4BB0F11F460FF1BC06F5F7F4F8F4F80
:101FF0009F4F16C0882311F096E911C0772321F076
:102000009EE8872F762F05C0662371F096E8862F0D
:1020100070E060E02AF09A95660F771F881FDAF764
:10202000880F9695879597F908950E9428100C942B
:1020300099100E948B1038F00E94921020F0952386
:1020400011F00C9482100C94881011240C94CD1073
:102050000E94AA1070F3959FC1F3950F50E0551F91
:10206000629FF001729FBB27F00DB11D639FAA27ED
:10207000F00DB11DAA1F649F6627B00DA11D661F3C
:10208000829F2227B00DA11D621F739FB00DA11D5D
:10209000621F839FA00D611D221F749F3327A00D17
:1020A000611D231F849F600D211D822F762F6A2FB3
:1020B00011249F5750409AF0F1F088234AF0EE0F18
:1020C000FF1FBB1F661F771F881F91505040A9F745
:1020D0009E3F510580F00C9482100C94CD105F3F10
:1020E000E4F3983ED4F3869577956795B795F79581
:1020F000E7959F5FC1F7FE2B880F911D96958795F9
:1021000097F9089597F99F6780E870E060E0089577
:102110009FEF80EC089500240A94161617061806FF
:102120000906089500240A941216130614060506DB
:102130000895092E0394000C11F4882352F0BB0F6C
:1021400040F4BF2B11F460FF04C06F5F7F4F8F4FCF
:102150009F4F089557FD9058440F551F59F05F3F0A
:1021600071F04795880F97FB991F61F09F3F79F0B9
:1021700087950895121613061406551FF2CF46953B
:10218000F1DF08C0161617061806991FF1CF8695BD
:102190007105610508940895E894BB2766277727A1
:1021A000CB0197F90895052E97FB1EF400940E9429
:1021B000EA1057FD07D00E94051107FC03D04EF42A
:1021C0000C94EA1050954095309521953F4F4F4F14
:1021D0005F4F089590958095709561957F4F8F4FD3
:1021E0009F4F08950E942711A59F900DB49F900DB9
:1021F000A49F800D911D11240895B7FF0C94F21037
:102200000E94F210821B930B0895A1E21A2EAA1BC2
:10221000BB1BFD010DC0AA1FBB1FEE1FFF1FA21796
:10222000B307E407F50720F0A21BB30BE40BF50B93
:10223000661F771F881F991F1A9469F7609570951C
:10224000809590959B01AC01BD01CF010895A29F9F
:10225000B001B39FC001A39F700D811D1124911D7A
:10226000B29F700D811D1124911D08950E943D1192
:102270006894B1110C94CD1008950E94B21088F0AA
:102280009F5798F0B92F9927B751B0F0E1F0660F3A
:10229000771F881F991F1AF0BA95C9F714C0B1307B
:1022A00091F00E94CC10B1E008950C94CC10672FEF
:1022B000782F8827B85F39F0B93FCCF386957795AA
:1022C0006795B395D9F73EF4909580957095619593
:1022D0007F4F8F4F9F4F0895991B79E004C0991F3E
:1022E000961708F0961B881F7A95C9F78095089570
:1022F000EE0FFF1F881F8BBF0790F691E02D1994FA
:102300000E942711B7FF0895821B930B08950F9326
:102310001F93CF93DF938230910510F482E090E019
:10232000E0913804F091390430E020E0B0E0A0E022
:10233000309799F42115310509F44AC0281B390B4F
:1023400024303105D8F58A819B816115710589F1A9
:10235000FB0193838283FE0111C040815181028180
:10236000138148175907E0F04817590799F4109757
:1023700061F012960C93129713961C933296CF012C
:10238000DF91CF911F910F9108950093380410931E
:102390003904F4CF2115310551F04217530738F0B5
:1023A000A901DB019A01BD01DF01F801C1CFEF01F5
:1023B000F9CF9093390480933804CDCFFE01E20F1A
:1023C000F31F819391932250310939832883D7CF0A
:1023D0002091360430913704232B41F420911E02C2
:1023E00030911F02309337042093360420911C0251
:1023F00030911D022115310541F42DB73EB74091B2
:10240000200250912102241B350BE0913604F091FB
:102410003704E217F307A0F42E1B3F0B28173907E8
:1024200078F0AC014E5F5F4F2417350748F04E0F30
:102430005F1F5093370440933604819391939FCF4D
:10244000F0E0E0E09CCFCF93DF930097E9F0FC0150
:10245000329713821282A0913804B0913904ED01B1
:1024600030E020E01097A1F420813181820F931F8A
:1024700020913604309137042817390709F061C0DC
:10248000F0933704E0933604DF91CF910895EA0189
:10249000CE17DF07E8F54A815B819E0141155105A2
:1024A000B1F7E901FB83EA8349915991C40FD51F24
:1024B000EC17FD0761F4808191810296840F951FCE
:1024C000E90199838883828193819B838A83F0E0E9
:1024D000E0E012968D919C9113970097B9F52D919C
:1024E0003C911197CD010296820F931F20913604E3
:1024F000309137042817390739F6309751F5109283
:10250000390410923804B0933704A0933604BCCF3A
:10251000D383C28340815181840F951FC817D90787
:1025200061F44E5F5F4F88819981480F591F518335
:1025300040838A819B81938382832115310509F031
:10254000B0CFF0933904E09338049ECFFD01DC0155
:10255000C0CF13821282D7CF4F925F926F927F9239
:102560008F929F92AF92BF92CF92DF92EF92FF92A3
:102570000F931F93CF93DF938C01009799F4CB01B6
:10258000DF91CF911F910F91FF90EF90DF90CF904F
:10259000BF90AF909F908F907F906F905F904F9083
:1025A0000C948711FC01E60FF71F9C0122503109A2
:1025B000E217F30708F4AEC0D901CD91DC91119771
:1025C000C617D70720F1C530D10578F0CE010497A2
:1025D0008617970750F0C61BD70B2297C193D1934C
:1025E0006D937C93CF010E942312C801DF91CF919C
:1025F0001F910F91FF90EF90DF90CF90BF90AF9021
:102600009F908F907F906F905F904F9008955B01A7
:10261000AC1ABD0A4C018C0E9D1EA0913804B091DD
:102620003904512C412CF12CE12C109731F580917B
:102630003604909137048815990509F05CC0461658
:10264000570608F058C080911C0290911D02009717
:1026500041F48DB79EB74091200250912102841B16
:10266000950BE817F90708F055C0F0933704E0938D
:102670003604F90171836083B8CF8D919C911197D5
:1026800012966C90129713967C901397A815B90523
:1026900059F56C0142E0C40ED11CCA14DB0420F1D0
:1026A000AC014A195B09DA011296159780F0628233
:1026B000738251834083D9016D937C93E114F104BB
:1026C00071F0D7011396FC93EE9312978ECF22965A
:1026D0008C0F9D1FF90191838083F301EFCFF0935D
:1026E0003904E093380481CF4816590608F42C01C8
:1026F0007D01D3019ACFCB010E9487117C01009705
:1027000049F0AE01B8010E948D13C8010E94231246
:1027100087016BCF10E000E068CFFB01DC0102C055
:1027200001900D9241505040D8F70895FB01DC0113
:1027300001900D920020E1F7089511E0C8E3D1E087
:1027400000E006C0802FFE010E9478112196011D35
:0E275000C933D10780E00807A9F7F894FFCF3E
:10275E000119181716292A2B2C3738392F343536EC
:10276E002A3132332D63303D2BFF010100003A0434
:10277E008000000000002F03EF02BE0200000000E8
:10278E00BF0901023C0500024675726E6163652049
:10279E00436C6F7365640053746172746564204397
:1027AE006F6F6B696E67004675726E616365204F61
:1027BE0070656E656400456E7465722054656D704B
:1027CE0000456E7465722054696D650074696D659F
:1027DE00206C6566743A00436F6F6B2046696E69B4
:1027EE007368656400526561647920746F206F7040
:1027FE00656E0073657474696E67733A202F0043BB
:10280E006F6F6B2043616E63656C65640041747419
:10281E00656E74696F6E00486967682054656D70E7
:04282E002121000064
:00000001FF
