:100000000C9445010C9476010C9476010C947601C5
:100010000C9476010C9476010C9476010C94760184
:100020000C9476010C9476010C9476010C94760174
:100030000C9476010C94720C0C9476010C9476015D
:100040000C9476010C94450E0C9476010C94760178
:100050000C9476010C9476010C9476010C94710D3D
:100060000C94730E0C9476010C9476010C9476012A
:100070000C9476010C9476010C9476010C94760124
:100080000C94170E0C9476010C9476010C94760166
:100090000C9476010C9476010C9476010C94760104
:1000A0000C9476010C9476010C94E90D0C94760175
:1000B0000C9476010C9476010C9476010C94BB0D93
:1000C0000C9476010C9476010C9476010C943B0D03
:1000D0000C94110D0C9476010C9476010C9476011D
:1000E0000C9476010C9497030C947C030C944D04AF
:1000F0000C949D030C9417020C940D040C94B90EEF
:100100000C9445020C9493030C94DC030C94A5030B
:100110000C9468020C9476020C94FB020C9470030D
:100120000C94E50A0C948C060C9474030C94540201
:100130000C9485030C948F030C947F030C94AA03F6
:100140000C9418020C944B130C94AE020C94AF0355
:100150000C94A1030C9489030C946A030C94AB03D4
:100160000C94780300002100240027002A002D00B1
:100170003000330001010000040107010A01000002
:100180002200250028002B002E003100340002013F
:100190000000050108010B010000200023002600DB
:1001A00029002C002F00320000010000030106018D
:1001B00009010505050507050808080802020202ED
:1001C0000A0A0808040404040101010101010101F3
:1001D0000303030303030303040707070C0C0C0CBE
:1001E0000C0C0C0C020202020606060606060606A7
:1001F0000B0B0B0B0B0B0B0B010210202008081034
:100200002040102040800201020108040201010286
:10021000040810204080804020100804020180045F
:1002200002018040201008040201080402010102BA
:1002300004081020408001020408102040800000C3
:100240000A0B02090C0D0E08070304010000000050
:10025000000000000000000000000000000000009E
:10026000000000000000000000001211100000005B
:10027000000000000000000000000000000000007E
:10028000000000000200B90E4B1311241FBECFEF77
:10029000D1E2DEBFCDBF00E00CBF13E0A0E0B2E0D2
:1002A000E8E7FCE200E00BBF02C007900D92A23429
:1002B000B107D9F725E0A2E4B3E001C01D92AB3449
:1002C000B207E1F711E0C4E4D1E000E006C02197F5
:1002D0000109802FFE010E94FC13C334D10780E086
:1002E0000807A9F70E94A30F0C942A160C9400008B
:1002F000CF92DF92EF92FF92DC01A03282E0B8074A
:10030000D4F5A53BB10514F0A4EBB0E04091BE04D8
:1003100028E830E0241B310947FD3395220F331FB5
:10032000220F331F6901330FEE08FF084091BF040D
:1003300028E532E0241B310947FD3395220F331F96
:10034000220F331F032E000C440B550B2C193D09B3
:100350004E095F09B7FF02C0B0E0A0E00E94B713EA
:1003600024EB30E040E050E00E948D13C20ED31E1B
:10037000E41EF51ED601E091BD04E03380F5209126
:10038000BE0488E890E0821B910927FD9395880FB1
:10039000991F880F991FA817B90784F02091BF04EF
:1003A00088E592E0821B910927FD9395880F991F9C
:1003B000880F991FA817B9070CF4CD010297880F71
:1003C000991F4FB7F8942E2F30E0F901EE0FFF1F61
:1003D000E20FF31FEC5EFB4F928381834FBFFF90D0
:1003E000EF90DF90CF90089596E0899FD00111247F
:1003F000A054BB4F90967C936E935F9791E091963B
:100400009C939197E0912D05F0912E0590912C05EC
:10041000992339F0309751F0811108C08091DC04A4
:100420001994309719F05C968C91FACF089508953D
:10043000AF92BF92CF92DF92EF92FF920F931F93F2
:10044000CF93DF936C017B018B01040F151FEB0130
:100450005E01AE18BF08C017D10759F06991D601E7
:10046000ED91FC910190F081E02DC6011995892B49
:1004700079F7C501DF91CF911F910F91FF90EF9018
:10048000DF90CF90BF90AF900895FC01538D448DC5
:10049000252F30E0842F90E0821B930B541710F02F
:1004A000CF96089501970895FC01918D828D98173C
:1004B00061F0A28DAE0FBF2FB11D5D968C91928D14
:1004C0009F5F9F73928F90E008958FEF9FEF089545
:1004D000FC01918D828D981731F0828DE80FF11D0E
:1004E000858D90E008958FEF9FEF0895FC01918D29
:1004F000228D892F90E0805C9F4F821B91098F7322
:100500009927089587E793E00E94760221E0892BDE
:1005100009F420E0822F0895FC01A48DA80FB92FC3
:10052000B11DA35ABF4F2C91848D90E001968F731B
:100530009927848FA689B7892C93A089B1898C913A
:10054000837080648C93938D848D981306C0028889
:10055000F389E02D80818F7D80830895EF92FF9253
:100560000F931F93CF93DF93EC0181E0888F9B8DD6
:100570008C8D98131AC0E889F989808185FF15C090
:100580009FB7F894EE89FF896083E889F9898081B3
:100590008370806480839FBF81E090E0DF91CF9182
:1005A0001F910F91FF90EF900895F62E0B8D10E0A4
:1005B0000F5F1F4F0F731127E02E8C8D8E110CC013
:1005C0000FB607FCFACFE889F989808185FFF5CF5E
:1005D000CE010E948C02F1CFEB8DEC0FFD2FF11DAF
:1005E000E35AFF4FF0829FB7F8940B8FEA89FB899B
:1005F00080818062CFCFCF93DF93EC01888D8823F9
:10060000B9F0AA89BB89E889F9898C9185FD03C075
:10061000808186FD0DC00FB607FCF7CF8C9185FF5A
:10062000F2CF808185FFEDCFCE010E948C02E9CF11
:10063000DF91CF91089580E090E0892B49F080E030
:1006400090E0892B29F00E94000081110E94000097
:1006500080E090E0892B49F080E090E0892B29F040
:100660000E94000081110E94000080E090E0892B30
:1006700029F00E94820281110E94000080E090E037
:10068000892B49F080E090E0892B29F00E9400003E
:1006900081110C94000008958150823108F05AC0F5
:1006A000E82FF0E08827E85AFC4F8F4F0C94FC139A
:1006B00078037C036A0370037403AA037F03850332
:1006C00089038F03930397039D03A103AA03A50343
:1006D000AB03AF03809180008F77809380000895F3
:1006E000809180008F7DF9CF80918000877FF5CF4A
:1006F00084B58F7784BD089584B58F7DFBCF8091BD
:10070000B0008F778093B00008958091B0008F7D06
:10071000F9CF809190008F77809390000895809119
:1007200090008F7DF9CF80919000877FF5CF8091E9
:10073000A0008F778093A00008958091A0008F7D06
:10074000F9CF8091A000877FF5CF809120018F772E
:10075000809320010895809120018F7DF9CF8091B1
:100760002001877FF5CFCF93DF93282F30E0F90169
:10077000E25CFD4F8491F901E850FE4FD491F901FC
:10078000EE54FE4FC491CC23A1F081110E944C0382
:10079000EC2FF0E0EE0FFF1FE856FE4FA591B4914D
:1007A000EC91ED2381E090E009F480E0DF91CF91BE
:1007B000089580E090E0FACF862F0C94B3031F9346
:1007C000CF93DF93282F30E0F901E25CFD4F849155
:1007D000F901E850FE4FD491F901EE54FE4FC49157
:1007E000CC23A9F0162F81110E944C03EC2FF0E0CE
:1007F000EE0FFF1FE258FE4FA591B4918FB7F8940A
:10080000EC91111108C0D095DE23DC938FBFDF91EE
:10081000CF911F910895DE2BF8CF862F642F0C9473
:10082000DF03CF93DF9390E0FC01E850FE4F24916B
:100830008E549E4FFC0184918823C9F090E0880F6C
:10084000991FFC01EC59FE4FA591B491FC01E258AF
:10085000FE4FC591D49161110DC09FB7F8948C9152
:10086000209582238C938881282328839FBFDF9142
:10087000CF910895623051F49FB7F8943C91822F44
:10088000809583238C93E8812E2BEFCF8FB7F8943C
:10089000EC912E2B2C938FBFEACF862F642F0C94D4
:1008A00011043FB7F8948091660390916703A0917B
:1008B0006803B091690326B5A89B05C02F3F19F0C6
:1008C0000196A11DB11D3FBFBA2FA92F982F8827D0
:1008D000BC01CD01620F711D811D911D42E0660FAB
:1008E000771F881F991F4A95D1F708958F929F927D
:1008F000AF92BF92CF92DF92EF92FF920E9451048B
:100900004B015C0185E0C82ED12CE12CF12C0E941A
:100910005104681979098A099B09683E7340810569
:100920009105A8F321E0C21AD108E108F10888EE88
:10093000880E83E0981EA11CB11CC114D104E104EF
:10094000F10429F7FF90EF90DF90CF90BF90AF9028
:100950009F908F9008952FB7F894609162037091E3
:10096000630380916403909165032FBF08950F93F3
:100970001F93CF93DF93C82FD62F86E0C89FF00137
:100980001124E054FB4F11A2878D90A18130910575
:10099000F1F058F082309105F1F1039709F440C06D
:1009A000DF91CF911F910F9108956623C9F361E004
:1009B00070E08C2F0E94F4010E94AB046093180534
:1009C0007093190580931A0590931B05E9CF0E9437
:1009D000AB04009118051091190520911A0530916A
:1009E0001B05AB01BC01401B510B620B730B8091CB
:1009F0002A0590912B05B0E0A0E084179507A60783
:100A0000B70748F462E070E08C2FDF91CF911F911F
:100A10000F910C94F40163E070E0D111C1CFF4CFD9
:100A200070E060E0F1CF6F927F928F929F92AF92D1
:100A3000BF92CF92DF92EF92FF920F931F93CF93CB
:100A4000DF9381E080932C050E94AB0400911C058C
:100A500010911D0520911E0530911F05AB01BC01B1
:100A6000401B510B620B730B809128059091290557
:100A7000B0E0A0E084179507A607B70708F014C1F7
:100A8000C0E080912605C81760F4E0912205F0913E
:100A90002305EC0FF11D62E080810E941104CF5FFD
:100AA000F0CF712C812C912C5401839480912705D7
:100AB000781608F05FC0072D10E0E0912405F09152
:100AC0002505E00FF11F61E080810E941104E09193
:100AD0002405F0912505E00FF11F60E080810E9460
:100AE000DF03D501C401072C04C0880F991FAA1F7A
:100AF000BB1F0A94D2F76C017C01E094F094612C46
:100B0000809126056816F8F4C62DD0E0E091220504
:100B1000F0912305EC0FFD1F80810E94B303249602
:100B2000CC0FDD1FC054DB4F892B41F488819981A4
:100B30008C299D29998388836394E2CF8881998148
:100B40008E219F21F7CFE0912405F0912505E00F3C
:100B5000F11F61E080810E94DF0380912405909164
:100B60002505080F191F60E0F80180810E9411041B
:100B700073949CCFC0ECD4E0FE018FEF9FEF278DE4
:100B800030A1232B21F4148E968F858F11A23696D7
:100B900024E0EC3FF20799F7F12C96E0D92E8091F2
:100BA0002605F81608F050C0E12C0F2D10E0000FBC
:100BB000111F08531B4F20912705E21608F042C071
:100BC000F801608171810E2C02C0769567950A94B8
:100BD000E2F7F29E900111242E0D311DE0ECF4E0BD
:100BE00080E0458D568D2417350709F461C08F5F6D
:100BF00036968A30B1F760FF23C0E0ECF4E090E075
:100C000080E0448D411117C0E0912005F09121054D
:100C1000E20FF31F4081D89EF001D99EF00D112400
:100C2000E054FB4F448F368F258F10A2178E61E062
:100C30000E94B70405C0019636968A30910509F7DF
:100C4000E394B9CFF394ABCF10E089A18111182FB1
:100C50002696F4E0CC3FDF07C1F70E94AB04609317
:100C60001C0570931D0580931E0590931F0511238D
:100C7000D9F08091E1048823B9F08091DF0490914C
:100C8000E004019789F48091DC04DF91CF911F91FA
:100C90000F91FF90EF90DF90CF90BF90AF909F901B
:100CA0008F907F906F90089510922C0580E0EDCF8B
:100CB0006170BECF0F931F930E94AB0460937F03BC
:100CC00070938003809381039093820387E793E07E
:100CD0000E94540297FF1DC00E94AB0400917F0345
:100CE000109180032091810330918203601B710B6E
:100CF000820B930B00917B0310917C0320917D0369
:100D000030917E036017710782079307F8F28FEF27
:100D10009FEF1F910F91089590E080E00895AF92AA
:100D2000BF92CF92DF92EF92FF920F931F93CF93D8
:100D3000DF936B017A01EC01C35ADC4F28813CE060
:100D4000389F8001399F100D1124A090A404B12C6C
:100D500027FF1FC0FB011182108288818F5F88836B
:100D600088819801280F311D87FD3A95F6012A15D3
:100D70003B051CF488818C30C4F1808191810496FC
:100D800080349C4908F473C0F601808191810496F7
:100D900070C088819801280F311D87FD3A952A156A
:100DA0003B05DCF68881A801480F511D87FD5A9547
:100DB000FA01EE0FFF1FE40FF51FEC5EFB4F808181
:100DC00086FFCBCF8881F801E80FF11D87FDFA95EA
:100DD000CF01EE0FFF1FE80FF91FEC5EFB4F808184
:100DE00060E08F730E94DF03B8CF808191812881FA
:100DF000A801420F511D27FD5A959A01FA01EE0FE5
:100E0000FF1FE20FF31FEC5EFB4F21813281820F47
:100E1000931FF7019183808388819801280F311DEA
:100E200087FD3A95F901EE0FFF1FE20FF31FEC5E0D
:100E3000FB4F808186FF22C08881080F111D87FD2E
:100E40001A95F801EE0FFF1FE00FF11FEC5EFB4F4C
:100E5000808161E08F73DF91CF911F910F91FF909F
:100E6000EF90DF90CF90BF90AF900C94DF0380E4C1
:100E70009CE9F701918380838FEF8883DF91CF9185
:100E80001F910F91FF90EF90DF90CF90BF90AF90A8
:100E9000089560E08EE30E94DF0360E08FE30C942E
:100EA000DF03EF92FF921F93CF93DF937C0161E00A
:100EB00085E40E94DF0380910102853441F08F3F79
:100EC000E9F0DF91CF911F91FF90EF900895E4E852
:100ED000F2E0C491C7FDF5CF61E085E40E94110402
:100EE000CC2309F4DEC0C23009F00AC18091B10000
:100EF000887F83608093B100D9EFD8C085E4809368
:100F00000102E4E8F2E0C4918C2FCF3FD1F2C2306D
:100F100009F468C060F4CC2379F1C13009F444C00D
:100F200087FDCFCF61E085E40E941104DCCFC4309F
:100F300009F499C008F478C0C53091F710922001E7
:100F4000109221018091210188608093210180917C
:100F50002101816080932101E7EFF1E0E491F0E06D
:100F6000EE0FFF1FE258FE4F85919491EDE3F2E002
:100F7000E491E0934403B0CF14BC15BC84B5826007
:100F800084BD85B5816085BDE7EFF1E0E491F0E0D7
:100F9000EE0FFF1FE258FE4F85919491EDE3F2E0D2
:100FA000E491E093480398CF109280001092810062
:100FB00080918100886080938100809181008160B0
:100FC00080938100E7EFF1E0E491F0E0EE0FFF1F86
:100FD000E258FE4F85919491EDE3F2E0E491E093C5
:100FE00047037ACF1092B0001092B1008091B00008
:100FF00082608093B0008091B10081608093B100E5
:10100000E7EFF1E0E491F0E0EE0FFF1FE258FE4F52
:101010008591949190936B0380936A03EDE3F2E0E2
:10102000E491E0936C0358CF1092900010929100DD
:1010300080919100886080939100809191008160FF
:1010400080939100E7EFF1E0E491F0E0EE0FFF1FF5
:10105000E258FE4F85919491EDE3F2E0E491E09344
:101060004603C3E039CF1092A0001092A1008091F6
:10107000A10088608093A1008091A100816080938D
:10108000A100E7EFF1E0E491F0E0EE0FFF1FE2587E
:10109000FE4F85919491EDE3F2E0E491E0934503F6
:1010A0001BCF85B5887F836085BDDCE710E020ED30
:1010B00037E0D7010E94041428EE33E040E050E00E
:1010C0000E94BF13C23009F450C00CF086C0CC237C
:1010D000E9F1C13009F0F5CE8D2F912F9093890061
:1010E0008093880020935503309356034093570311
:1010F0005093580380916F00826080936F00E1CE1F
:10110000C13049F480918100887F816080938100A3
:10111000DFE31FE1CCCFC33039F480919100887FA9
:10112000816080939100F4CFC43039F48091A100A4
:10113000887F81608093A100EBCFC53049F7809113
:101140002101887F816080932101E2CFD7BD209368
:10115000590330935A0340935B0350935C0380918F
:101160006E00826080936E00ACCED093B30020936B
:101170006D0330936E0340936F035093700380911F
:1011800070008260809370009CCE8D2F912F909381
:101190009900809398002093510330935203409319
:1011A00053035093540380917100826080937100C7
:1011B00088CE8D2F912F9093A9008093A800209323
:1011C0004D0330934E0340934F035093500380914F
:1011D000720082608093720074CEC43051F3ACF21E
:1011E000C53009F06ECE8D2F912F909329018093F9
:1011F00028012093490330934A0340934B035093B3
:101200004C03809173008260809373005ACECF9319
:101210000E944907C091000261E0CC2369F08EE38F
:101220000E94DF0380E991E00E94510781E0C82716
:10123000C0930002CF9108958FE30E94DF03F6CFA1
:10124000CF93DF9388EE93E00E94510761E086E33D
:101250000E94DF0360E087E30E94DF03C091420346
:10126000D0914303C53BD1055CF4CE010E947801C7
:101270000E9476042196D0934303C0934203EECF9D
:101280000E94AB04609371037093720380937303A5
:101290009093740381E080937503DF91CF9108955B
:1012A000CF93DF93EC0160E08E810E94DF0361E069
:1012B0008E810E94DF0360E08E810E94DF038BE855
:1012C00091E00197F1F7DF91CF910895CF92DF92EE
:1012D000EF92FF920F931F93CF93DF936C017C01EA
:1012E00087E0E80EF11CD0E0C0E0062F10E0B80166
:1012F0000C2E02C0759567950A94E2F76170F701AC
:1013000081917F010E94DF032196C430D10579F7D6
:10131000C601DF91CF911F910F91FF90EF90DF9069
:10132000CF900C945009CF92DF92EF92FF920F93DF
:101330001F93CF93DF93EC01F62E642F8C810E94D4
:10134000DF038D818F3F19F060E00E94DF030F2DD6
:1013500010E08F8584FF25C06E0187E0C80ED11C88
:10136000F12CE12CB8010E2C02C0759567950A94FA
:10137000E2F76170F60181916F010E94DF03FFEFD8
:10138000EF1AFF0A88E0E816F10461F7CE01DF9159
:10139000CF911F910F91FF90EF90DF90CF900C9421
:1013A0005009B80184E0759567958A95E1F7CE01FB
:1013B0000E9466096F2DCE01DF91CF911F910F9191
:1013C000FF90EF90DF90CF900C94660940E0682F7B
:1013D0008FE295E00C949309CF93DF93823029F448
:1013E00090913E05986090933E058093420510923F
:1013F000430580E48093440580E18093450580E5C2
:101400008093460561E0809133050E94110480912C
:1014100034058F3F19F061E00E94110461E0809172
:1014200035050E941104CFE2D5E09E012F523540D0
:1014300080913E0584FD0BC084E090E02196281742
:10144000390744F461E08E810E941104EECF88E0F8
:1014500090E0F4CF8BE39DE00197F1F760E080919D
:1014600033050E94DF0360E0809135050E94DF03B1
:10147000809134058F3F19F060E00E94DF03809176
:101480003E0584FD39C063E08FE295E00E94660965
:10149000CBE4D6E4CE010197F1F763E08FE295E06B
:1014A0000E9466092197F1F763E08FE295E00E94C0
:1014B000660983E592E00197F1F762E08FE295E03B
:1014C0000E94660980913E0580620E94E60984E0E0
:1014D00080933F058CE00E94E60981E00E94E609C6
:1014E0008BE39FE10197F1F782E08093400586E06E
:1014F000DF91CF910C94E60980620E94E6098BE4AB
:1015000096E40197F1F780913E0580620E94E6091A
:1015100083E592E00197F1F780913E0580620E9499
:10152000E609D0CFCF93DF9381E00E94E6098BE3F9
:101530009FE10197F1F7E1E0809142058111E0E040
:10154000E195F0E0E15DFA4FC0E1D0E08091BB04AD
:101550009091BC049E01281B390B369527958489F0
:10156000820F80680E94E6094091BB045091BC0440
:101570006091B7047091B8048FE295E00E94180260
:101580008091B5049091B604C81BD90BD695C79528
:10159000E0914205E230B8F4E150F0E0E15DFA4F4D
:1015A00084898C0F80680E94E6094091B5045091AF
:1015B000B6046091B1047091B2048FE295E0DF91BE
:1015C000CF910C941802E1E0E8CF41E00E9493092A
:1015D00081E090E00895CF93DF93EC0188819981B9
:1015E000009711F00E94A714198218821D821C8294
:1015F0001B821A82DF91CF910895FC018081918135
:10160000009711F00C94A71408950F931F93CF9394
:10161000DF93EC0188819981009759F02A813B8101
:101620002617370730F081E0DF91CF911F910F919E
:1016300008958B016F5F7F4F0E943015009759F01E
:10164000998388831B830A832C813D81232B59F73F
:10165000FC011082E8CF80E0E7CFEF92FF920F937A
:101660001F93CF93DF931F921F92CDB7DEB78C01EC
:1016700069831A82FC01E480F580FFEFEF1AFF0A0C
:10168000B7010E94050B882381F0F8012081318188
:1016900084819581BE016F5F7F4F820F931F0E94EF
:1016A0002316F801F582E48281E00F900F90DF911C
:1016B000CF911F910F91FF90EF900895EF92FF92BD
:1016C0000F931F93CF93DF93EC017B018A01BA0143
:1016D0000E94050B81110BC0CE010E94EB0ACE01C6
:1016E000DF91CF911F910F91FF90EF9008951D838F
:1016F0000C83B701888199810E942316F0CFFB01EA
:1017000001900020E9F73197AF01461B570B0C946D
:101710005E0B0F931F93CF93DF93CDB7DEB7A197E7
:101720000FB6F894DEBF0FBECDBF8C01CB01BA015E
:10173000F8011182108213821282158214822AE02B
:10174000AE014F5F5F4F0E945B13BE016F5F7F4F23
:10175000C8010E947F0BA1960FB6F894DEBF0FBEA2
:10176000CDBFDF91CF911F910F910895CF93DF935C
:1017700088EE93E00E94510760E086E30E94DF0359
:1017800061E087E30E94DF03C0914203D0914303ED
:10179000D7FD0BC0CE010E9478010E9476042197EC
:1017A000D0934303C0934203EFCF109275036CE4D0
:1017B00072E087EB94E00E947F0B68E572E081EBBA
:1017C00094E00E947F0BDF91CF910C94920ACF930B
:1017D000DF93EC01FB018617970749F06081718167
:1017E0006115710541F0448155810E945E0BCE0167
:1017F000DF91CF9108950E94EB0AF9CFFC0111828D
:1018000010821382128215821482FB010190002043
:10181000E9F73197AF01461B570B0C945E0B1F93F2
:10182000CF93DF9300D000D0CDB7DEB767E672E08C
:1018300087EB94E00E947F0B64E772E081EB94E019
:101840000E947F0B0E94920A66EF72E0CE01019621
:101850000E94FE0B0E941305182F8823D9F382E300
:1018600090E00E9451071F32E1F461E872E087EBDB
:1018700094E00E947F0B6BE872E081EB94E00E94A1
:101880007F0B0E94920ACE0101960E94FD0A2696C5
:101890000FB6F894DEBF0FBECDBFDF91CF911F9181
:1018A00008951D3381F4BE016F5F7F4F8BEA94E092
:1018B0000E94E70B64E972E087EB94E00E947F0BE3
:1018C00061EA72E0DACF133639F466EF72E0CE01E6
:1018D00001960E947F0BBECF612FCE0101960E9420
:1018E0002D0BB8CF1F920F920FB60F9211240BB68B
:1018F0000F922F933F934F935F936F937F938F93A9
:101900009F93AF93BF93EF93FF9380916D0390915B
:101910006E03A0916F03B0917003892B8A2B8B2BE0
:10192000E1F190916C03E0916A03F0916B03808187
:101930008927808380916D0390916E03A0916F033E
:10194000B0917003181619061A061B069CF48091B4
:101950006D0390916E03A0916F03B0917003019796
:10196000A109B10980936D0390936E03A0936F0357
:10197000B0937003FF91EF91BF91AF919F918F91C1
:101980007F916F915F914F913F912F910F900BBE7F
:101990000F900FBE0F901F90189580910102E4E800
:1019A000F2E0E4919FEF90930102E230E9F040F41D
:1019B000EE2389F0E13091F060E00E94DF03DACF9E
:1019C000E43049F110F1E530B9F7909173009D7F53
:1019D00090937300F1CF10926E00EECF90916F0054
:1019E0009D7F90936F00E8CF909170009D7F9093C2
:1019F000700091E09093B0009091B100987F946056
:101A00009093B1001092B300D7CF909171009D7F59
:101A100090937100D1CF909172009D7F909372004E
:101A2000CBCF1F920F920FB60F9211240BB60F92CD
:101A30002F933F934F935F936F937F938F939F93D6
:101A4000AF93BF93EF93FF9387E793E00E948C02DD
:101A5000FF91EF91BF91AF919F918F917F916F9186
:101A60005F914F913F912F910F900BBE0F900FBE42
:101A70000F901F9018951F920F920FB60F9211247E
:101A80000BB60F922F938F939F93EF93FF93E09159
:101A90008703F09188038081E0918D03F0918E039C
:101AA00082FD1DC09081809190038F5F8F73209184
:101AB0009103821741F0E0919003F0E0E958FC4F68
:101AC000958F80939003FF91EF919F918F912F912C
:101AD0000F900BBE0F900FBE0F901F901895808136
:101AE000F2CF1F920F920FB60F9211242F933F93B4
:101AF0008F939F93AF93BF93809162039091630301
:101B0000A0916403B09165033091610323E0230F3A
:101B10002D3758F50196A11DB11D209361038093C7
:101B2000620390936303A0936403B0936503809171
:101B3000660390916703A0916803B09169030196D1
:101B4000A11DB11D8093660390936703A093680362
:101B5000B0936903BF91AF919F918F913F912F9166
:101B60000F900FBE0F901F90189526E8230F029636
:101B7000A11DB11DD2CF1F920F920FB60F9211244B
:101B80000BB60F922F933F934F935F936F937F9377
:101B90008F939F93AF93BF93EF93FF9348E251E0EE
:101BA00064E271E090E080E00E948F06FF91EF9187
:101BB000BF91AF919F918F917F916F915F914F9165
:101BC0003F912F910F900BBE0F900FBE0F901F9063
:101BD00018951F920F920FB60F9211240BB60F9209
:101BE0002F933F934F935F936F937F938F939F9325
:101BF000AF93BF93EF93FF9348EA50E064EA70E03D
:101C000083E090E00E948F06FF91EF91BF91AF912A
:101C10009F918F917F916F915F914F913F912F9104
:101C20000F900BBE0F900FBE0F901F9018951F9234
:101C30000F920FB60F9211240BB60F922F933F9372
:101C40004F935F936F937F938F939F93AF93BF93C4
:101C5000EF93FF9348E950E064E970E082E090E0A0
:101C60000E948F06FF91EF91BF91AF919F918F914D
:101C70007F916F915F914F913F912F910F900BBE8C
:101C80000F900FBE0F901F9018951F920F920FB6D6
:101C90000F9211240BB60F922F933F934F935F93A4
:101CA0006F937F938F939F93AF93BF93EF93FF9324
:101CB00048E850E064E870E081E090E00E948F0620
:101CC000FF91EF91BF91AF919F918F917F916F9114
:101CD0005F914F913F912F910F900BBE0F900FBED0
:101CE0000F901F9018951F920F920FB60F9211240C
:101CF0000BB60F922F933F934F935F936F937F9306
:101D00008F939F93AF93BF93EF93FF939EB581E023
:101D1000911101C080E0809376038091760388233F
:101D200029F10E94B60B6BE273E087EB94E00E940E
:101D30007F0B65E373E081EB94E00E947F0B0E94D0
:101D4000920A0E940709FF91EF91BF91AF919F9175
:101D50008F917F916F915F914F913F912F910F9054
:101D60000BBE0F900FBE0F901F9018950E94490751
:101D7000EACF10927A031092790388EE93E0A0E004
:101D8000B0E080937B0390937C03A0937D03B0939A
:101D90007E0388E292E0909378038093770385ED49
:101DA00090E0909384038093830384ED90E090937C
:101DB00086038093850380ED90E090938803809361
:101DC000870381ED90E090938A038093890382EDED
:101DD00090E090938C0380938B0386ED90E090933A
:101DE0008E0380938D0310929003109291031092B2
:101DF000920310929303109232051092310584E4FD
:101E000092E09093300580932F058DE08093330509
:101E10008FEF809334058CE08093350588E08093C4
:101E2000360589E0809337058AE0809338058BE09A
:101E30008093390510923A0510923B0510923C05AB
:101E400010923D0510923E0581E00E94EC0910922F
:101E5000C2041092C6041092C5041092C7048AE30B
:101E600092E09093C1048093C004ECEDF4E0108202
:101E7000148213821582369685E0E831F807B9F7A7
:101E80008AE092E0909323058093220586E092E019
:101E9000909325058093240584E080932605809304
:101EA00027058EE092E090932105809320058AE03B
:101EB00090E0909329058093280584EF91E090931A
:101EC0002B0580932A0510922E0510922D05109255
:101ED0001C0510921D0510921E0510921F051092F0
:101EE0002C058091A404803350F591E0980F9093D5
:101EF000A4048093BD0490E0FC01EE0FFF1FE80FE7
:101F0000F91FEC5EFB4F88EB9BE09283818366EFC9
:101F100072E087EB94E00E94FE0B66EF72E081EBCB
:101F200094E00E94FE0B66EF72E08BEA94E00E9460
:101F3000FE0B66EF72E085EA94E00C94FE0B8FEFE7
:101F40008093BD04E4CFCF93DF93CDB7DEB7629724
:101F50000FB6F894DEBF0FBECDBF789484B5826013
:101F600084BD84B5816084BD85B5826085BD85B53D
:101F7000816085BD80916E00816080936E001092BB
:101F80008100809181008260809381008091810036
:101F900081608093810080918000816080938000C7
:101FA0008091B10084608093B1008091B000816025
:101FB0008093B00080919100826080939100809125
:101FC0009100816080939100809190008160809366
:101FD00090008091A10082608093A1008091A10077
:101FE00081608093A1008091A00081608093A00017
:101FF0008091210182608093210180912101816083
:102000008093210180912001816080932001809143
:102010007A00846080937A0080917A008260809355
:102020007A0080917A00816080937A0080917A00B2
:10203000806880937A001092C10061E08EE30E9474
:10204000110461E08FE30E9411048CB580648CBDA3
:102050008CB580688CBD61E082E30E94110410920F
:1020600076038CB580688CBD61E086E30E94110424
:1020700061E087E30E94110461E085E40E9411049D
:1020800082E00E94EC098091BD04803308F054C0C6
:1020900061E082E00E9411048091BD04282F30E0AD
:1020A000F901EE0FFF1FE20FF31FEC5EFB4F908173
:1020B000907C926090839EE89093BE0494E6909307
:1020C000BF042CE0622F0E94F013829FB001112404
:1020D00030E020E0AB01420F531FFA01EE0FFF1F6B
:1020E000E40FF51FEC5EFB4F908196FD17C02F5F4C
:1020F0003F4F2C30310571F7813009F03AC1109211
:10210000800082E08093810010928500109284000C
:10211000B19A80916F00826080936F00E091BD045E
:102120008E2F90E0FC01EE0FFF1FE80FF91FEC5E11
:10213000FB4F808180648083E0918703F091880366
:1021400082E08083E0918303F09184031082E09128
:102150008503F09186038FEC808310928F03E091CA
:102160008B03F0918C0386E08083E0918903F091EA
:102170008A03808180618083E0918903F0918A03E2
:10218000808188608083E0918903F0918A03808157
:1021900080688083E0918903F0918A0380818F7D3C
:1021A00080838091020290910302A0910402B09179
:1021B0000502880F991FAA1FBB1F80937B03909372
:1021C0007C03A0937D03B0937E0390E080E00E94A7
:1021D00078010E9420090E940F0C0E94B60B38EE75
:1021E000832E33E0932EA12CB12C809176038111A4
:1021F0001EC20E941305182F80917503882309F4CD
:102200007DC00E94AB04A50194010E94BF13672BFF
:10221000682B692B09F055C04090020250900302D0
:102220006090040270900502C0907103D090720318
:10223000E0907303F09074036DEA72E087EB94E032
:102240000E947F0B0E94AB04C40CD51CE61CF71C3B
:10225000A7019601261B370B480B590BCA01B90180
:10226000A50194010E94BF13BA01A901CE010196F4
:102270000E94890B8091B1049091B204009709F4F7
:10228000A6C069817A816115710509F49EC04091EB
:10229000B3045091B4042D813E814217530708F4D2
:1022A00094C00E9423168D819E819093B6048093E2
:1022B000B5041E821D82CE0101960E94FD0A0E9475
:1022C000920A0E94AB04C0907103D0907203E09018
:1022D0007303F09074036C197D098E099F09C090F7
:1022E0000202D0900302E0900402F0900502C616AC
:1022F000D706E806F90610F40E94B60B112309F47C
:1023000084C082E390E00E9451071D3309F452C15A
:10231000133609F473C01F3209F083C1809175032D
:10232000882309F472C06CEB72E087EB94E00E94A2
:102330007F0B65EC72E081EB94E00E947F0B0E94C2
:10234000920A87E793E00E94FB0266EF72E0CE01FB
:102350000D960E94FE0B0E945A0697FD59C08A33C3
:10236000910509F455C0682FCE010D960E942D0BE2
:10237000F2CF823061F4109290008093910010921D
:1023800095001092940088BB80937100C7CE833073
:1023900069F41092A00082E08093A1001092A50041
:1023A0001092A40089BB80937200B8CE8111B6CE82
:1023B0001092200182E08093210110922501109259
:1023C00024018ABB80937300A9CE0E94A71489813F
:1023D0009A819093B2048093B1048B819C819093F5
:1023E000B4048093B3048D819E819093B60480934E
:1023F000B5041A8219821C821B825BCF80917503FF
:10240000882309F407C10E94B60B0E941B03EDCE7E
:1024100080E590E00E945107BE01635F7F4F81EB32
:1024200094E00E94E70B0E94920A89899A89892B7D
:1024300009F4B1C00D851E8563ED72E0C8010E94EC
:102440001A16892B39F40E940F0CCE010D960E94AA
:10245000FD0ADBCF6BED72E0C8010E941A16892BD2
:1024600009F099C010920202109203021092040225
:10247000109205020E941305182F8823D9F382E3D6
:1024800090E00E945107C0900202D0900302E090B9
:102490000402F090050280ED810F8A30F0F4AAE08A
:1024A000B0E0A70196010E94AC13212F110F330B4E
:1024B000205331098901330F220B330BDC01CB018F
:1024C000800F911FA21FB31F8093020290930302FB
:1024D000A0930402B0930502CDCF64EE72E087EBC7
:1024E00094E00E947F0BB701A601CE0101960E94E5
:1024F000890B62EF72E0CE0107960E94FE0BE98025
:10250000FA80E114F10409F441C00D811E81011526
:102510001105B1F08B859C85080F191FB801CE01FC
:1025200007960E94050B882389F12F8138858B85BA
:102530009C85B701820F931F0E9423161C870B876F
:10254000BE01695F7F4F81EB94E00E94E70BCE01F3
:1025500007960E94FD0ACE0101960E94FD0A0E9484
:10256000920A20910202309103024091040250919C
:102570000502A8EEB3E00E94AC13609302027093D0
:10258000030280930402909305025FCFCE01079669
:102590000E94EB0AD5CF6CE472E087EB94E00E94D6
:1025A0007F0B68E572E081EB94E00E947F0B0E9454
:1025B000920A4BCF2091A9043091AA048091AF04D4
:1025C0009091B00428173907B9F48091A50490912F
:1025D000A6046091AB047091AC040097C1F1611541
:1025E000710539F4232B09F43FC0FC01808190E090
:1025F00039C00E941A1636C064E173E087EB94E09C
:102600000E947F0B6EE173E081EB94E00E947F0BF0
:102610000E94920A66EF72E085EA94E00E947F0BC6
:10262000F4CE612F85EA94E00E942D0BEECE0E943D
:10263000AB0424EF31E040E050E00E94BF13672B71
:10264000682B692B09F0E1CE0E940709DECE6115E7
:10265000710551F0232B41F0FB01808190E09195B1
:1026600081959109892B41F667EF72E087EB94E041
:102670000E947F0B68E073E081EB94E00E947F0B87
:102680000E94920A66EF72E085EA94E00E947F0B56
:102690000E942009BACE85EA94E00E94FD0A8BEAE6
:1026A00094E00E94FD0A81EB94E00E94FD0A87EB12
:1026B00094E00C94FD0ABB27FA01A62F621771055E
:1026C00081059105330B30FB66F0AA27660F771F53
:1026D000881F991FAA1FA21710F0A21B63953850DC
:1026E000A9F7A05DAA3308F0A95DA19336F7B1114F
:1026F000B1931082CA010C947D13DC01FC01672F99
:1027000071917723E1F7329704C07C916D937083C8
:102710006291AE17BF07C8F30895052E97FB1EF40C
:1027200000940E94A41357FD07D00E94BF1307FC1A
:1027300003D04EF40C94A4135095409530952195F8
:102740003F4F4F4F5F4F08959095809570956195DD
:102750007F4F8F4F9F4F08950E94E113A59F900DCB
:10276000B49F900DA49F800D911D11240895B7FF73
:102770000C94AC130E94AC13821B930B0895A1E23E
:102780001A2EAA1BBB1BFD010DC0AA1FBB1FEE1FEB
:10279000FF1FA217B307E407F50720F0A21BB30B36
:1027A000E40BF50B661F771F881F991F1A9469F7B2
:1027B00060957095809590959B01AC01BD01CF010E
:1027C0000895A29FB001B39FC001A39F700D811D0A
:1027D0001124911DB29F700D811D1124911D08952A
:1027E000991B79E004C0991F961708F0961B881F63
:1027F0007A95C9F780950895EE0FFF1F881F8BBF4C
:102800000790F691E02D19940E94E113B7FF089507
:10281000821B930B08950F931F93CF93DF93823006
:10282000910510F482E090E0E0914905F0914A05AD
:1028300030E020E0B0E0A0E0309799F421153105B8
:1028400009F44AC0281B390B24303105D8F58A8198
:102850009B816115710589F1FB0193838283FE01E0
:1028600011C0408151810281138148175907E0F05E
:102870004817590799F4109761F012960C93129724
:1028800013961C933296CF01DF91CF911F910F9138
:1028900008950093490510934A05F4CF2115310599
:1028A00051F04217530738F0A901DB019A01BD012D
:1028B000DF01F801C1CFEF01F9CF90934A05809372
:1028C0004905CDCFFE01E20FF31F81939193225072
:1028D000310939832883D7CF2091470530914805A6
:1028E000232B41F42091200230912102309348059E
:1028F0002093470520911E0230911F0221153105BA
:1029000041F42DB73EB74091220250912302241B7F
:10291000350BE0914705F0914805E217F307A0F465
:102920002E1B3F0B2817390778F0AC014E5F5F4F25
:102930002417350748F04E0F5F1F5093480540930A
:102940004705819391939FCFF0E0E0E09CCFCF9338
:10295000DF930097E9F0FC01329713821282A09175
:102960004905B0914A05ED0130E020E01097A1F44F
:1029700020813181820F931F2091470530914805B6
:102980002817390709F061C0F0934805E09347051F
:10299000DF91CF910895EA01CE17DF07E8F54A816C
:1029A0005B819E0141155105B1F7E901FB83EA8383
:1029B00049915991C40FD51FEC17FD0761F480812F
:1029C00091810296840F951FE90199838883828102
:1029D00093819B838A83F0E0E0E012968D919C9135
:1029E00013970097B9F52D913C911197CD0102965F
:1029F000820F931F2091470530914805281739070A
:102A000039F6309751F510924A0510924905B09366
:102A10004805A0934705BCCFD383C2834081518131
:102A2000840F951FC817D90761F44E5F5F4F8881E7
:102A30009981480F591F518340838A819B819383D9
:102A400082832115310509F0B0CFF0934A05E09358
:102A500049059ECFFD01DC01C0CF13821282D7CF82
:102A60004F925F926F927F928F929F92AF92BF929E
:102A7000CF92DF92EF92FF920F931F93CF93DF934A
:102A80008C01009799F4CB01DF91CF911F910F91A9
:102A9000FF90EF90DF90CF90BF90AF909F908F907E
:102AA0007F906F905F904F900C940B14FC01E60F99
:102AB000F71F9C0122503109E217F30708F4AEC05A
:102AC000D901CD91DC911197C617D70720F1C530F8
:102AD000D10578F0CE0104978617970750F0C61BF2
:102AE000D70B2297C193D1936D937C93CF010E9412
:102AF000A714C801DF91CF911F910F91FF90EF9024
:102B0000DF90CF90BF90AF909F908F907F906F900D
:102B10005F904F9008955B01AC1ABD0A4C018C0E7A
:102B20009D1EA0914905B0914A05512C412CF12CD4
:102B3000E12C109731F58091470590914805881553
:102B4000990509F05CC04616570608F058C08091F8
:102B50001E0290911F02009741F48DB79EB74091DD
:102B6000220250912302841B950BE817F90708F005
:102B700055C0F0934805E0934705F90171836083E0
:102B8000B8CF8D919C91119712966C9012971396D5
:102B90007C901397A815B90559F56C0142E0C40E55
:102BA000D11CCA14DB0420F1AC014A195B09DA011B
:102BB0001296159780F06282738251834083D90107
:102BC0006D937C93E114F10471F0D7011396FC939B
:102BD000EE9312978ECF22968C0F9D1FF901918351
:102BE0008083F301EFCFF0934A05E093490581CF4D
:102BF0004816590608F42C017D01D3019ACFCB0168
:102C00000E940B147C01009749F0AE01B8010E94AC
:102C10001116C8010E94A71487016BCF10E000E0D5
:102C200068CFFB01DC0102C001900D924150504081
:102C3000D8F70895FB01DC018D91019080190110F6
:102C4000D9F3990B0895FB01DC0101900D9200204E
:102C5000E1F7089511E0C4E4D1E000E006C0802F60
:102C6000FE010E94FC132196011DC534D10780E0AE
:082C70000807A9F7F894FFCF53
:102C780001FF881300001918171628292A2B37383E
:102C8800392F3435362A3132332D63303D2B00004D
:102C98004B05800000000000AE0218024502FB024E
:102CA800760254026802000000004D040D04DC03A3
:102CB80000000000E50A18028C06170253616665D9
:102CC80020436C6F73656400456E746572205061B3
:102CD8007373776F726400506C6561736520456E1D
:102CE800746572004E65772050617373776F7264F4
:102CF800004F7065726174696F6E0043616E636541
:102D08006C65640050617373776F726420486173F7
:102D1800004265656E205365742121210077696C36
:102D28006C20636C6F736520696E3A005365747428
:102D3800696E677300456E74657220436F6D6D61CF
:102D48006E6400736574706173730073657474697D
:102D58006D65720054696D6572206368616E6765A0
:102D68006400746F3A2000436F7272656374205078
:102D7800617373776F72640053616665204F706585
:102D88006E656400496E636F7272656374005061AA
:102D98007373776F7264203A282800417474656EE3
:102DA80074696F6E00486967682054656D702121E9
:022DB800000019
:00000001FF
