:100000000C9428010C9459010C9459010C94590139
:100010000C9459010C9459010C9459010C945901F8
:100020000C9459010C9459010C9459010C945901E8
:100030000C9459010C9459010C9459010C945901D8
:100040000C9459010C9434070C9459010C945901E7
:100050000C9459010C9459010C9459010C946006AC
:100060000C9459010C942A060C9400060C94590126
:100070000C9459010C9459010C9459010C94590198
:100080000C9406070C9459010C9459010C945901D5
:100090000C9459010C9459010C9459010C94590178
:1000A0000C9459010C9459010C94D8060C945901E4
:1000B0000C9459010C9459010C9459010C94AA0602
:1000C0000C9459010C9459010C9459010C94590148
:1000D0000C9459010C9459010C9459010C94590138
:1000E0000C9459010C94AB030C948D030C94AF0346
:1000F0000C94E6020C9493030C9499020C94530212
:100100000C9497030C9403020C948A030C94300211
:100110000C9486030C94BD030C94B3030C949D03C0
:100120000C94A5030C9467030C946C030C94820349
:100130000C9462070C94B9030C9461020C947E0336
:100140000C94A1030C943F0200000A0B02090C0D51
:100150000E0807030401000000000000000000007A
:10016000000000000000000000000000000000008F
:10017000000000001211100000000000000000004C
:10018000000000000000000000000000000000006F
:100190002200250028002B002E003100340002012F
:1001A0000000050108010B010000210024002700C8
:1001B0002A002D0030003300010100000401070176
:1001C0000A010505050507050808080802020202DC
:1001D0000A0A0808040404040101010101010101E3
:1001E0000303030303030303040707070C0C0C0CAE
:1001F0000C0C0C0C02020202060606060606060697
:100200000B0B0B0B0B0B0B0B010210202008081023
:100210002040102040800201020108040201010276
:10022000040810204080804020100804020180044F
:1002300002018040201008040201080402010102AA
:10024000040810204080010204081020408062074A
:1002500011241FBECFEFD1E2DEBFCDBF00E00CBF47
:1002600012E0A0E0B2E0E2E4FBE100E00BBF02C07C
:1002700007900D92A034B107D9F723E0A0E4B2E0D3
:1002800001C01D92A938B207E1F711E0C8E2D1E040
:1002900000E006C021970109802FFE010E94810B1A
:1002A000C732D10780E00807A9F70E94C7070C945E
:1002B0009F0D0C94000090E0FC01E85FFD4F24913D
:1002C0008E539E4FFC018491882399F090E0880F13
:1002D000991FFC01E855FE4FA591B491FC01E2572E
:1002E000FE4F859194918FB7F894EC91E22BEC93AB
:1002F0008FBF08951F93CF93DF93EC01162F888152
:10030000803308F04FC0862F0E945B018881282F20
:1003100030E0F901EE0FFF1FE20FF31FE551FD4F33
:100320001F736081607C612B60839EE8998394E6F3
:100330009A832CE0622F0E94750B829FB0011124DA
:1003400030E020E0AB01420F531FFA01EE0FFF1F18
:10035000E40FF51FE551FD4F908196FD16C02F5F0C
:100360003F4F2C30310571F7813009F51092800034
:1003700082E0809381001092850010928400B19AEF
:1003800080916F00826080936F00E8818E2F90E0F3
:10039000FC01EE0FFF1FE80FF91FE551FD4F8081B3
:1003A000806480838881DF91CF911F91089582308E
:1003B00061F4109290008093910010929500109239
:1003C000940088BB80937100E0CF833069F4109271
:1003D000A00082E08093A1001092A5001092A400DA
:1003E00089BB80937200D1CF8111CFCF10922001B1
:1003F00082E08093210110922501109224018ABB92
:1004000080937300C2CFAF92BF92CF92DF92EF92F0
:10041000FF920F931F93CF93DF936C017B018B01AE
:10042000040F151FEB015E01AE18BF08C017D107FE
:1004300059F06991D601ED91FC910190F081E02D88
:10044000C6011995892B79F7C501DF91CF911F91CD
:100450000F91FF90EF90DF90CF90BF90AF900895F5
:10046000FC01538D448D252F30E0842F90E0821BBA
:10047000930B541710F0CF96089501970895FC013F
:10048000918D828D981761F0A28DAE0FBF2FB11D97
:100490005D968C91928D9F5F9F73928F90E00895EF
:1004A0008FEF9FEF0895FC01918D828D981731F0A9
:1004B000828DE80FF11D858D90E008958FEF9FEFFD
:1004C0000895FC01918D228D892F90E0805C9F4FD3
:1004D000821B91098F73992708958EE492E00E9400
:1004E000610221E0892B09F420E0822F0895FC01AC
:1004F000A48DA80FB92FB11DA35ABF4F2C91848D85
:1005000090E001968F739927848FA689B7892C93E1
:10051000A089B1898C91837080648C93938D848D34
:10052000981306C00288F389E02D80818F7D808337
:100530000895EF92FF920F931F93CF93DF93EC01F7
:1005400081E0888F9B8D8C8D98131AC0E889F9897A
:10055000808185FF15C09FB7F894EE89FF8960837D
:10056000E889F98980818370806480839FBF81E0FE
:1005700090E0DF91CF911F910F91FF90EF90089540
:10058000F62E0B8D10E00F5F1F4F0F731127E02E1B
:100590008C8D8E110CC00FB607FCFACFE889F98953
:1005A000808185FFF5CFCE010E947702F1CFEB8DE0
:1005B000EC0FFD2FF11DE35AFF4FF0829FB7F89427
:1005C0000B8FEA89FB8980818062CFCFCF93DF9345
:1005D000EC01888D8823B9F0AA89BB89E889F9895B
:1005E0008C9185FD03C0808186FD0DC00FB607FC90
:1005F000F7CF8C9185FFF2CF808185FFEDCFCE01C3
:100600000E947702E9CFDF91CF91089580E090E0DA
:10061000892B29F00E946D0281110E94000080E068
:1006200090E0892B49F080E090E0892B29F00E942E
:10063000000081110E94000080E090E0892B49F0C9
:1006400080E090E0892B29F00E94000081110E9437
:10065000000080E090E0892B49F080E090E0892B59
:1006600029F00E94000081110C9400000895282FA9
:1006700030E0F901E85BFE4F9491F901E85FFD4F2E
:1006800044912E533E4FF9012491222309F435C0A1
:10069000992311F191509231F8F4E92FF0E0882775
:1006A000EB5AFC4F8F4F0C94810B86038A03670330
:1006B0007E0382036C038D03930397039D03A103C1
:1006C000A503AB03AF036C03B303B903BD03809170
:1006D00080008F7780938000E22FF0E0EE0FFF1F05
:1006E000E257FE4FA591B4918FB7F894EC91611148
:1006F00048C040954E234C938FBF08958091800051
:100700008F7DE8CF80918000877FE4CF84B58F779D
:1007100084BDE2CF84B58F7DFBCF8091B0008F7711
:100720008093B000D9CF8091B0008F7DF9CF8091B8
:1007300090008F7780939000CFCF809190008F7D35
:10074000F9CF80919000877FF5CF8091A0008F77BF
:100750008093A000C1CF8091A0008F7DF9CF8091C0
:10076000A000877FF5CF809120018F7780932001B3
:10077000B3CF809120018F7DF9CF80912001877FB9
:10078000F5CF4E2BB8CF90917B00977F90937B0055
:100790008653806480937C0080917A00806480938B
:1007A0007A0080917A0086FDFCCF8091780090914C
:1007B000790008953FB7F8948091490290914A02D8
:1007C000A0914B02B0914C0226B5A89B05C02F3FCB
:1007D00019F00196A11DB11D3FBFBA2FA92F982F67
:1007E0008827BC01CD01620F711D811D911D42E062
:1007F000660F771F881F991F4A95D1F708958F922A
:100800009F92AF92BF92CF92DF92EF92FF924B01F5
:100810005C010E94DA036B017C010E94DA036C190F
:100820007D098E099F09683E734081059105A8F3F3
:1008300021E0821A9108A108B10888EEC80E83E071
:10084000D81EE11CF11C81149104A104B10429F704
:10085000FF90EF90DF90CF90BF90AF909F908F90E0
:100860000895CF92DF92EF92FF92CF93DF93EC0146
:10087000603282E07807CCF5653B710514F064EBDB
:1008800070E0898128E830E0281B310987FD339525
:10089000220F331F220F331F6901330FEE08FF08A9
:1008A0008A8128E532E0281B310987FD3395220F24
:1008B000331F220F331F032E000C440B550B2C1932
:1008C0003D094E095F09DB0177FF02C0B0E0A0E0FF
:1008D0000E94060B24EB30E040E050E00E94DC0A6E
:1008E000C20ED31EE41EF51EB601E881E03370F59A
:1008F000298188E890E0821B910927FD9395880F54
:10090000991F880F991F681779077CF02A8188E55D
:1009100092E0821B910927FD9395880F991F880FFC
:10092000991F681779070CF4CB010297880F991F5C
:100930004FB7F8942E2F30E0F901EE0FFF1FE20FB2
:10094000F31FE551FD4F928381834FBFDF91CF911C
:10095000FF90EF90DF90CF900895AF92BF92CF922B
:10096000DF92EF92FF920F931F93CF93DF936B0170
:100970007A01EC01C05CDD4F28813CE0389F8001AA
:10098000399F100D1124A0907B03B12C27FF1FC0AD
:10099000FB011182108288818F5F88838881980192
:1009A000280F311D87FD3A95F6012A153B051CF4E9
:1009B00088818C30C4F180819181049680349C4977
:1009C00008F473C0F60180819181049670C088811B
:1009D0009801280F311D87FD3A952A153B05DCF655
:1009E0008881A801480F511D87FD5A95FA01EE0F25
:1009F000FF1FE40FF51FE551FD4F808186FFCBCF30
:100A00008881F801E80FF11D87FDFA95CF01EE0FFF
:100A1000FF1FE80FF91FE551FD4F808160E08F73E4
:100A20000E943703B8CF808191812881A801420FAD
:100A3000511D27FD5A959A01FA01EE0FFF1FE20F93
:100A4000F31FE551FD4F21813281820F931FF70182
:100A50009183808388819801280F311D87FD3A9505
:100A6000F901EE0FFF1FE20FF31FE551FD4F8081EB
:100A700086FF22C08881080F111D87FD1A95F80195
:100A8000EE0FFF1FE00FF11FE551FD4F808161E088
:100A90008F73DF91CF911F910F91FF90EF90DF90B7
:100AA000CF90BF90AF900C94370380E49CE9F7019E
:100AB000918380838FEF8883DF91CF911F910F9176
:100AC000FF90EF90DF90CF90BF90AF900895CF93BD
:100AD000DF93C0910002D0910102C53BD105DCF447
:100AE000BE018CE793E00E943104BE018FE793E0E2
:100AF0000E943104BE0182E893E00E94310462E367
:100B000070E080E090E00E94FF032196D093010204
:100B1000C0930002DECFDF91CF910895CF93DF9392
:100B200086E30E94C303EC0187E30E94C303BE0176
:100B3000681B790B77FF02C061507109072E000C0A
:100B4000880B990B0E94E30920E030E04AEF5EE356
:100B50000E941E0A0E943F0BCB01DF91CF910895A6
:100B6000CF93DF93D82FC62F60E080E3C11101C07F
:100B700081E30E943703DEBD00000DB407FEFDCF08
:100B80008EB564E670E080E090E00E94FF0361E0D3
:100B900080E3C11101C081E3DF91CF910C94370351
:100BA00042E050E06AE172E08EE492E00C940302CD
:100BB0000F931F93CF93DF93EC0188819981009766
:100BC00059F02A813B812617370730F081E0DF9109
:100BD000CF911F910F9108958B016F5F7F4F0E94FE
:100BE000AE0C009759F0998388831B830A832C816C
:100BF0003D81232B59F7FC011082E8CF80E0E7CF3D
:100C00001F920F920FB60F9211240BB60F922F93D3
:100C10003F934F935F936F937F938F939F93AF9384
:100C2000BF93EF93FF938EE492E00E947702FF91CF
:100C3000EF91BF91AF919F918F917F916F915F9154
:100C40004F913F912F910F900BBE0F900FBE0F90C1
:100C50001F9018951F920F920FB60F9211240BB68A
:100C60000F922F938F939F93EF93FF93E0915E02E8
:100C7000F0915F028081E0916402F091650282FD53
:100C80001DC09081809167028F5F8F7320916802F1
:100C9000821741F0E0916702F0E0E25BFD4F958F33
:100CA00080936702FF91EF919F918F912F910F9009
:100CB0000BBE0F900FBE0F901F9018958081F2CF42
:100CC0001F920F920FB60F9211242F933F938F9381
:100CD0009F93AF93BF938091450290914602A0915C
:100CE0004702B09148023091440223E0230F2D3790
:100CF00058F50196A11DB11D209344028093450231
:100D000090934602A0934702B09348028091490213
:100D100090914A02A0914B02B0914C020196A11D04
:100D2000B11D8093490290934A02A0934B02B09365
:100D30004C02BF91AF919F918F913F912F910F9056
:100D40000FBE0F901F90189526E8230F0296A11D45
:100D5000B11DD2CF1F920F920FB60F9211240BB676
:100D60000F922F933F934F935F936F937F938F9344
:100D70009F93AF93BF93EF93FF9348E251E064E2F8
:100D800071E090E080E00E94AD04FF91EF91BF918F
:100D9000AF919F918F917F916F915F914F913F9113
:100DA0002F910F900BBE0F900FBE0F901F901895B4
:100DB0001F920F920FB60F9211240BB60F922F9322
:100DC0003F934F935F936F937F938F939F93AF93D3
:100DD000BF93EF93FF9348EA50E064EA70E083E04A
:100DE00090E00E94AD04FF91EF91BF91AF919F9170
:100DF0008F917F916F915F914F913F912F910F90C4
:100E00000BBE0F900FBE0F901F9018951F920F9260
:100E10000FB60F9211240BB60F922F933F934F935F
:100E20005F936F937F938F939F93AF93BF93EF9352
:100E3000FF9348E950E064E970E082E090E00E94AE
:100E4000AD04FF91EF91BF91AF919F918F917F91F1
:100E50006F915F914F913F912F910F900BBE0F902B
:100E60000FBE0F901F9018951F920F920FB60F9202
:100E700011240BB60F922F933F934F935F936F9371
:100E80007F938F939F93AF93BF93EF93FF9348E824
:100E900050E064E870E081E090E00E94AD04FF91D2
:100EA000EF91BF91AF919F918F917F916F915F91E2
:100EB0004F913F912F910F900BBE0F900FBE0F904F
:100EC0001F901895109251021092500288EE93E0F4
:100ED000A0E0B0E08093520290935302A09354029A
:100EE000B09355028CE092E090934F0280934E02B3
:100EF00085EC90E090935B0280935A0284EC90E042
:100F000090935D0280935C0280EC90E090935F028E
:100F100080935E0281EC90E0909361028093600286
:100F200082EC90E0909363028093620286EC90E002
:100F30009093650280936402109267021092680297
:100F40001092690210926A02ECE7F3E025E833E0C0
:100F50004FEF68EB7BE080917B038033B0F491E04E
:100F6000980F90937B03808390E0DC01AA0FBB1F56
:100F7000A80FB91FA551BD4F12967C936E93119780
:100F800033962E173F0739F708954083F9CFCF9353
:100F9000DF93CDB7DEB76E970FB6F894DEBF0FBE06
:100FA000CDBF789484B5826084BD84B5816084BDF2
:100FB00085B5826085BD85B5816085BD80916E00F7
:100FC000816080936E001092810080918100826028
:100FD0008093810080918100816080938100809165
:100FE00080008160809380008091B1008460809354
:100FF000B1008091B00081608093B0008091910039
:101000008260809391008091910081608093910033
:10101000809190008160809390008091A100826017
:101020008093A1008091A10081608093A1008091B4
:10103000A00081608093A000809121018260809354
:101040002101809121018160809321018091200103
:1010500081608093200180917A00846080937A007F
:1010600080917A00826080937A0080917A0081601A
:1010700080937A0080917A00806880937A00109241
:10108000C10080E30E945B0181E30E945B0161E09B
:1010900080E30E94370361E081E30E9437031FB7BA
:1010A000F89480914D02811124C0E7EFF1E0849122
:1010B000EDE3F2E09491E82FF0E0EE0FFF1FE8552A
:1010C000FE4FA591B491EC91E92321F461E085E311
:1010D0000E94370385E30E945B018CB580618CBD63
:1010E0008CB580648CBD84E30E945B0183E30E9425
:1010F0005B0180914D028F5F80934D021FBF8CB5C5
:101100008C7F81608CBD8DB581608DBD65E070E0A8
:101110008CE793E00E947A0166E070E08FE793E04D
:101120000E947A0167E070E082E893E00E947A0111
:101130000E946705E0915E02F0915F0282E0808389
:10114000E0915A02F0915B021082E0915C02F09112
:101150005D028FEC808310926602E0916202F09152
:10116000630286E08083E0916002F09161028081F9
:1011700080618083E0916002F091610280818860EB
:101180008083E0916002F0916102808180688083B9
:10119000E0916002F091610280818F7D8083CE01B9
:1011A00001967C011A8E198E1C8E1B8E1E8E1D8E32
:1011B00069E070E0CE0149960E94D805298D3A8DEC
:1011C0008111A1C02115310519F0C9010E94250C1A
:1011D0001A8E198E1E8E1D8E1C8E1B8E0E948E05E1
:1011E0001C8A1B8A1E8A1D8A188E1F8A4AE0B70134
:1011F0000E94AC09F70101900020E9F731978F01B7
:101200000E191F09B801CE0143960E94D8052B89FB
:101210003C89811182C02115310519F0C9010E9454
:10122000250C1C8A1B8A188E1F8A1E8A1D8A0B8910
:101230001C890115110511F1CF88D88CC801C11482
:10124000D104D1F08D8D9E8DC80ED91EB601CE0170
:1012500049960E94D805882359F0298D3A8D8D8DA5
:101260009E8DB801820F931F0E94980DDE8ECD8E49
:101270008B899C89009711F00E94250C4D8D5E8D05
:10128000698D7A8D8EE492E00E9403020E94D0055F
:101290000E948E0561E0813591050CF445C081E026
:1012A0000E94B00560E081E00E94B00548E150E096
:1012B00067E272E08EE492E00E9403020E94D00591
:1012C000009100021091010210161106B4F5B80148
:1012D0008CE793E00E943104B8018FE793E00E940D
:1012E0003104B80182E893E00E94310465E070E0C7
:1012F00080E090E00E94FF03015011091093010269
:1013000000930002DDCF89E090E09E8F8D8F6DE12C
:1013100072E0C9010E94980D61CF188F0F8BB70141
:10132000C9010E94980D83CF80E00E94B00560E063
:1013300080E00E94B0050E94670568EC70E080E0E4
:1013400090E00E94FF03898D9A8D009711F00E9412
:10135000250C0E94060326CFBB274A3031F499237F
:1013600022F4BDE2909581959F4F0C94B809BB275C
:10137000FB015527AA27880F991FAA1FA41710F051
:10138000A41B83955051B9F7A05DAA3308F0A95D5D
:10139000A193009779F7B111B1931192CB010C94FD
:1013A000D109DC01FC01672F71917723E1F73297B6
:1013B00004C07C916D9370836291AE17BF07C8F330
:1013C0000895E89409C097FB3EF490958095709538
:1013D00061957F4F8F4F9F4F9923A9F0F92F96E981
:1013E000BB279395F695879577956795B795F111F6
:1013F000F8CFFAF4BB0F11F460FF1BC06F5F7F4F93
:101400008F4F9F4F16C0882311F096E911C07723A4
:1014100021F09EE8872F762F05C0662371F096E8AD
:10142000862F70E060E02AF09A95660F771F881F7C
:10143000DAF7880F9695879597F908950E94310AF3
:101440000C94A20A0E94940A38F00E949B0A20F091
:10145000952311F00C948B0A0C94910A11240C948E
:10146000D60A0E94B30A70F3959FC1F3950F50E01E
:10147000551F629FF001729FBB27F00DB11D639F46
:10148000AA27F00DB11DAA1F649F6627B00DA11DEC
:10149000661F829F2227B00DA11D621F739FB00D92
:1014A000A11D621F839FA00D611D221F749F332702
:1014B000A00D611D231F849F600D211D822F762F9B
:1014C0006A2F11249F5750409AF0F1F088234AF078
:1014D000EE0FFF1FBB1F661F771F881F91505040E4
:1014E000A9F79E3F510580F00C948B0A0C94D60A04
:1014F0005F3FE4F3983ED4F3869577956795B7956B
:10150000F795E7959F5FC1F7FE2B880F911D969584
:10151000879597F9089597F99F6780E870E060E0F4
:1015200008959FEF80EC089500240A94161617067C
:1015300018060906089500240A94121613061406C4
:1015400005060895092E0394000C11F4882352F027
:10155000BB0F40F4BF2B11F460FF04C06F5F7F4FDF
:101560008F4F9F4F089557FD9058440F551F59F0C6
:101570005F3F71F04795880F97FB991F61F09F3F80
:1015800079F087950895121613061406551FF2CFA9
:101590004695F1DF08C0161617061806991FF1CFF9
:1015A00086957105610508940895E894BB27662720
:1015B0007727CB0197F90895052E97FB1EF4009429
:1015C0000E94F30A57FD07D00E940E0B07FC03D0C0
:1015D0004EF40C94F30A50954095309521953F4F69
:1015E0004F4F5F4F089590958095709561957F4F0F
:1015F0008F4F9F4F08950E94300BA59F900DB49F71
:10160000900DA49F800D911D11240895B7FF0C9497
:10161000FB0A0E94FB0A821B930B0895A1E21A2E7B
:10162000AA1BBB1BFD010DC0AA1FBB1FEE1FFF1F86
:10163000A217B307E407F50720F0A21BB30BE40BD6
:10164000F50B661F771F881F991F1A9469F760951D
:101650007095809590959B01AC01BD01CF010895D7
:10166000A29FB001B39FC001A39F700D811D1124E3
:10167000911DB29F700D811D1124911D08950E942E
:10168000460B6894B1110C94D60A08950E94BB0AC7
:1016900088F09F5798F0B92F9927B751B0F0E1F033
:1016A000660F771F881F991F1AF0BA95C9F714C0E3
:1016B000B13091F00E94D50AB1E008950C94D50A9A
:1016C000672F782F8827B85F39F0B93FCCF386951C
:1016D00077956795B395D9F73EF490958095709579
:1016E00061957F4F8F4F9F4F0895991B79E004C0FC
:1016F000991F961708F0961B881F7A95C9F7809551
:101700000895EE0FFF1F881F8BBF0790F691E02D05
:1017100019940F931F93CF93DF938230910510F4A8
:1017200082E090E0E0918703F091880330E020E0D0
:10173000B0E0A0E0309799F42115310509F44AC0D2
:10174000281B390B24303105D8F58A819B8161151E
:10175000710589F1FB0193838283FE0111C04081F1
:1017600051810281138148175907E0F04817590742
:1017700099F4109761F012960C93129713961C939C
:101780003296CF01DF91CF911F910F910895009371
:10179000870310938803F4CF2115310551F04217C8
:1017A000530738F0A901DB019A01BD01DF01F801FF
:1017B000C1CFEF01F9CF9093880380938703CDCFFA
:1017C000FE01E20FF31F8193919322503109398377
:1017D0002883D7CF2091850330918603232B41F4B2
:1017E00020910402309105023093860320938503F3
:1017F00020910202309103022115310541F42DB7E9
:101800003EB74091060250910702241B350BE09130
:101810008503F0918603E217F307A0F42E1B3F0B1C
:101820002817390778F0AC014E5F5F4F2417350752
:1018300048F04E0F5F1F50938603409385038193BA
:1018400091939FCFF0E0E0E09CCFCF93DF930097A0
:10185000E9F0FC01329713821282A0918703B091C4
:101860008803ED0130E020E01097A1F42081318160
:10187000820F931F20918503309186032817390723
:1018800009F061C0F0938603E0938503DF91CF9167
:101890000895EA01CE17DF07E8F54A815B819E01D2
:1018A00041155105B1F7E901FB83EA83499159914B
:1018B000C40FD51FEC17FD0761F48081918102965A
:1018C000840F951FE90199838883828193819B838B
:1018D0008A83F0E0E0E012968D919C911397009737
:1018E000B9F52D913C911197CD010296820F931F6E
:1018F00020918503309186032817390739F63097F0
:1019000051F51092880310928703B0938603A09339
:101910008503BCCFD383C28340815181840F951F3F
:10192000C817D90761F44E5F5F4F88819981480FCE
:10193000591F518340838A819B8193838283211520
:10194000310509F0B0CFF0938803E09387039ECF71
:10195000FD01DC01C0CF13821282D7CF4F925F927C
:101960006F927F928F929F92AF92BF92CF92DF92AF
:10197000EF92FF920F931F93CF93DF938C01009709
:1019800099F4CB01DF91CF911F910F91FF90EF90D0
:10199000DF90CF90BF90AF909F908F907F906F908F
:1019A0005F904F900C94890BFC01E60FF71F9C0190
:1019B00022503109E217F30708F4AEC0D901CD91E6
:1019C000DC911197C617D70720F1C530D10578F003
:1019D000CE0104978617970750F0C61BD70B2297A6
:1019E000C193D1936D937C93CF010E94250CC801C4
:1019F000DF91CF911F910F91FF90EF90DF90CF90EB
:101A0000BF90AF909F908F907F906F905F904F901E
:101A100008955B01AC1ABD0A4C018C0E9D1EA0916D
:101A20008703B0918803512C412CF12CE12C1097A5
:101A300031F580918503909186038815990509F009
:101A40005CC04616570608F058C08091020290917B
:101A50000302009741F48DB79EB740910602509162
:101A60000702841B950BE817F90708F055C0F0939F
:101A70008603E0938503F90171836083B8CF8D916C
:101A80009C91119712966C90129713967C901397D5
:101A9000A815B90559F56C0142E0C40ED11CCA1451
:101AA000DB0420F1AC014A195B09DA0112961597A3
:101AB00080F06282738251834083D9016D937C935D
:101AC000E114F10471F0D7011396FC93EE93129791
:101AD0008ECF22968C0F9D1FF90191838083F30195
:101AE000EFCFF0938803E093870381CF4816590620
:101AF00008F42C017D01D3019ACFCB010E94890B00
:101B00007C01009749F0AE01B8010E948F0DC80119
:101B10000E94250C87016BCF10E000E068CFFB012D
:101B2000DC0102C001900D9241505040D8F7089559
:101B3000FB01DC0101900D920020E1F70895F8947B
:021B4000FFCFD5
:101B4200B400000089038000000000009902030233
:101B52003002E60261023F0253020D0A0054656D33
:101B6200702069733A200044616E676572212120FA
:101B7200426172732061726520636C6F73656400E9
:00000001FF
