:100000000C944D010C947E010C947E010C947E01A5
:100010000C947E010C947E010C947E010C947E0164
:100020000C947E010C947E010C947E010C947E0154
:100030000C947E010C947E010C947E010C947E0144
:100040000C947E010C947E010C947E010C947E0134
:100050000C947E010C947E010C947E010C94AC04F3
:100060000C947E010C947E010C947E010C947E0114
:100070000C947E010C947E010C947E010C947E0104
:100080000C947E010C947E010C947E010C947E01F4
:100090000C947E010C947E010C947E010C947E01E4
:1000A0000C947E010C947E010C947E010C947E01D4
:1000B0000C947E010C947E010C947E010C947E01C4
:1000C0000C947E010C947E010C947E010C947604B9
:1000D0000C944C040C947E010C947E010C947E01D3
:1000E0000C947E010C94A6030C9471020C944002B3
:1000F0000C9413020C947A030C946B030C94D507A4
:100100000C9463020C9477030C9480030C948A0380
:100110000C9473030C9448040C949C030C948E036D
:100120000C94D7030C94F6020C94DF070C9465032F
:100130000C94D1070C946F030C94A0030C94F60458
:100140000C944F020C94CD070C94AA030C94DB077B
:100150000C94A9020C94D7070C94D9070C9484032F
:100160000C94DD070C94D3070C9408040C949203B0
:100170000C9498030C94A503000021002400270090
:100180002A002D00300033000101000004010701A6
:100190000A0100002200250028002B002E0031005B
:1001A000340002010000050108010B0100002000DD
:1001B0002300260029002C002F003200000100003F
:1001C00003010601090105050505070508080808DA
:1001D000020202020A0A08080404040401010101DF
:1001E00001010101030303030303030304070707DA
:1001F0000C0C0C0C0C0C0C0C02020202060606067F
:10020000060606060B0B0B0B0B0B0B0B010210204B
:10021000200808102040102040800201020108043C
:1002200002010102040810204080804020100804D0
:100230000201800402018040201008040201080429
:10024000020101020408102040800102040810206D
:10025000408000000A0B02090C0D0E080703040180
:10026000000000000000000000000000000000008E
:10027000000000000000000000000000000012115B
:10028000100000000000000000000000000000005E
:100290000000000000000000F60411241FBECFEF94
:1002A000D1E2DEBFCDBF00E00CBF12E0A0E0B2E0C3
:1002B000EAEDFFE000E00BBF02C007900D92A03313
:1002C000B107D9F723E0A0E3B2E001C01D92A53445
:1002D000B207E1F711E0CDE4D1E000E006C02197DC
:1002E0000109802FFE010E94E307CC34D10780E092
:1002F0000807A9F70E9484050C94EB070C940000F2
:1003000096E0899FD0011124AA52BD4F90967C930C
:100310006E935F9791E091969C939197E091430340
:10032000F091440390914203992339F0309751F0B2
:10033000811108C08091F2021994309719F05C96EF
:100340008C91FACF0895CF92DF92EF92FF920F93A4
:100350001F9396E0899FF0011124EA52FD4F11A2EC
:10036000278D30A12130310551F178F0223031054F
:1003700009F451C02330310509F452C01F910F9187
:10038000FF90EF90DF90CF9008956623B9F361E07E
:1003900070E00E9480012FB7F8948091350290910F
:1003A0003602A0913702B09138022FBF80932E03FE
:1003B00090932F03A0933003B0933103DFCF9FB707
:1003C000F894C0903502D0903602E0903702F09059
:1003D00038029FBF00912E0310912F03209130030C
:1003E00030913103C01AD10AE20AF30A00914003A6
:1003F0001091410330E020E00C151D052E053F054E
:1004000050F462E070E01F910F91FF90EF90DF9049
:10041000CF900C9480016111B1CF63E070E0F3CF15
:1004200070E060E0F0CFAF92BF92CF92DF92EF9298
:10043000FF920F931F93CF93DF936C017B018B018E
:10044000040F151FEB015E01AE18BF08C017D107DE
:1004500059F06991D601ED91FC910190F081E02D68
:10046000C6011995892B79F7C501DF91CF911F91AD
:100470000F91FF90EF90DF90CF90BF90AF900895D5
:10048000FC01538D448D252F30E0842F90E0821B9A
:10049000930B541710F0CF96089501970895FC011F
:1004A000918D828D981761F0A28DAE0FBF2FB11D77
:1004B0005D968C91928D9F5F9F73928F90E00895CF
:1004C0008FEF9FEF0895FC01918D828D981731F089
:1004D000828DE80FF11D858D90E008958FEF9FEFDD
:1004E0000895FC01918D228D892F90E0805C9F4FB3
:1004F000821B91098F739927089589E392E00E94E6
:10050000710221E0892B09F420E0822F0895FC017B
:10051000A48DA80FB92FB11DA35ABF4F2C91848D64
:1005200090E001968F739927848FA689B7892C93C1
:10053000A089B1898C91837080648C93938D848D14
:10054000981306C00288F389E02D80818F7D808317
:100550000895EF92FF920F931F93CF93DF93EC01D7
:1005600081E0888F9B8D8C8D98131AC0E889F9895A
:10057000808185FF15C09FB7F894EE89FF8960835D
:10058000E889F98980818370806480839FBF81E0DE
:1005900090E0DF91CF911F910F91FF90EF90089520
:1005A000F62E0B8D10E00F5F1F4F0F731127E02EFB
:1005B0008C8D8E110CC00FB607FCFACFE889F98933
:1005C000808185FFF5CFCE010E948702F1CFEB8DB0
:1005D000EC0FFD2FF11DE35AFF4FF0829FB7F89407
:1005E0000B8FEA89FB8980818062CFCFCF93DF9325
:1005F000EC01888D8823B9F0AA89BB89E889F9893B
:100600008C9185FD03C0808186FD0DC00FB607FC6F
:10061000F7CF8C9185FFF2CF808185FFEDCFCE01A2
:100620000E948702E9CFDF91CF91089580E090E0AA
:10063000892B49F080E090E0892B29F00E9400008E
:1006400081110E94000080E090E0892B49F080E059
:1006500090E0892B29F00E94000081110E94000087
:1006600080E090E0892B29F00E947D0281110E9498
:10067000000080E090E0892B49F080E090E0892B39
:1006800029F00E94000081110C940000089581500F
:10069000823108F05AC0E82FF0E08827ED5AFC4F6D
:1006A0008F4F0C94E3077303770365036B036F03AA
:1006B000A5037A03800384038A038E0392039803BD
:1006C0009C03A503A003A603AA03809180008F7753
:1006D000809380000895809180008F7DF9CF809174
:1006E0008000877FF5CF84B58F7784BD089584B56A
:1006F0008F7DFBCF8091B0008F778093B0000895FD
:100700008091B0008F7DF9CF809190008F7780939A
:1007100090000895809190008F7DF9CF8091900096
:10072000877FF5CF8091A0008F778093A0000895F8
:100730008091A0008F7DF9CF8091A000877FF5CFB9
:10074000809120018F77809320010895809120016E
:100750008F7DF9CF80912001877FF5CFCF93DF93F5
:10076000282F30E0F901EE5AFD4F8491F901E45F42
:10077000FD4FD491F901EA53FE4FC491CC23A1F06F
:1007800081110E944703EC2FF0E0EE0FFF1FE455AC
:10079000FE4FA591B491EC91ED2381E090E009F436
:1007A00080E0DF91CF91089580E090E0FACF862F2E
:1007B0000C94AE031F93CF93DF93282F30E0F90101
:1007C000EE5AFD4F8491F901E45FFD4FD491F90198
:1007D000EA53FE4FC491CC23A9F0162F81110E9439
:1007E0004703EC2FF0E0EE0FFF1FEE56FE4FA591F2
:1007F000B4918FB7F894EC91111108C0D095DE2315
:10080000DC938FBFDF91CF911F910895DE2BF8CF3E
:10081000862F642F0C94DA03CF93DF9390E0FC01D2
:10082000E45FFD4F24918A539E4FFC0184918823FD
:10083000C9F090E0880F991FFC01E858FE4FA59180
:10084000B491FC01EE56FE4FC591D49161110DC0DB
:100850009FB7F8948C91209582238C9388812823CC
:1008600028839FBFDF91CF910895623051F49FB7E5
:10087000F8943C91822F809583238C93E8812E2BD2
:10088000EFCF8FB7F894EC912E2B2C938FBFEACF3C
:10089000862F642F0C940C041F920F920FB60F92A8
:1008A00011240BB60F922F933F934F935F936F9347
:1008B0007F938F939F93AF93BF93EF93FF9389E3BE
:1008C00092E00E948702FF91EF91BF91AF919F91BB
:1008D0008F917F916F915F914F913F912F910F90E9
:1008E0000BBE0F900FBE0F901F9018951F920F9286
:1008F0000FB60F9211240BB60F922F938F939F93E5
:10090000EF93FF93E0914902F0914A028081E091D8
:100910004F02F091500282FD1DC0908180915202E1
:100920008F5F8F7320915302821741F0E091520242
:10093000F0E0E75CFD4F958F80935202FF91EF91BD
:100940009F918F912F910F900BBE0F900FBE0F9024
:100950001F9018958081F2CF1F920F920FB60F92C1
:1009600011242F933F938F939F93AF93BF938091C5
:10097000350290913602A0913702B0913802309141
:10098000340223E0230F2D3758F50196A11DB11D28
:10099000209334028093350290933602A09337025D
:1009A000B09338028091300290913102A0913202CE
:1009B000B09133020196A11DB11D80933002909336
:1009C0003102A0933202B0933302BF91AF919F9155
:1009D0008F913F912F910F900FBE0F901F90189500
:1009E00026E8230F0296A11DB11DD2CF10923C0222
:1009F00010923B0288EE93E0A0E0B0E080933D02CD
:100A000090933E02A0933F02B093400287E192E0B0
:100A100090933A028093390285ED90E090934602DC
:100A20008093450284ED90E09093480280934702C2
:100A300080ED90E090934A028093490281ED90E02E
:100A400090934C0280934B0282ED90E090934E0283
:100A500080934D0286ED90E09093500280934F0278
:100A600010925202109253021092540210925502A8
:100A70001092D8021092DC021092DB021092DD027A
:100A800089E292E09093D7028093D602E2EFF2E0FF
:100A90001082148213821582369683E0EE32F807B4
:100AA000B9F783E092E0909339038093380380E0B4
:100AB00092E090933B0380933A0384E080933C035D
:100AC00083E080933D0387E092E090933703809327
:100AD00036038AE090E090933F0380933E0384EFD7
:100AE00091E090934103809340031092440310924D
:100AF0004303109232031092330310923403109286
:100B00003503109242030895789484B5826084BDC1
:100B100084B5816084BD85B5826085BD85B5816001
:100B200085BD80916E00816080936E00109281007F
:100B3000809181008260809381008091810081603A
:100B400080938100809180008160809380008091FB
:100B5000B10084608093B1008091B0008160809387
:100B6000B00080919100826080939100809191000B
:100B700081608093910080919000816080939000CB
:100B80008091A10082608093A1008091A10081608A
:100B90008093A1008091A00081608093A00080914B
:100BA00021018260809321018091210181608093E5
:100BB00021018091200181608093200180917A0041
:100BC000846080937A0080917A00826080937A00BA
:100BD00080917A00816080937A0080917A008068A9
:100BE00080937A001092C10061E086E30E940C04B9
:100BF00061E087E30E940C0461E088E30E940C043A
:100C000061E089E30E940C0461E08DE30E940C0422
:100C100061E08CE30E940C0461E08BE30E940C0411
:100C200061E08AE30E940C0461E08EE30E940C0400
:100C3000E0914902F0914A0282E08083E09145020E
:100C4000F09146021082E0914702F09148028FEC49
:100C5000808310925102E0914D02F0914E0286E0A5
:100C60008083E0914B02F0914C028081806180830F
:100C7000E0914B02F0914C02808188608083E0918A
:100C80004B02F0914C02808180688083E0914B029E
:100C9000F0914C0280818F7D808322242394812CCB
:100CA000912C5401839466246A94762C56E0352E58
:100CB000209242038FB7F89440913502509136024A
:100CC00060913702709138028FBF8091320390910A
:100CD0003303A0913403B0913503481B590B6A0BC1
:100CE0007B0B80913E0390913F03B0E0A0E084171E
:100CF0009507A607B70708F00DC1C0E080913C0337
:100D0000C81760F4E0913803F0913903EC0FF11D3E
:100D100062E080810E940C04CF5FF0CF512C809163
:100D20003D03581608F05FC0052D10E0E0913A032E
:100D3000F0913B03E00FF11F61E080810E940C0401
:100D4000E0913A03F0913B03E00FF11F60E08081F6
:100D50000E94DA03D501C401052C04C0880F991F35
:100D6000AA1FBB1F0A94D2F76C017C01E094F09497
:100D7000412C80913C034816F8F4C42DD0E0E0915A
:100D80003803F0913903EC0FFD1F80810E94AE0300
:100D90002496CC0FDD1FCA52DD4F892B41F4888188
:100DA00099818C299D29998388834394E2CF8881F6
:100DB00099818E219F21F7CFE0913A03F0913B0377
:100DC000E00FF11F61E080810E94DA0380913A0315
:100DD00090913B03080F191F60E0F80180810E9489
:100DE0000C0453949CCFC6EDD2E0FE01878D90A1F8
:100DF000892B21F4148E768E658E11A2369683E0AF
:100E0000E231F80799F710E080913C03181708F0D9
:100E100052C000E0E12EF12CEE0CFF1CF701E25273
:100E2000FD4F7F0120913D03021708F042C0F701FA
:100E300060817181002E02C0769567950A94E2F771
:100E4000129F90011124200F311DE6EDF2E080E0A9
:100E5000458D568D2417350709F4B3C08F5F36963C
:100E60008A30B1F760FF23C0E6EDF2E090E080E069
:100E7000448D411117C0E0913603F0913703E20F22
:100E8000F31F6081389EF001399EF00D1124EA5263
:100E9000FD4F648F368F258F10A2178E61E00E9460
:100EA000A30105C0019636968A30910509F70F5FB8
:100EB000B9CF1F5FA9CF80E099A19111892F269604
:100EC000F3E0C231DF07C1F79FB7F89440913502D4
:100ED0005091360260913702709138029FBF409363
:100EE00032035093330360933403709335038823A4
:100EF00089F08091F702882369F08091F502909142
:100F0000F602019739F4C091F202C11106C00E94A5
:100F10001603CECE10924203FACF6C2F89E392E0F3
:100F20000E94A90260E086E30E94DA0360E087E3A2
:100F30000E94DA0360E088E30E94DA0360E089E35C
:100F40000E94DA0360E08AE30E94DA0360E08BE348
:100F50000E94DA0360E08CE30E94DA0360E08DE334
:100F60000E94DA0360E08EE30E94DA03EFECEC0FFC
:100F7000E93068F60E2E000CFF0B61E08827EC5379
:100F8000F84F8F4F0C94E307CD07D107D307D50750
:100F9000D707D907DB07DD07DF0786E30E94DA03FF
:100FA000B6CF87E3FBCF88E3F9CF89E3F7CF8DE3B3
:100FB000F5CF8CE3F3CF8BE3F1CF8AE3EFCF8EE372
:100FC000EDCF61706CCFEE0FFF1F881F8BBF0790B6
:0A0FD000F691E02D1994F894FFCF7C
:100FDA00181716313233343132333435363738391B
:100FEA002A302300000000A90213024002F602710F
:100FFA00024F0263020000000048040804D70300FD
:00000001FF
