:100000000C9439010C946A010C946A010C946A01F5
:100010000C946A010C946A010C946A010C946A01B4
:100020000C946A010C946A010C946A010C946A01A4
:100030000C946A010C948B0A0C946A010C946A016A
:100040000C946A010C94FE0B0C946A010C946A01E6
:100050000C946A010C946A010C946A010C942A0BAA
:100060000C946A010C946A010C946A010C946A0164
:100070000C946A010C946A010C946A010C946A0154
:100080000C94D00B0C946A010C946A010C946A01D4
:100090000C946A010C946A010C946A010C946A0134
:1000A0000C946A010C946A010C94A20B0C946A01E2
:1000B0000C946A010C946A010C946A010C94740B00
:1000C0000C946A010C946A010C946A010C946A0104
:1000D0000C946A010C946A010C946A010C946A01F4
:1000E0000C946A010C9475020C9400020C94520258
:1000F0000C945E020C949E090C94EF020C9467021F
:100100000C945A020C9401020C943C050C946B0262
:100110000C940C0F0C947F020C9456020C942F0339
:100120000C9479020C9461020C948C020C948D0254
:100130000C94740E0C9487020C94BE020C94710201
:100140000C9483020C944C020C9491020000210048
:10015000240027002A002D00300033000101000098
:10016000040107010A0100002200250028002B00DD
:100170002E003100340002010000050108010B01CE
:10018000000020002300260029002C002F00320050
:100190000001000003010601090105050505070529
:1001A00008080808020202020A0A080804040404F3
:1001B000010101010101010103030303030303031F
:1001C000040707070C0C0C0C0C0C0C0C02020202AE
:1001D00006060606060606060B0B0B0B0B0B0B0B97
:1001E0000102102020080810204010204080020149
:1001F000020108040201010204081020408080402E
:10020000201008040201800402018040201008042C
:1002100002010804020101020408102040800102CA
:1002200004081020408000000A0B02090C0D0E0883
:1002300007030401000000000000000000000000AF
:1002400000000000000000000000000000000000AE
:10025000000012111000000000000000000000006B
:100260000000000000000000000000000200740E0A
:100270000C0F11241FBECFEFD1E2DEBFCDBF00E0D7
:100280000CBF12E0A0E0B2E0EAE3F6E200E00BBF50
:1002900002C007900D92AC3BB107D9F724E0ACEB5C
:1002A000B2E001C01D92A132B207E1F711E0C8E34C
:1002B000D1E000E006C021970109802FFE010E94D5
:1002C000E610C733D10780E00807A9F70E942C0C7D
:1002D0000C940B130C94000096E0899FD00111241C
:1002E000AA56BC4F90967C936E935F9791E091963F
:1002F0009C939197E0910304F0910404909102047F
:10030000992339F0309751F0811108C08091B203E0
:100310001994309719F05C968C91FACF08958F92CA
:100320009F92AF92BF92FF920F931F93CF93DF9351
:100330008F3F980709F461C0853B910511F484EB68
:1003400090E0F09093032FE22F1508F44CC0209119
:10035000950308E512E0021B110927FD1395000F14
:10036000111F000F111F20919403C8E8D0E0C21B99
:10037000D10927FDD395CC0FDD1FCC0FDD1F4E011A
:100380000D2E000CAA08BB089801012E000C440B8E
:10039000550B281939094A095B09DC010E946B10C9
:1003A00024EB30E040E050E00E944110820E931EAA
:1003B000A41EB51E8C169D062CF0E8018016910631
:1003C0000CF4E4012297CC0FDD1F2FB7F8948F2D8A
:1003D00090E0FC01EE0FFF1FE80FF91FED5FFC4FEF
:1003E000D283C1832FBFDF91CF911F910F91FF90D7
:1003F000BF90AF909F908F90089590E080E0A1CF44
:100400000895AF92BF92CF92DF92EF92FF920F9337
:100410001F93CF93DF936C017B018B01040F151F9A
:10042000EB015E01AE18BF08C017D10759F0699102
:10043000D601ED91FC910190F081E02DC601199556
:10044000892B79F7C501DF91CF911F910F91FF9013
:10045000EF90DF90CF90BF90AF90089581508231A0
:1004600008F05AC0E82FF0E08827E65CFD4F8F4F78
:100470000C94E6105A025E024C02520256028C02A2
:10048000610267026B027102750279027F028302C8
:100490008C0287028D029102809180008F77809379
:1004A00080000895809180008F7DF9CF8091800039
:1004B000877FF5CF84B58F7784BD089584B58F7D10
:1004C000FBCF8091B0008F778093B000089580912A
:1004D000B0008F7DF9CF809190008F77809390004E
:1004E0000895809190008F7DF9CF80919000877F53
:1004F000F5CF8091A0008F778093A0000895809120
:10050000A0008F7DF9CF8091A000877FF5CF8091EB
:1005100020018F77809320010895809120018F7DA5
:10052000F9CF80912001877FF5CFCF93DF93282FDC
:1005300030E0F901EA5DFD4F8491F901E052FE4F90
:10054000D491F901E656FE4FC491CC23A1F081115C
:100550000E942E02EC2FF0E0EE0FFF1FE058FE4F3E
:10056000A591B491EC91ED2381E090E009F480E055
:10057000DF91CF91089580E090E0FACF862F0C9420
:1005800095021F93CF93DF93282F30E0F901EA5DA6
:10059000FD4F8491F901E052FE4FD491F901E656E6
:1005A000FE4FC491CC23A9F0162F81110E942E0278
:1005B000EC2FF0E0EE0FFF1FEA59FE4FA591B4912A
:1005C0008FB7F894EC91111108C0D095DE23DC931D
:1005D0008FBFDF91CF911F910895DE2BF8CF862F2B
:1005E000642F0C94C102CF93DF9390E0FC01E052A2
:1005F000FE4F249186569E4FFC0184918823C9F0BA
:1006000090E0880F991FFC01E45BFE4FA591B49127
:10061000FC01EA59FE4FC591D49161110DC09FB7FD
:10062000F8948C91209582238C93888128232883A9
:100630009FBFDF91CF910895623051F49FB7F89436
:100640003C91822F809583238C93E8812E2BEFCFD2
:100650008FB7F894EC912E2B2C938FBFEACF862F77
:10066000642F0C94F3023FB7F8948091DF029091CD
:10067000E002A091E102B091E20226B5A89B05C07C
:100680002F3F19F00196A11DB11D3FBFBA2FA92F11
:10069000982F8827BC01CD01620F711D811D911D0E
:1006A00042E0660F771F881F991F4A95D1F708957A
:1006B0008F929F92AF92BF92CF92DF92EF92FF9272
:1006C0000E9433034B015C0185E0C82ED12CE12C44
:1006D000F12C0E943303681979098A099B09683E45
:1006E000734081059105A8F321E0C21AD108E10801
:1006F000F10888EE880E83E0981EA11CB11CC1147D
:10070000D104E104F10429F7FF90EF90DF90CF903E
:10071000BF90AF909F908F9008952FB7F8946091FD
:10072000DB027091DC028091DD029091DE022FBF2E
:1007300008950F931F93CF93DF93C82FD62F86E092
:10074000C89FF0011124EA56FC4F11A2878D90A199
:1007500081309105F1F058F082309105F1F1039765
:1007600009F440C0DF91CF911F910F910895662346
:10077000C9F361E070E08C2F0E946C010E948D0330
:100780006093EE037093EF038093F0039093F10373
:10079000E9CF0E948D030091EE031091EF032091A9
:1007A000F0033091F103AB01BC01401B510B620B14
:1007B000730B8091000490910104B0E0A0E08417D5
:1007C0009507A607B70748F462E070E08C2FDF9129
:1007D000CF911F910F910C946C0163E070E0D111E7
:1007E000C1CFF4CF70E060E0F1CF6F927F928F9233
:1007F0009F92AF92BF92CF92DF92EF92FF920F93B0
:100800001F93CF93DF9381E0809302040E948D03B6
:100810000091F2031091F3032091F4033091F5035A
:10082000AB01BC01401B510B620B730B8091FE03AB
:100830009091FF03B0E0A0E084179507A607B707E3
:1008400008F014C1C0E08091FC03C81760F4E09187
:10085000F803F091F903EC0FF11D62E080810E9432
:10086000F302CF5FF0CF712C812C912C5401839433
:100870008091FD03781608F05FC0072D10E0E0912D
:10088000FA03F091FB03E00FF11F61E080810E9409
:10089000F302E091FA03F091FB03E00FF11F60E037
:1008A00080810E94C102D501C401072C04C0880FB9
:1008B000991FAA1FBB1F0A94D2F76C017C01E09418
:1008C000F094612C8091FC036816F8F4C62DD0E0FA
:1008D000E091F803F091F903EC0FFD1F80810E9475
:1008E00095022496CC0FDD1FCA56DC4F892B41F4AC
:1008F000888199818C299D29998388836394E2CF8B
:10090000888199818E219F21F7CFE091FA03F091A0
:10091000FB03E00FF11F61E080810E94C102809122
:10092000FA039091FB03080F191F60E0F801808122
:100930000E94F30273949CCFC6E9D3E0FE018FEFCF
:100940009FEF278D30A1232B21F4148E968F858F56
:1009500011A2369623E0E23DF20799F7F12C96E0DA
:10096000D92E8091FC03F81608F050C0E12C0F2D11
:1009700010E0000F111F02561C4F2091FD03E216DC
:1009800008F042C0F801608171810E2C02C076959A
:1009900067950A94E2F7F29E900111242E0D311D05
:1009A000E6E9F3E080E0458D568D2417350709F41C
:1009B00061C08F5F36968A30B1F760FF23C0E6E9E9
:1009C000F3E090E080E0448D411117C0E091F60320
:1009D000F091F703E20FF31F4081D89EF001D99EFA
:1009E000F00D1124EA56FC4F448F368F258F10A24C
:1009F000178E61E00E94990305C0019636968A30F1
:100A0000910509F7E394B9CFF394ABCF10E089A136
:100A10008111182F2696F3E0C23DDF07C1F70E942F
:100A20008D036093F2037093F3038093F403909328
:100A3000F5031123D9F08091B7038823B9F0809191
:100A4000B5039091B603019789F48091B203DF91C9
:100A5000CF911F910F91FF90EF90DF90CF90BF90BB
:100A6000AF909F908F907F906F90089510920204A6
:100A700080E0EDCF6170BECF90E080E00895AF924E
:100A8000BF92CF92DF92EF92FF920F931F93CF937B
:100A9000DF936B017A01EC01CA52DD4F28813CE003
:100AA000389F8001399F100D1124A090D502B12CE0
:100AB00027FF1FC0FB011182108288818F5F88830E
:100AC00088819801280F311D87FD3A95F6012A1576
:100AD0003B051CF488818C30C4F18081918104969F
:100AE00080349C4908F473C0F6018081918104969A
:100AF00070C088819801280F311D87FD3A952A150D
:100B00003B05DCF68881A801480F511D87FD5A95E9
:100B1000FA01EE0FFF1FE40FF51FED5FFC4F808120
:100B200086FFCBCF8881F801E80FF11D87FDFA958C
:100B3000CF01EE0FFF1FE80FF91FED5FFC4F808123
:100B400060E08F730E94C102B8CF808191812881BB
:100B5000A801420F511D27FD5A959A01FA01EE0F87
:100B6000FF1FE20FF31FED5FFC4F21813281820FE7
:100B7000931FF7019183808388819801280F311D8D
:100B800087FD3A95F901EE0FFF1FE20FF31FED5FAE
:100B9000FC4F808186FF22C08881080F111D87FDD0
:100BA0001A95F801EE0FFF1FE00FF11FED5FFC4FEC
:100BB000808161E08F73DF91CF911F910F91FF9042
:100BC000EF90DF90CF90BF90AF900C94C10280E483
:100BD0009CE9F701918380838FEF8883DF91CF9128
:100BE0001F910F91FF90EF90DF90CF90BF90AF904B
:100BF0000895EF92FF921F93CF93DF937C0161E002
:100C000085E40E94C10280911802853441F08F3F33
:100C1000E9F0DF91CF911F91FF90EF900895ECE6FE
:100C2000F2E0C491C7FDF5CF61E085E40E94F302D4
:100C3000CC2309F4DEC0C23009F00AC18091B100B2
:100C4000887F83608093B100D9EFD8C085E480931A
:100C50001802ECE6F2E0C4918C2FCF3FD1F2C23003
:100C600009F468C060F4CC2379F1C13009F444C0C0
:100C700087FDCFCF61E085E40E94F302DCCFC43072
:100C800009F499C008F478C0C53091F7109220019A
:100C9000109221018091210188608093210180912F
:100CA0002101816080932101EFEDF1E0E491F0E01A
:100CB000EE0FFF1FEA59FE4F85919491E5E2F2E0B5
:100CC000E491E093BC02B0CF14BC15BC84B5826043
:100CD00084BD85B5816085BDEFEDF1E0E491F0E084
:100CE000EE0FFF1FEA59FE4F85919491E5E2F2E085
:100CF000E491E093C00298CF10928000109281009E
:100D00008091810088608093810080918100816062
:100D100080938100EFEDF1E0E491F0E0EE0FFF1F32
:100D2000EA59FE4F85919491E5E2F2E0E491E09377
:100D3000BF027ACF1092B0001092B1008091B00043
:100D400082608093B0008091B10081608093B10097
:100D5000EFEDF1E0E491F0E0EE0FFF1FEA59FE4FF6
:100D6000859194919093E4028093E302E5E2F2E0AE
:100D7000E491E093E50258CF109290001092910018
:100D800080919100886080939100809191008160B2
:100D900080939100EFEDF1E0E491F0E0EE0FFF1FA2
:100DA000EA59FE4F85919491E5E2F2E0E491E093F7
:100DB000BE02C3E039CF1092A0001092A100809132
:100DC000A10088608093A1008091A1008160809340
:100DD000A100EFEDF1E0E491F0E0EE0FFF1FEA5922
:100DE000FE4F85919491E5E2F2E0E491E093BD023B
:100DF0001BCF85B5887F836085BDDCE710E020EDE3
:100E000037E0D7010E94EE1028EE33E040E050E0DA
:100E10000E947310C23009F450C00CF086C0CC237D
:100E2000E9F1C13009F0F5CE8D2F912F9093890013
:100E3000809388002093CD023093CE024093CF025E
:100E40005093D00280916F00826080936F00E1CE5A
:100E5000C13049F480918100887F81608093810056
:100E6000DFE31FE1CCCFC33039F480919100887F5C
:100E7000816080939100F4CFC43039F48091A10057
:100E8000887F81608093A100EBCFC53049F78091C6
:100E90002101887F816080932101E2CFD7BD20931B
:100EA000D1023093D2024093D3025093D402809166
:100EB0006E00826080936E00ACCED093B30020931E
:100EC000E6023093E7024093E8025093E9028091F2
:100ED00070008260809370009CCE8D2F912F909334
:100EE0009900809398002093C9023093CA024093DE
:100EF000CB025093CC02809171008260809371008C
:100F000088CE8D2F912F9093A9008093A8002093D5
:100F1000C5023093C6024093C7025093C802809125
:100F2000720082608093720074CEC43051F3ACF2D0
:100F3000C53009F06ECE8D2F912F909329018093AB
:100F400028012093C1023093C2024093C302509300
:100F5000C402809173008260809373005ACECF9355
:100F6000DF9388EE93E00E94F905D0E0C0E0CE0167
:100F70000E948F010E9458032196C53BD105B9F705
:100F800081E080930203DF91CF9108950F931F9327
:100F9000CF93DF93EC01188219821A821B820E9480
:100FA000F503182F8823D9F382E390E00E94F90516
:100FB000288139814A815B8180ED810F8A30C0F4BC
:100FC000AAE0B0E00E946010212F110F330B2053D4
:100FD00031098901330F220B330BDC01CB01800F68
:100FE000911FA21FB31F88839983AA83BB83D7CF86
:100FF000232B242B252B99F2DF91CF911F910F9159
:101000000895FC0180819181009711F00C94911159
:101010000895CF93DF93EC0160E08E810E94C102BE
:1010200061E08E810E94C10260E08E810E94C10257
:101030008BE891E00197F1F7DF91CF910895CF927E
:10104000DF92EF92FF920F931F93CF93DF936C0188
:101050007C0187E0E80EF11CD0E0C0E0062F10E034
:10106000B8010C2E02C0759567950A94E2F761707D
:10107000F70181917F010E94C1022196C430D10500
:1010800079F7C601DF91CF911F910F91FF90EF90FB
:10109000DF90CF900C940908CF92DF92EF92FF92ED
:1010A0000F931F93CF93DF93EC01F62E642F8C8167
:1010B0000E94C1028D818F3F19F060E00E94C10241
:1010C0000F2D10E08F8584FF25C06E0187E0C80ECC
:1010D000D11CF12CE12CB8010E2C02C0759567953E
:1010E0000A94E2F76170F60181916F010E94C102DA
:1010F000FFEFEF1AFF0A88E0E816F10461F7CE016E
:10110000DF91CF911F910F91FF90EF90DF90CF90E3
:101110000C940908B80184E0759567958A95E1F704
:10112000CE010E941F086F2DCE01DF91CF911F913C
:101130000F91FF90EF90DF90CF900C941F0840E04C
:10114000682F85E094E00C944C08CF93DF938230B5
:1011500029F49091140498609093140480931804D7
:101160001092190480E480931A0480E180931B0498
:1011700080E580931C0461E0809109040E94F302E1
:1011800080910A048F3F19F061E00E94F30261E050
:1011900080910B040E94F302C5E0D4E09E0125502B
:1011A00034408091140484FD0BC084E090E02196CB
:1011B0002817390744F461E08E810E94F302EECFD4
:1011C00088E090E0F4CF8BE39DE00197F1F760E0D9
:1011D000809109040E94C10260E080910B040E948A
:1011E000C10280910A048F3F19F060E00E94C102A1
:1011F0008091140484FD39C063E085E094E00E948E
:101200001F08CBE4D6E4CE010197F1F763E085E057
:1012100094E00E941F082197F1F763E085E094E0D5
:101220000E941F0883E592E00197F1F762E085E0F4
:1012300094E00E941F088091140480620E949F081D
:1012400084E0809315048CE00E949F0881E00E9456
:101250009F088BE39FE10197F1F782E080931604EA
:1012600086E0DF91CF910C949F0880620E949F08D6
:101270008BE496E40197F1F78091140480620E9458
:101280009F0883E592E00197F1F780911404806252
:101290000E949F08D0CFCF93DF9381E00E949F08E8
:1012A0008BE39FE10197F1F7E1E080911804811150
:1012B000E0E0E195F0E0EB5FFB4FC0E1D0E0809132
:1012C000F8029091F9029E01281B390B369527955B
:1012D0008489820F80680E949F084091F802509193
:1012E000F9026091F4027091F50285E094E00E94A9
:1012F00001028091EE029091EF02C81BD90BD695A6
:10130000C795E0911804E230B8F4E150F0E0EB5FEB
:10131000FB4F84898C0F80680E949F084091EE02E9
:101320005091EF026091EA027091EB0285E094E047
:10133000DF91CF910C940102E1E0E8CF41E00E94FF
:101340004C0881E090E008950F931F93CF93DF93B3
:10135000EC0188819981009759F02A813B812617F9
:10136000370730F081E0DF91CF911F910F91089501
:101370008B016F5F7F4F0E941A12009759F099837B
:1013800088831B830A832C813D81232B59F7FC0121
:101390001082E8CF80E0E7CFCF93DF93EC01198292
:1013A00018821B821A821D821C8270E060E00E94FB
:1013B000A4092881398181110FC02115310519F047
:1013C000C9010E949111198218821D821C821B8200
:1013D0001A82DF91CF9108951D821C826DEA72E01E
:1013E000C901DF91CF910C940413EF92FF920F93F8
:1013F0001F93CF93DF93EC017B01FB010190002051
:10140000E9F731978F01061B170BB8010E94A40959
:1014100028813981811113C02115310519F0C901C5
:101420000E949111198218821D821C821B821A82CD
:10143000DF91CF911F910F91FF90EF9008951D8341
:101440000C83B701C901DF91CF911F910F91FF90DC
:10145000EF900C940413CF93DF9381E080931902F3
:1014600010921A0288EE93E00E94F905C4EBD0E0D6
:10147000CE010E948F010E9458032197C8F7109255
:10148000020367E372E084EF92E00E94F50966E4EC
:1014900072E08AEE92E00E94F509DF91CF910C9400
:1014A0004B0966E572E084EF92E00E94F50965E67B
:1014B00072E08AEE92E00E94F5090E944B098EEFDD
:1014C00092E00E94C60766E572E084EF92E00E9417
:1014D000F50960E772E08AEE92E00E94F5090E9449
:1014E0004B0980EF92E00E94C6072091F0023091F4
:1014F000F1024091F2025091F302A8EEB3E00E9493
:1015000060106093F0027093F1028093F202909366
:10151000F3020C942B0A1F920F920FB60F92112414
:101520000BB60F922F933F934F935F936F937F93DD
:101530008F939F93AF93BF93EF93FF938091E602B6
:101540009091E702A091E802B091E902892B8A2BE1
:101550008B2BE1F19091E502E091E302F091E4023E
:101560008081892780838091E6029091E702A09193
:10157000E802B091E902181619061A061B069CF437
:101580008091E6029091E702A091E802B091E90211
:101590000197A109B1098093E6029093E702A09315
:1015A000E802B093E902FF91EF91BF91AF919F9153
:1015B0008F917F916F915F914F913F912F910F90FC
:1015C0000BBE0F900FBE0F901F90189580911802C0
:1015D000ECE6F2E0E4919FEF90931802E230E9F03C
:1015E00040F4EE2389F0E13091F060E00E94C10206
:1015F000DACFE43049F110F1E530B9F7909173009A
:101600009D7F90937300F1CF10926E00EECF90917A
:101610006F009D7F90936F00E8CF909170009D7F49
:101620009093700091E09093B0009091B100987FFA
:1016300094609093B1001092B300D7CF9091710055
:101640009D7F90937100D1CF909172009D7F909378
:101650007200CBCF1F920F920FB60F9211242F93CF
:101660003F938F939F93AF93BF938091DB029091B1
:10167000DC02A091DD02B091DE023091DA0223E0BB
:10168000230F2D3758F50196A11DB11D2093DA02C5
:101690008093DB029093DC02A093DD02B093DE0224
:1016A0008091DF029091E002A091E102B091E2020C
:1016B0000196A11DB11D8093DF029093E002A093DB
:1016C000E102B093E202BF91AF919F918F913F9160
:1016D0002F910F900FBE0F901F90189526E8230FA3
:1016E0000296A11DB11DD2CF1F920F920FB60F927D
:1016F00011240BB60F922F933F934F935F936F93E9
:101700007F938F939F93AF93BF93EF93FF9348E2A1
:1017100051E064E271E090E080E00E943F05FF91BB
:10172000EF91BF91AF919F918F917F916F915F9159
:101730004F913F912F910F900BBE0F900FBE0F90C6
:101740001F9018951F920F920FB60F9211240BB68F
:101750000F922F933F934F935F936F937F938F934A
:101760009F93AF93BF93EF93FF9348EA50E064EAEF
:1017700070E083E090E00E943F05FF91EF91BF9100
:10178000AF919F918F917F916F915F914F913F9119
:101790002F910F900BBE0F900FBE0F901F901895BA
:1017A0001F920F920FB60F9211240BB60F922F9328
:1017B0003F934F935F936F937F938F939F93AF93D9
:1017C000BF93EF93FF9348E950E064E970E082E053
:1017D00090E00E943F05FF91EF91BF91AF919F91E3
:1017E0008F917F916F915F914F913F912F910F90CA
:1017F0000BBE0F900FBE0F901F9018951F920F9267
:101800000FB60F9211240BB60F922F933F934F9365
:101810005F936F937F938F939F93AF93BF93EF9358
:10182000FF9348E850E064E870E081E090E00E94B7
:101830003F05FF91EF91BF91AF919F918F917F9164
:101840006F915F914F913F912F910F900BBE0F9031
:101850000FBE0F901F901895CF93DF93CDB7DEB7D3
:10186000A7970FB6F894DEBF0FBECDBF789484B5AE
:10187000826084BD84B5816084BD85B5826085BD8C
:1018800085B5816085BD80916E00816080936E001A
:10189000109281008091810082608093810080910C
:1018A00081008160809381008091800081608093BD
:1018B00080008091B10084608093B1008091B0007D
:1018C00081608093B000809191008260809391004C
:1018D000809191008160809391008091900081605F
:1018E000809390008091A10082608093A1008091FC
:1018F000A10081608093A1008091A000816080930D
:10190000A0008091210182608093210180912101BA
:10191000816080932101809120018160809320016A
:1019200080917A00846080937A0080917A0082604E
:1019300080937A0080917A00816080937A00809110
:101940007A00806880937A001092C10061E085E49B
:101950000E94F30282E00E94A508809193038033E5
:1019600008F054C061E082E00E94F302809193038A
:10197000282F30E0F901EE0FFF1FE20FF31FED5F9C
:10198000FC4F9081907C926090839EE890939403AA
:1019900094E6909395032CE0622F0E94DA10829FC8
:1019A000B001112430E020E0AB01420F531FFA01D7
:1019B000EE0FFF1FE40FF51FED5FFC4F908196FDCA
:1019C00017C02F5F3F4F2C30310571F7813009F080
:1019D000A4C01092800082E0809381001092850064
:1019E00010928400B19A80916F00826080936F00A2
:1019F000E09193038E2F90E0FC01EE0FFF1FE80FA4
:101A0000F91FED5FFC4F8081806480830E94AF07E7
:101A10000E94510A80E4382E98EE892E93E0992E88
:101A2000A12CB12C00E010E0222423948091020329
:101A300081114AC080917B00877F80937B00309228
:101A40007C0080917A00806480937A0080917A0093
:101A500086FDFCCF8091780060917900762F682F09
:101A6000072E000C880B990B0E94480F20E030E0F5
:101A70004AEF5EE30E94830F0E94A410072E000C21
:101A8000880B990BC090FE02D090FF02E0900003FB
:101A9000F09001036C157D058E059F05A8F08091DF
:101AA0001A02811111C080911902882309F461C0C2
:101AB000109219020E948D036093FA027093FB0248
:101AC0008093FC029093FD020E94F503F82E882378
:101AD000E9F082E390E00E94F90580910203811110
:101AE000FAC080911A0266E572E0882309F4ECC01E
:101AF00084EF92E00E94F50962EA72E08AEE92E0D9
:101B00000E94F5090E944B090E94AF0701151105BB
:101B100009F48CCF0E94000089CF823061F41092CA
:101B2000900080939100109295001092940088BBD1
:101B3000809371005DCF833069F41092A00082E041
:101B40008093A1001092A5001092A40089BB8093FD
:101B500072004ECF81114CCF1092200182E0809311
:101B6000210110922501109224018ABB80937300F9
:101B70003FCF0E948D034090FA025090FB0260908C
:101B8000FC027090FD02A50194010E947310672B66
:101B9000682B692B09F073C06BE772E084EF92E069
:101BA0000E94F509C090F002D090F102E090F2029C
:101BB000F090F3020E948D031BA21AA21DA21CA288
:101BC0001FA21EA2C40CD51CE61CF71CA70196017F
:101BD000261B370B480B590BCA01B901A50194010B
:101BE0000E947310CA01B9012AE0AE014F5F5F4F36
:101BF0000E94140FBE016F5F7F4FCE0182960E943C
:101C0000F5098091EA029091EB02009709F16AA12F
:101C10007BA161157105D1F04091EC025091ED026C
:101C20002EA13FA14217530788F00E9404138EA1F2
:101C30009FA19093EF028093EE021FA21EA2CE01FD
:101C400082960E9401080E944B093ECF0E9491118A
:101C50008AA19BA19093EB028093EA028CA19DA1A3
:101C60009093ED028093EC028EA19FA19093EF02DE
:101C70008093EE021BA21AA21DA21CA2DECF0E941C
:101C80008D036419750986099709C090F002D090F8
:101C9000F102E090F202F090F302C616D706E806D1
:101CA000F90608F011CF66E872E084EF92E00E9436
:101CB000F50964E972E08AEE92E00E94F5090E945B
:101CC0004B0920921A0200CF84EF92E00E94F5099E
:101CD0006EEA72E013CF3FE2F31203C00E94510A92
:101CE00015CF0E942B0A12CF1092080410920704FD
:101CF0008FE292E090930604809305048DE0809338
:101D000009048FEF80930A048CE080930B0488E031
:101D100080930C0489E080930D048AE080930E0484
:101D20008BE080930F041092100410921104109213
:101D30001204109213041092140481E00E94A5086A
:101D40001092980310929C0310929B0310929D0393
:101D500085E292E09093970380939603E2EBF3E0A1
:101D60001082148213821582369683E0EE3EF807C5
:101D7000B9F784E092E09093F9038093F80380E050
:101D800092E09093FB038093FA0384E08093FC033A
:101D90008093FD0388E092E09093F7038093F6032D
:101DA0008AE090E09093FF038093FE0384EF91E03C
:101DB0009093010480930004109204041092030491
:101DC0001092F2031092F3031092F4031092F503B1
:101DD000109202048091D5028033D0F491E0980FE4
:101DE0009093D5028093930390E0FC01EE0FFF1FC8
:101DF000E80FF91FED5FFC4F88EB9BE09283818336
:101E000084EF92E00E94CC098AEE92E00C94CC0917
:101E10008FEF80939303F4CF8AEE92E00E94010843
:101E200084EF92E00C940108BB27FA01A62F6217F9
:101E3000710581059105330B30FB66F0AA27660F0B
:101E4000771F881F991FAA1FA21710F0A21B639566
:101E50003850A9F7A05DAA3308F0A95DA19336F721
:101E6000B111B1931082CA010C94360FDC01FC0150
:101E7000672F71917723E1F7329704C07C916D93BE
:101E800070836291AE17BF07C8F30895E89409C044
:101E900097FB3EF490958095709561957F4F8F4F9D
:101EA0009F4F9923A9F0F92F96E9BB279395F695B3
:101EB000879577956795B795F111F8CFFAF4BB0F31
:101EC00011F460FF1BC06F5F7F4F8F4F9F4F16C095
:101ED000882311F096E911C0772321F09EE8872F1F
:101EE000762F05C0662371F096E8862F70E060E0DB
:101EF0002AF09A95660F771F881FDAF7880F969554
:101F0000879597F908950E94960F0C9407100E94E8
:101F1000F90F38F00E94001020F0952311F00C9476
:101F2000F00F0C94F60F11240C943B100E94181023
:101F300070F3959FC1F3950F50E0551F629FF0011C
:101F4000729FBB27F00DB11D639FAA27F00DB11D35
:101F5000AA1F649F6627B00DA11D661F829F2227BE
:101F6000B00DA11D621F739FB00DA11D621F839F45
:101F7000A00D611D221F749F3327A00D611D231F1B
:101F8000849F600D211D822F762F6A2F11249F5769
:101F900050409AF0F1F088234AF0EE0FFF1FBB1F6C
:101FA000661F771F881F91505040A9F79E3F51052B
:101FB00080F00C94F00F0C943B105F3FE4F3983EDC
:101FC000D4F3869577956795B795F795E7959F5FD5
:101FD000C1F7FE2B880F911D9695879597F9089567
:101FE00097F99F6780E870E060E008959FEF80ECCC
:101FF000089500240A94161617061806090608956F
:1020000000240A9412161306140605060895092ED4
:102010000394000C11F4882352F0BB0F40F4BF2B43
:1020200011F460FF04C06F5F7F4F8F4F9F4F089583
:1020300057FD9058440F551F59F05F3F71F0479579
:10204000880F97FB991F61F09F3F79F0879508955E
:10205000121613061406551FF2CF4695F1DF08C07D
:10206000161617061806991FF1CF8695710561059A
:1020700008940895E894BB2766277727CB0197F942
:102080000895052E97FB1EF400940E94581057FDEA
:1020900007D00E94731007FC03D04EF40C94581024
:1020A00050954095309521953F4F4F4F5F4F089584
:1020B00090958095709561957F4F8F4F9F4F0895B4
:1020C0000E949510A59F900DB49F900DA49F800D28
:1020D000911D11240895B7FF0C9460100E946010A8
:1020E000821B930B0895A1E21A2EAA1BBB1BFD01B4
:1020F0000DC0AA1FBB1FEE1FFF1FA217B307E407E7
:10210000F50720F0A21BB30BE40BF50B661F771F3E
:10211000881F991F1A9469F760957095809590951E
:102120009B01AC01BD01CF010895A29FB001B39FF7
:10213000C001A39F700D811D1124911DB29F700DD0
:10214000811D1124911D08950E94AB106894B11156
:102150000C943B1008950E94201088F09F5798F02F
:10216000B92F9927B751B0F0E1F0660F771F881F9C
:10217000991F1AF0BA95C9F714C0B13091F00E94B6
:102180003A10B1E008950C943A10672F782F882701
:10219000B85F39F0B93FCCF3869577956795B395DD
:1021A000D9F73EF490958095709561957F4F8F4F4C
:1021B0009F4F0895991B79E004C0991F961708F066
:1021C000961B881F7A95C9F780950895EE0FFF1F1B
:1021D000881F8BBF0790F691E02D19940E949510EF
:1021E000B7FF0895821B930B08950F931F93CF930E
:1021F000DF938230910510F482E090E0E0911F04BB
:10220000F091200430E020E0B0E0A0E0309799F4B5
:102210002115310509F44AC0281B390B243031053A
:10222000D8F58A819B816115710589F1FB01938342
:102230008283FE0111C040815181028113814817C0
:102240005907E0F04817590799F4109761F0129672
:102250000C93129713961C933296CF01DF91CF9176
:102260001F910F91089500931F0410932004F4CF41
:102270002115310551F04217530738F0A901DB0150
:102280009A01BD01DF01F801C1CFEF01F9CF9093B1
:10229000200480931F04CDCFFE01E20FF31F819332
:1022A00091932250310939832883D7CF20911D047F
:1022B00030911E04232B41F420911D0230911E0207
:1022C00030931E0420931D0420911B0230911C02A8
:1022D0002115310541F42DB73EB740911F025091B1
:1022E0002002241B350BE0911D04F0911E04E2171F
:1022F000F307A0F42E1B3F0B2817390778F0AC0129
:102300004E5F5F4F2417350748F04E0F5F1F509305
:102310001E0440931D04819391939FCFF0E0E0E071
:102320009CCFCF93DF930097E9F0FC0132971382A3
:102330001282A0911F04B0912004ED0130E020E052
:102340001097A1F420813181820F931F20911D04E9
:1023500030911E042817390709F061C0F0931E045C
:10236000E0931D04DF91CF910895EA01CE17DF07B6
:10237000E8F54A815B819E0141155105B1F7E901FC
:10238000FB83EA8349915991C40FD51FEC17FD07D0
:1023900061F4808191810296840F951FE9019983F0
:1023A0008883828193819B838A83F0E0E0E01296A8
:1023B0008D919C9113970097B9F52D913C911197B0
:1023C000CD010296820F931F20911D0430911E04AF
:1023D0002817390739F6309751F5109220041092DA
:1023E0001F04B0931E04A0931D04BCCFD383C283EB
:1023F00040815181840F951FC817D90761F44E5F42
:102400005F4F88819981480F591F518340838A818A
:102410009B81938382832115310509F0B0CFF0931E
:102420002004E0931F049ECFFD01DC01C0CF138286
:102430001282D7CF4F925F926F927F928F929F922C
:10244000AF92BF92CF92DF92EF92FF920F931F93C2
:10245000CF93DF938C01009799F4CB01DF91CF915B
:102460001F910F91FF90EF90DF90CF90BF90AF90B2
:102470009F908F907F906F905F904F900C94F5108D
:10248000FC01E60FF71F9C0122503109E217F30708
:1024900008F4AEC0D901CD91DC911197C617D707CA
:1024A00020F1C530D10578F0CE0104978617970743
:1024B00050F0C61BD70B2297C193D1936D937C9399
:1024C000CF010E949111C801DF91CF911F910F910F
:1024D000FF90EF90DF90CF90BF90AF909F908F9044
:1024E0007F906F905F904F9008955B01AC1ABD0A8A
:1024F0004C018C0E9D1EA0911F04B0912004512C04
:10250000412CF12CE12C109731F580911D04909114
:102510001E048815990509F05CC04616570608F098
:1025200058C080911B0290911C02009741F48DB716
:102530009EB740911F0250912002841B950BE81713
:10254000F90708F055C0F0931E04E0931D04F9014B
:1025500071836083B8CF8D919C91119712966C9086
:10256000129713967C901397A815B90559F56C012D
:1025700042E0C40ED11CCA14DB0420F1AC014A199C
:102580005B09DA011296159780F06282738251839B
:102590004083D9016D937C93E114F10471F0D7016C
:1025A0001396FC93EE9312978ECF22968C0F9D1F5D
:1025B000F90191838083F301EFCFF0932004E0933E
:1025C0001F0481CF4816590608F42C017D01D30160
:1025D0009ACFCB010E94F5107C01009749F0AE0123
:1025E000B8010E94FB12C8010E94911187016BCFB4
:1025F00010E000E068CFFB01DC0102C001900D9209
:1026000041505040D8F70895FB01DC0101900D9234
:102610000020E1F7089511E0C8E3D1E000E006C032
:10262000802FFE010E94E6102196011DC933D107BB
:0A26300080E00807A9F7F894FFCF37
:10263A0019181716323334353738392F3435362AC4
:10264A003132332D63303D2BFF010100002104801C
:10265A0000000000002F03EF02BE02000000009EEF
:10266A000901023C0500024675726E6163652043EA
:10267A006C6F736564005374617274656420436F90
:10268A006F6B696E67004675726E616365204F7085
:10269A00656E656400456E7465722054656D7000E0
:1026AA00456E7465722054696D650074696D6520A4
:1026BA006C6566743A00436F6F6B2046696E697386
:1026CA0068656400526561647920746F206F706573
:1026DA006E0073657474696E67733A202F00436FD6
:0C26EA006F6B2043616E63656C656400DB
:00000001FF
