:100000000C9428010C9459010C9459010C94590139
:100010000C9459010C9459010C9459010C945901F8
:100020000C9459010C9459010C9459010C945901E8
:100030000C9459010C9459010C9459010C945901D8
:100040000C9459010C9459010C9459010C945901C8
:100050000C9459010C9459010C9459010C944705C6
:100060000C9459010C9411050C94E7040C9459015B
:100070000C9459010C9459010C9459010C94590198
:100080000C9459010C9459010C9459010C94590188
:100090000C9459010C9459010C9459010C94590178
:1000A0000C9459010C9459010C9459010C94590168
:1000B0000C9459010C9459010C9459010C94590158
:1000C0000C9459010C9459010C9459010C94590148
:1000D0000C9459010C9459010C9459010C94590138
:1000E0000C9459010C942A030C947A010C94260365
:1000F0000C9414030C940A030C9418030C9401033D
:100100000C9404030C94DE020C9422030C94F5026C
:100110000C9410020C945D020C94B6010C940E0326
:100120000C94A7010C94D8010C9430030C947E0716
:100130000C94F9020C94E3020C94FD020C94340329
:100140000C941C030C94CA0100000A0B02090C0D4C
:100150000E0807030401000000000000000000007A
:10016000000000000000000000000000000000008F
:10017000000000001211100000000000000000004C
:10018000000000000000000000000000000000006F
:100190002200250028002B002E003100340002012F
:1001A0000000050108010B010000210024002700C8
:1001B0002A002D0030003300010100000401070176
:1001C0000A010505050507050808080802020202DC
:1001D0000A0A0808040404040101010101010101E3
:1001E0000303030303030303040707070C0C0C0CAE
:1001F0000C0C0C0C02020202060606060606060697
:100200000B0B0B0B0B0B0B0B010210202008081023
:100210002040102040800201020108040201010276
:10022000040810204080804020100804020180044F
:1002300002018040201008040201080402010102AA
:1002400004081020408001020408102040807E072E
:1002500011241FBECFEFD1E2DEBFCDBF00E00CBF47
:1002600023E0A2EAB2E001C01D92AD34B207E1F78B
:1002700012E0A0E0B2E0E2E6F6E100E00BBF02C06F
:1002800007900D92A23AB107D9F711E0C8E2D1E088
:1002900000E006C021970109802FFE010E9411098C
:1002A000C732D10780E00807A9F70E9491050C9496
:1002B0002F0B0C94000090E0FC01E85FFD4F2491AF
:1002C0008E539E4FFC018491882399F090E0880F13
:1002D000991FFC01E855FE4FA591B491FC01E2572E
:1002E000FE4F859194918FB7F894EC91E22BEC93AB
:1002F0008FBF0895AF92BF92CF92DF92EF92FF929D
:100300000F931F93CF93DF936C017B018B01040F3D
:10031000151FEB015E01AE18BF08C017D10759F0D9
:100320006991D601ED91FC910190F081E02DC6011B
:100330001995892B79F7C501DF91CF911F910F9105
:10034000FF90EF90DF90CF90BF90AF900895FC01A9
:10035000538D448D252F30E0842F90E0821B930B2A
:10036000541710F0CF96089501970895FC01918DD0
:10037000828D981761F0A28DAE0FBF2FB11D5D96D3
:100380008C91928D9F5F9F73928F90E008958FEF75
:100390009FEF0895FC01918D828D981731F0828D29
:1003A000E80FF11D858D90E008958FEF9FEF089580
:1003B000FC01918D228D892F90E0805C9F4F821BE4
:1003C00091098F73992708958CEA92E00E94D801D1
:1003D00021E0892B09F420E0822F0895FC01A48DEF
:1003E000A80FB92FB11DA35ABF4F2C91848D90E057
:1003F00001968F739927848FA689B7892C93A0893A
:10040000B1898C91837080648C93938D848D9813C3
:1004100006C00288F389E02D80818F7D8083089556
:10042000EF92FF920F931F93CF93DF93EC0181E044
:10043000888F9B8D8C8D98131AC0E889F9898081EB
:1004400085FF15C09FB7F894EE89FF896083E8891E
:10045000F98980818370806480839FBF81E090E010
:10046000DF91CF911F910F91FF90EF900895F62E9D
:100470000B8D10E00F5F1F4F0F731127E02E8C8D37
:100480008E110CC00FB607FCFACFE889F98980817C
:1004900085FFF5CFCE010E94EE01F1CFEB8DEC0F81
:1004A000FD2FF11DE35AFF4FF0829FB7F8940B8F99
:1004B000EA89FB8980818062CFCFCF93DF93EC0103
:1004C000888D8823B9F0AA89BB89E889F9898C913C
:1004D00085FD03C0808186FD0DC00FB607FCF7CFF8
:1004E0008C9185FFF2CF808185FFEDCFCE010E94F8
:1004F000EE01E9CFDF91CF91089580E090E0892B64
:1005000029F00E94E40181110E94000080E090E047
:10051000892B49F080E090E0892B29F00E940000AF
:1005200081110E94000080E090E0892B49F080E07A
:1005300090E0892B29F00E94000081110E940000A8
:1005400080E090E0892B49F080E090E0892B29F051
:100550000E94000081110C9400000895282F30E0C3
:10056000F901E85BFE4F9491F901E85FFD4F44917A
:100570002E533E4FF9012491222309F435C09923CB
:1005800011F191509231F8F4E92FF0E08827E4530B
:10059000FD4F8F4F0C941109FD020103DE02F5029D
:1005A000F902E30204030A030E03140318031C03F5
:1005B00022032603E3022A033003340380918000E0
:1005C0008F7780938000E22FF0E0EE0FFF1FE2575D
:1005D000FE4FA591B4918FB7F894EC91611148C08A
:1005E00040954E234C938FBF0895809180008F7D5E
:1005F000E8CF80918000877FE4CF84B58F7784BD7A
:10060000E2CF84B58F7DFBCF8091B0008F77809350
:10061000B000D9CF8091B0008F7DF9CF809190004C
:100620008F7780939000CFCF809190008F7DF9CF0E
:1006300080919000877FF5CF8091A0008F77809385
:10064000A000C1CF8091A0008F7DF9CF8091A00044
:10065000877FF5CF809120018F7780932001B3CFE2
:10066000809120018F7DF9CF80912001877FF5CF88
:100670004E2BB8CF863308F0865320917B00982FFD
:100680009870277F922B90937B0087708064809373
:100690007C0080917A00806480937A0080917A0057
:1006A00086FDFCCF809178009091790008953FB746
:1006B000F8948091A7029091A802A091A902B0910C
:1006C000AA0226B5A89B05C02F3F19F00196A11DCF
:1006D000B11D3FBFBA2FA92F982F8827BC01CD018C
:1006E000620F711D811D911D42E0660F771F881FEB
:1006F000991F4A95D1F708958F929F92AF92BF921A
:10070000CF92DF92EF92FF924B015C010E94570360
:100710006B017C010E9457036C197D098E099F09AA
:10072000683E734081059105A8F321E0821A910883
:10073000A108B10888EEC80E83E0D81EE11CF11CA8
:1007400081149104A104B10429F7FF90EF90DF9088
:10075000CF90BF90AF909F908F900895CF93DF93ED
:10076000FC0101900020E9F73197AF01481B590BBC
:10077000BC018CEA92E00E947A01EC0142E050E078
:1007800068E172E08CEA92E00E947A018C0F9D1F72
:10079000DF91CF910895FC0180819181009711F044
:1007A0000C94B50908950F931F93CF93DF93EC0139
:1007B00088819981009759F02A813B812617370754
:1007C00030F081E0DF91CF911F910F9108958B015F
:1007D0006F5F7F4F0E943E0A009759F0998388838C
:1007E0001B830A832C813D81232B59F7FC01108246
:1007F000E8CF80E0E7CFEF92FF920F931F93CF9364
:10080000DF936115710541F480E0DF91CF911F9175
:100810000F91FF90EF90089541155105B1F07B01C4
:10082000EC010C811D81040F151FB8010E94D30338
:10083000882351F3288139818C819D81B701820FF2
:10084000931F0E94280B1D830C8381E0DECFEF9263
:10085000FF920F931F93CF93DF93EC017B018A01EB
:10086000BA010E94D30328813981811114C0211556
:10087000310519F0C9010E94B509198218821D823B
:100880001C821B821A82CE01DF91CF911F910F91A2
:10089000FF90EF9008951D830C83B701C9010E945A
:1008A000280BF1CFEF92FF920F931F93CF93DF931B
:1008B000CDB7DEB762970FB6F894DEBF0FBECDBFDF
:1008C0008C01CB01F80111821082138212821582F1
:1008D00014824AE09E012F5F3F4F7901B9010E94C7
:1008E000AB07F70101900020E9F73197AF014E19EE
:1008F0005F09B701C8010E94270462960FB6F894F9
:10090000DEBF0FBECDBFDF91CF911F910F91FF9042
:10091000EF900895FB0101900020E9F73197AF01B6
:10092000461B570B0C942704BF92CF92DF92EF9295
:10093000FF920F931F93CF93DF93CDB7DEB76C0178
:10094000B62EEDB6FEB660E080E3B11001C081E3E3
:100950000E94AE02F6018481958101962DB73EB7C3
:10096000281B390B0FB6F8943EBF0FBE2DBF0DB735
:100970001EB70F5F1F4F60817181C8010E94280B55
:10098000F8018191882339F08EBD00000DB407FE77
:10099000FDCF8EB5F6CF64E670E080E090E00E9477
:1009A0007C0361E080E3B11001C081E30E94AE02EC
:1009B0000FB6F894FEBE0FBEEDBEDF91CF911F9132
:1009C0000F91FF90EF90DF90CF90BF9008951F920E
:1009D0000F920FB60F9211240BB60F922F933F93E5
:1009E0004F935F936F937F938F939F93AF93BF9337
:1009F000EF93FF938CEA92E00E94EE01FF91EF915A
:100A0000BF91AF919F918F917F916F915F914F9126
:100A10003F912F910F900BBE0F900FBE0F901F9024
:100A200018951F920F920FB60F9211240BB60F92CA
:100A30002F938F939F93EF93FF93E091BC02F091DC
:100A4000BD028081E091C202F091C30282FD1DC00F
:100A500090818091C5028F5F8F732091C6028217AB
:100A600041F0E091C502F0E0E455FD4F958F809391
:100A7000C502FF91EF919F918F912F910F900BBE27
:100A80000F900FBE0F901F9018958081F2CF1F928C
:100A90000F920FB60F9211242F933F938F939F9332
:100AA000AF93BF938091A3029091A402A091A5025D
:100AB000B091A6023091A20223E0230F2D3758F502
:100AC0000196A11DB11D2093A2028093A3029093D1
:100AD000A402A093A502B093A6028091A7029091D0
:100AE000A802A091A902B091AA020196A11DB11D70
:100AF0008093A7029093A802A093A902B093AA02A0
:100B0000BF91AF919F918F913F912F910F900FBE09
:100B10000F901F90189526E8230F0296A11DB11D76
:100B2000D2CFCF93DF93CDB7DEB762970FB6F894ED
:100B3000DEBF0FBECDBF789484B5826084BD84B51E
:100B4000816084BD85B5826085BD85B5816085BDC8
:100B500080916E00816080936E0010928100809180
:100B60008100826080938100809181008160809308
:100B70008100809180008160809380008091B1002D
:100B800084608093B1008091B00081608093B00058
:100B900080919100826080939100809191008160AA
:100BA000809391008091900081608093900080916B
:100BB000A10082608093A1008091A1008160809358
:100BC000A1008091A00081608093A000809121010C
:100BD00082608093210180912101816080932101B5
:100BE0008091200181608093200180917A0084604F
:100BF00080937A0080917A00826080937A0080915D
:100C00007A00816080937A0080917A008068809376
:100C10007A001092C10080E30E945B0181E30E9490
:100C20005B0161E080E30E94AE0261E081E30E942B
:100C3000AE021FB7F8948091AB02811124C0E7EF98
:100C4000F1E08491EDE3F2E09491E82FF0E0EE0F13
:100C5000FF1FE855FE4FA591B491EC91E92321F4D3
:100C600061E085E30E94AE0285E30E945B018CB5E2
:100C700080618CBD8CB580648CBD84E30E945B0177
:100C800083E30E945B018091AB028F5F8093AB0294
:100C90001FBF8CB58C7F81608CBD8DB581608DBD93
:100CA000E091BC02F091BD0282E08083E091B80245
:100CB000F091B9021082E091BA02F091BB028FEC80
:100CC00080831092C402E091C002F091C10286E0DC
:100CD0008083E091BE02F091BF02808180618083B9
:100CE000E091BE02F091BF02808188608083E09134
:100CF000BE02F091BF02808180688083E091BE02D5
:100D0000F091BF0280818F7D80838BE192E00E9411
:100D1000AE031A8219821C821B821E821D8264E32A
:100D200072E0CE0101960E948A0461E0CE01019634
:100D30000E949404CE0101960E94CB0360E971E009
:100D400080E090E00E947C0383E492E00E94AE0386
:100D50001A8219821C821B821E821D826CE572E03F
:100D6000CE0101960E948A0460E0CE0101960E94A5
:100D70009404CE0101960E94CB0360E971E080E00B
:100D800090E00E947C0380E692E00E94AE031E8603
:100D90001D86188A1F861A8A198A66E772E0CE01B4
:100DA0000D960E948A0486E30E943A038C0187E331
:100DB0000E943A03B801681B790B77FF02C06150AB
:100DC0007109072E000C880B990B0E94E20720E0A6
:100DD00030E04AEF5EE30E941D080E94DB08CE016E
:100DE00001960E9452044D815E8169817A81CE0113
:100DF0000D960E94FB03CE0101960E94CB0341E0B9
:100E000050E069E172E0CE010D960E94FB031A8268
:100E100019821C821B821E821D826D857E85611552
:100E2000710531F049895A89CE0101960E94270443
:100E300061E0CE0101960E949404CE0101960E94C9
:100E4000CB0364E873E080E090E00E947C0380E8DC
:100E500092E00E94AE0318861F821A8619861C86AD
:100E60001B8660E972E0CE0107960E948A0485E441
:100E70000E943A03BC01CE0101960E9452044D81AA
:100E80005E8169817A81CE0107960E94FB03CE01C3
:100E900001960E94CB0341E050E069E172E0CE018F
:100EA00007960E94FB031A8219821C821B821E82F3
:100EB0001D826F8178856115710531F04B855C85E8
:100EC000CE0101960E94270460E0CE0101960E94A7
:100ED0009404CE0101960E94CB0364E873E080E0A5
:100EE00090E00E947C03CE0107960E94CB03CE01C6
:100EF0000D960E94CB030E947D0245CFECEAF2E002
:100F00001382128288EE93E0A0E0B0E084839583A0
:100F1000A683B7838AE092E09183808385EC90E09A
:100F20009587848784EC90E09787868780EC90E0B3
:100F3000918B808B81EC90E0938B828B82EC90E0A4
:100F4000958B848B86EC90E0978B868B118E128E1E
:100F5000138E148E0895BB274A3031F4992322F45E
:100F6000BDE2909581959F4F0C94B707BB27FB017D
:100F70005527AA27880F991FAA1FA41710F0A41B92
:100F800083955051B9F7A05DAA3308F0A95DA193EC
:100F9000009779F7B111B1931192CB010C94D0075E
:100FA000DC01FC01672F71917723E1F7329704C0D0
:100FB0007C916D9370836291AE17BF07C8F308955B
:100FC000E89409C097FB3EF49095809570956195E3
:100FD0007F4F8F4F9F4F9923A9F0F92F96E9BB2799
:100FE0009395F695879577956795B795F111F8CF15
:100FF000FAF4BB0F11F460FF1BC06F5F7F4F8F4F80
:101000009F4F16C0882311F096E911C0772321F075
:101010009EE8872F762F05C0662371F096E8862F0D
:1010200070E060E02AF09A95660F771F881FDAF764
:10103000880F9695879597F908950E9430080C942B
:10104000A1080E94930838F00E949A0820F0952386
:1010500011F00C948A080C94900811240C94D50873
:101060000E94B20870F3959FC1F3950F50E0551F91
:10107000629FF001729FBB27F00DB11D639FAA27ED
:10108000F00DB11DAA1F649F6627B00DA11D661F3C
:10109000829F2227B00DA11D621F739FB00DA11D5D
:1010A000621F839FA00D611D221F749F3327A00D17
:1010B000611D231F849F600D211D822F762F6A2FB3
:1010C00011249F5750409AF0F1F088234AF0EE0F18
:1010D000FF1FBB1F661F771F881F91505040A9F745
:1010E0009E3F510580F00C948A080C94D5085F3F10
:1010F000E4F3983ED4F3869577956795B795F79581
:10110000E7959F5FC1F7FE2B880F911D96958795F8
:1011100097F9089597F99F6780E870E060E0089577
:101120009FEF80EC089500240A94161617061806FF
:101130000906089500240A941216130614060506DB
:101140000895092E0394000C11F4882352F0BB0F6C
:1011500040F4BF2B11F460FF04C06F5F7F4F8F4FCF
:101160009F4F089557FD9058440F551F59F05F3F0A
:1011700071F04795880F97FB991F61F09F3F79F0B9
:1011800087950895121613061406551FF2CF46953B
:10119000F1DF08C0161617061806991FF1CF8695BD
:1011A0007105610508940895E894BB2766277727A1
:1011B000CB0197F908950E94E2086894B1110C944C
:1011C000D50808950E94BA0888F09F5798F0B92F63
:1011D0009927B751B0F0E1F0660F771F881F991F6C
:1011E0001AF0BA95C9F714C0B13091F00E94D40832
:1011F000B1E008950C94D408672F782F8827B85F42
:1012000039F0B93FCCF3869577956795B395D9F7C3
:101210003EF490958095709561957F4F8F4F9F4FCD
:101220000895EE0FFF1F881F8BBF0790F691E02DEA
:1012300019940F931F93CF93DF938230910510F48D
:1012400082E090E0E0914B03F0914C0330E020E02D
:10125000B0E0A0E0309799F42115310509F44AC0B7
:10126000281B390B24303105D8F58A819B81611503
:10127000710589F1FB0193838283FE0111C04081D6
:1012800051810281138148175907E0F04817590727
:1012900099F4109761F012960C93129713961C9381
:1012A0003296CF01DF91CF911F910F910895009356
:1012B0004B0310934C03F4CF2115310551F0421725
:1012C000530738F0A901DB019A01BD01DF01F801E4
:1012D000C1CFEF01F9CF90934C0380934B03CDCF57
:1012E000FE01E20FF31F819391932250310939835C
:1012F0002883D7CF2091490330914A03232B41F40F
:10130000209102023091030230934A032093490353
:1013100020910002309101022115310541F42DB7D1
:101320003EB74091040250910502241B350BE09119
:101330004903F0914A03E217F307A0F42E1B3F0B79
:101340002817390778F0AC014E5F5F4F2417350737
:1013500048F04E0F5F1F50934A0340934903819317
:1013600091939FCFF0E0E0E09CCFCF93DF93009785
:10137000E9F0FC01329713821282A0914B03B091E5
:101380004C03ED0130E020E01097A1F42081318181
:10139000820F931F2091490330914A032817390780
:1013A00009F061C0F0934A03E0934903DF91CF91C4
:1013B0000895EA01CE17DF07E8F54A815B819E01B7
:1013C00041155105B1F7E901FB83EA834991599130
:1013D000C40FD51FEC17FD0761F48081918102963F
:1013E000840F951FE90199838883828193819B8370
:1013F0008A83F0E0E0E012968D919C91139700971C
:10140000B9F52D913C911197CD010296820F931F52
:101410002091490330914A032817390739F630974C
:1014200051F510924C0310924B03B0934A03A093D2
:101430004903BCCFD383C28340815181840F951F60
:10144000C817D90761F44E5F5F4F88819981480FB3
:10145000591F518340838A819B8193838283211505
:10146000310509F0B0CFF0934C03E0934B039ECFCE
:10147000FD01DC01C0CF13821282D7CF4F925F9261
:101480006F927F928F929F92AF92BF92CF92DF9294
:10149000EF92FF920F931F93CF93DF938C010097EE
:1014A00099F4CB01DF91CF911F910F91FF90EF90B5
:1014B000DF90CF90BF90AF909F908F907F906F9074
:1014C0005F904F900C941909FC01E60FF71F9C01E7
:1014D00022503109E217F30708F4AEC0D901CD91CB
:1014E000DC911197C617D70720F1C530D10578F0E8
:1014F000CE0104978617970750F0C61BD70B22978B
:10150000C193D1936D937C93CF010E94B509C8011B
:10151000DF91CF911F910F91FF90EF90DF90CF90CF
:10152000BF90AF909F908F907F906F905F904F9003
:1015300008955B01AC1ABD0A4C018C0E9D1EA09152
:101540004B03B0914C03512C412CF12CE12C109702
:1015500031F58091490390914A038815990509F066
:101560005CC04616570608F058C080910002909162
:101570000102009741F48DB79EB74091040250914B
:101580000502841B950BE817F90708F055C0F09386
:101590004A03E0934903F90171836083B8CF8D91C9
:1015A0009C91119712966C90129713967C901397BA
:1015B000A815B90559F56C0142E0C40ED11CCA1436
:1015C000DB0420F1AC014A195B09DA011296159788
:1015D00080F06282738251834083D9016D937C9342
:1015E000E114F10471F0D7011396FC93EE93129776
:1015F0008ECF22968C0F9D1FF90191838083F3017A
:10160000EFCFF0934C03E0934B0381CF481659067C
:1016100008F42C017D01D3019ACFCB010E94190956
:101620007C01009749F0AE01B8010E941F0BC80170
:101630000E94B50987016BCF10E000E068CFFB0185
:10164000DC0102C001900D9241505040D8F708953E
:10165000FB01DC0101900D920020E1F70895F89460
:02166000FFCFBA
:1016620000004D0380000000000010027A01A70173
:101672005D02D801B601CA010D0A0073656E646984
:101682006E672068656C6C6F20746F20736C617676
:101692006520300048656C6C6F2C20576F726C644B
:1016A200210A0073656E64696E672068656C6C6FF1
:1016B20020746F20736C61766520310048690A00DE
:1016C2005265706F7274696E672054656D706572D1
:1016D20061747572650054656D702069733A2000FB
:1016E2005265706F7274696E67204C696768740026
:1016F2004C696768742076616C75652069733A205D
:021702000000E5
:00000001FF
