:100000000C9438010C9469010C9469010C946901F9
:100010000C9469010C9469010C9469010C946901B8
:100020000C9469010C9469010C9469010C946901A8
:100030000C9469010C9469010C9469010C94690198
:100040000C9469010C9469010C9469010C94690188
:100050000C9469010C9469010C9469010C94490594
:100060000C9469010C9469010C9469010C94690168
:100070000C9469010C9469010C9469010C94690158
:100080000C9469010C9469010C9469010C94690148
:100090000C9469010C9469010C9469010C94690138
:1000A0000C9469010C9469010C9469010C94690128
:1000B0000C9469010C9469010C9469010C94690118
:1000C0000C9469010C9469010C9469010C94690108
:1000D0000C9469010C9469010C9469010C946901F8
:1000E0000C9469010C9420090C947F020C94350344
:1000F0000C9464020C9458020C9485020C945C02DB
:100100000C947B020C94BE090C946D020C94890231
:100110000C94C4020C9452020C94E8040C94FE015A
:100120000C9491030C9490030C9471020C94930220
:100130000C948D020C9497020C9477020C94670235
:100140000C9492020C9460020C94F50200002100C1
:10015000240027002A002D00300033000101000098
:10016000040107010A0100002200250028002B00DD
:100170002E003100340002010000050108010B01CE
:10018000000020002300260029002C002F00320050
:100190000001000003010601090105050505070529
:1001A00008080808020202020A0A080804040404F3
:1001B000010101010101010103030303030303031F
:1001C000040707070C0C0C0C0C0C0C0C02020202AE
:1001D00006060606060606060B0B0B0B0B0B0B0B97
:1001E0000102102020080810204010204080020149
:1001F000020108040201010204081020408080402E
:10020000201008040201800402018040201008042C
:1002100002010804020101020408102040800102CA
:1002200004081020408000000A0B02090C0D0E0883
:1002300007030401000000000000000000000000AF
:1002400000000000000000000000000000000000AE
:10025000000012111000000000000000000000006B
:100260000000000000000000000000002009BE099E
:1002700011241FBECFEFD1E2DEBFCDBF00E00CBF27
:1002800023E0A4E6B2E001C01D92AB30B207E1F773
:1002900012E0A0E0B2E0E8EBF8E100E00BBF02C042
:1002A00007900D92A436B107D9F711E0C7E3D1E06A
:1002B00000E006C021970109802FFE010E940F0A6D
:1002C000C633D10780E00807A9F70E9493050C9474
:1002D0004A0C0C94000096E0899FD0011124A0588C
:1002E000BD4F90967C936E935F9791E091969C930F
:1002F0009197E091ED02F091EE029091EC0299233A
:1003000039F0309751F0811108C080919C02199406
:10031000309719F05C968C91FACF0895CF92DF92C6
:10032000EF92FF920F931F9396E0899FF0011124A3
:10033000E058FD4F11A2278D30A12130310551F138
:1003400078F02230310509F451C02330310509F429
:1003500052C01F910F91FF90EF90DF90CF900895C2
:100360006623B9F361E070E00E946B012FB7F89447
:1003700080917C0290917D02A0917E02B0917F02DB
:100380002FBF8093D8029093D902A093DA02B09342
:10039000DB02DFCF9FB7F894C0907C02D0907D0243
:1003A000E0907E02F0907F029FBF0091D8021091F2
:1003B000D9022091DA023091DB02C01AD10AE20A96
:1003C000F30A0091EA021091EB0230E020E00C15F4
:1003D0001D052E053F0550F462E070E01F910F915E
:1003E000FF90EF90DF90CF900C946B016111B1CF33
:1003F00063E070E0F3CF70E060E0F0CFAF92BF92C7
:10040000CF92DF92EF92FF920F931F93CF93DF93E0
:100410006C017B018B01040F151FEB015E01AE180F
:10042000BF08C017D10759F06991D601ED91FC9131
:100430000190F081E02DC6011995892B79F7C5014E
:10044000DF91CF911F910F91FF90EF90DF90CF90B0
:10045000BF90AF900895FC01448155816081718106
:100460008FEE92E00C94FE018150823108F05AC068
:10047000E82FF0E08827E05CFD4F8F4F0C940F0AC7
:1004800060026402520258025C02920267026D022C
:10049000710277027B027F028502890292028D023D
:1004A00093029702809180008F7780938000089557
:1004B000809180008F7DF9CF80918000877FF5CF7C
:1004C00084B58F7784BD089584B58F7DFBCF8091EF
:1004D000B0008F778093B00008958091B0008F7D39
:1004E000F9CF809190008F7780939000089580914C
:1004F00090008F7DF9CF80919000877FF5CF80911C
:10050000A0008F778093A00008958091A0008F7D38
:10051000F9CF8091A000877FF5CF809120018F7760
:10052000809320010895809120018F7DF9CF8091E3
:100530002001877FF5CFCF93DF93282F30E0F9019B
:10054000EA5DFD4F8491F901E052FE4FD491F9012B
:10055000E656FE4FC491CC23A1F081110E943402D3
:10056000EC2FF0E0EE0FFF1FE058FE4FA591B49185
:10057000EC91ED2381E090E009F480E0DF91CF91F0
:10058000089580E090E0FACF862F0C949B021F9391
:10059000CF93DF93282F30E0F901EA5DFD4F84917E
:1005A000F901E052FE4FD491F901E656FE4FC49195
:1005B000CC23A9F0162F81110E943402EC2FF0E019
:1005C000EE0FFF1FEA59FE4FA591B4918FB7F89433
:1005D000EC91111108C0D095DE23DC938FBFDF9121
:1005E000CF911F910895DE2BF8CF862F642F0C94A6
:1005F000C702CF93DF9390E0FC01E052FE4F2491BD
:1006000086569E4FFC0184918823C9F090E0880FA4
:10061000991FFC01E45BFE4FA591B491FC01EA59DE
:10062000FE4FC591D49161110DC09FB7F8948C9184
:10063000209582238C938881282328839FBFDF9174
:10064000CF910895623051F49FB7F8943C91822F76
:10065000809583238C93E8812E2BEFCF8FB7F8946E
:10066000EC912E2B2C938FBFEACF862F642F0C9406
:10067000F9023FB7F8948091650290916602A091CB
:100680006702B091680226B5A89B05C02F3F19F0FC
:100690000196A11DB11D3FBFBA2FA92F982F882702
:1006A000BC01CD01620F711D811D911D42E0660FDD
:1006B000771F881F991F4A95D1F708958F929F92AF
:1006C000AF92BF92CF92DF92EF92FF924B015C010B
:1006D0000E9439036B017C010E9439036C197D096A
:1006E0008E099F09683E734081059105A8F321E0BA
:1006F000821A9108A108B10888EEC80E83E0D81EBE
:10070000E11CF11C81149104A104B10429F7FF90AC
:10071000EF90DF90CF90BF90AF909F908F90089513
:10072000089590E080E00895CF93DF93EC0160E0BE
:100730008E810E94C70261E08E810E94C70260E044
:100740008E810E94C7028BE891E00197F1F7DF915B
:10075000CF910895CF92DF92EF92FF920F931F9364
:10076000CF93DF936C017C0187E0E80EF11CD0E0B1
:10077000C0E0062F10E0B8010C2E02C075956795F9
:100780000A94E2F76170F70181917F010E94C7022C
:100790002196C430D10579F7C601DF91CF911F9121
:1007A0000F91FF90EF90DF90CF900C949403CF9235
:1007B000DF92EF92FF920F931F93CF93DF93EC01A1
:1007C000F62E642F8C810E94C7028D818F3F19F015
:1007D00060E00E94C7020F2D10E08F8584FF25C0C6
:1007E0006E0187E0C80ED11CF12CE12CB8010E2C53
:1007F00002C0759567950A94E2F76170F6018191E0
:100800006F010E94C702FFEFEF1AFF0A88E0E816A7
:10081000F10461F7CE01DF91CF911F910F91FF900D
:10082000EF90DF90CF900C949403B80184E075951D
:1008300067958A95E1F7CE010E94AA036F2DCE013C
:10084000DF91CF911F910F91FF90EF90DF90CF90AC
:100850000C94AA0340E0682F8FEE92E00C94D7032B
:1008600081E00E942A048BE39FE10197F1F708954C
:10087000CF93DF93823029F49091FE029860909399
:10088000FE02809302031092030380E4809304032A
:1008900080E18093050380E58093060361E0809109
:1008A000F3020E94F9028091F4028F3F19F061E097
:1008B0000E94F90261E08091F5020E94F902CFEEF8
:1008C000D2E09E012F5E32408091FE0284FD0BC07B
:1008D00084E090E021962817390744F461E08E8186
:1008E0000E94F902EECF88E090E0F4CF8BE39DE028
:1008F0000197F1F760E08091F3020E94C70260E087
:100900008091F5020E94C7028091F4028F3F19F096
:1009100060E00E94C7028091FE0284FD34C063E063
:100920008FEE92E00E94AA03CBE4D6E4CE010197B9
:10093000F1F763E08FEE92E00E94AA032197F1F7AE
:1009400063E08FEE92E00E94AA0383E592E00197B4
:10095000F1F762E08FEE92E00E94AA038091FE021E
:1009600080620E942A0484E08093FF028CE00E944F
:100970002A040E94300482E08093000386E0DF9125
:10098000CF910C942A0480620E942A048BE496E49E
:100990000197F1F78091FE0280620E942A0483E5AC
:1009A00092E00197F1F78091FE0280620E942A0492
:1009B000D5CF90910203691710F06FEF690FE62F02
:1009C000F0E0E151FD4F9489890F80680C942A046E
:1009D00041E00E94D70381E090E00895FC0180810E
:1009E0009181009711F00C94C70A08950F931F93FB
:1009F000CF93DF93EC0188819981009759F02A8188
:100A00003B812617370730F081E0DF91CF911F91AE
:100A10000F9108958B016F5F7F4F0E94500B0097DD
:100A200059F0998388831B830A832C813D81232B72
:100A300059F7FC011082E8CF80E0E7CFEF92FF92F8
:100A40000F931F93CF93DF93EC017B018A01BA01CF
:100A50000E94F60428813981811114C021153105C5
:100A600019F0C9010E94C70A198218821D821C82CE
:100A70001B821A82CE01DF91CF911F910F91FF90BF
:100A8000EF9008951D830C83B701C9010E94430CA8
:100A9000F1CF1F920F920FB60F9211242F933F9315
:100AA0008F939F93AF93BF9380917C0290917D022F
:100AB000A0917E02B0917F023091640223E0230F67
:100AC0002D3758F50196A11DB11D20936402809326
:100AD0007C0290937D02A0937E02B0937F0280916E
:100AE000650290916602A0916702B091680201963A
:100AF000A11DB11D8093650290936602A0936702C9
:100B0000B0936802BF91AF919F918F913F912F91C8
:100B10000F900FBE0F901F90189526E8230F029696
:100B2000A11DB11DD2CFCF93DF93CDB7DEB76897AC
:100B30000FB6F894DEBF0FBECDBF789484B5826047
:100B400084BD84B5816084BD85B5826085BD85B571
:100B5000816085BD80916E00816080936E001092EF
:100B6000810080918100826080938100809181006A
:100B700081608093810080918000816080938000FB
:100B80008091B10084608093B1008091B000816059
:100B90008093B00080919100826080939100809159
:100BA000910081608093910080919000816080939A
:100BB00090008091A10082608093A1008091A100AB
:100BC00081608093A1008091A00081608093A0004B
:100BD00080912101826080932101809121018160B7
:100BE0008093210180912001816080932001809178
:100BF0007A00846080937A0080917A00826080938A
:100C00007A0080917A00816080937A0080917A00E6
:100C1000806880937A001092C10082E00E943804BC
:100C2000E2E0EE2EF12C10E00E94300460E0812F13
:100C30000E94D90489E692E00E942B0261E080EFD5
:100C4000810F0E94D90489E692E00E942B0260E0A5
:100C500080EE810F0E94D90489E692E00E942B0267
:100C600064EF71E080E090E00E945E031F5F10324D
:100C7000D9F6EA94EF2809F043C00E9430042224F8
:100C80002A94322CCE0101967C016090350270903E
:100C9000360281E08093EC028FB7F89440917C0299
:100CA00050917D0260917E0270917F028FBF809192
:100CB000DC029091DD02A091DE02B091DF02481BC0
:100CC000590B6A0B7B0B8091E8029091E902B0E02E
:100CD000A0E084179507A607B70708F022C110E027
:100CE0008091E602181780F4E091E202F091E302AD
:100CF000E10FF11D62E080810E94F9021F5FF0CFD9
:100D0000EE24E394F12C8FCF512C8091E7025816FA
:100D100008F063C0C52CD12CE091E402F091E5020B
:100D2000EC0DFD1D61E080810E94F902E091E4027A
:100D3000F091E502EC0DFD1D60E080810E94C7028C
:100D400081E090E0A0E0B0E0052C04C0880F991F7E
:100D5000AA1FBB1F0A94D2F74C015C01A094B09467
:100D6000412C8091E602481608F5042D10E0E09130
:100D7000E202F091E302E00FF11F80810E949B02EA
:100D80000C5F1F4F000F111FF801E058FD4F892B1A
:100D900041F48081918188299929918380834394AA
:100DA000E0CF808191818A219B21F7CFE091E402FD
:100DB000F091E502EC0DFD1D61E080810E94C7020B
:100DC0008091E4029091E502C80ED91E60E0F60120
:100DD00080810E94F902539498CF40E8C42E42E0EB
:100DE000D42E8601F801878D90A1892B21F4148ED1
:100DF000368E258E11A20A5F1F4FF2E00C3B1F07B3
:100E000089F7B12C8091E602B81608F053C0A12CE6
:100E10008B2C912C880C991CC40188579D4F4C0138
:100E20002091E702A21608F043C0F40160817181AD
:100E30000A2C02C0769567950A94E2F7B29E90015B
:100E400011242A0D311DE0E8F2E080E0458D568D39
:100E50002417350709F4B8C18F5F36968A30B1F789
:100E600060FF24C0E0E8F2E090E080E0448D4111B2
:100E700018C0E091E002F091E102E20FF31F40811F
:100E800056E0589FF001599FF00D1124E058FD4F96
:100E9000448F368F258F10A2178E61E00E948E013D
:100EA00005C0019636968A30910501F7A394B8CF14
:100EB000B394A8CF80E0F60191A19111892FF6E0BB
:100EC000CF0ED11C0C151D05B1F79FB7F8944091BA
:100ED0007C0250917D0260917E0270917F029FBFE3
:100EE0004093DC025093DD026093DE027093DF02D8
:100EF0008823B9F0C090A102CC2099F000919F0204
:100F00001091A0020130110561F4D0909C02D11023
:100F10000BC080E090E0892B09F4BBCE0E9400005A
:100F2000B8CE1092EC02F5CF80917B02811191C076
:100F300080911802882381F010921802809100039A
:100F40008E7F8093000384600E942A040E943004F4
:100F500060E086E00E94D9040091790210917A0243
:100F60005AE2D51254C0012B39F5F3016114710412
:100F700059F5C1102CC061E080E00E94D90450E016
:100F800040E067E472E085E792E00E941E0540E1E0
:100F900050E067E372E08FEE92E00E94FE0168EBA2
:100FA0007BE080E090E00E945E030E94300460E0FD
:100FB00086E00E94D904ADCF8091750290917602AF
:100FC00061147104F1F4FC0180818111D4CF81E0BE
:100FD00080937B0261E080E00E94D90440E150E010
:100FE00068E472E08FEE92E00E94FE0168EB7BE025
:100FF00080E090E00E945E030E94300460E080E0A8
:10100000D8CFB3010E943A0C892B09F3B4CFD9820F
:101010001A820F5F1F4FB80185E792E00E94F60425
:10102000882389F0209175023091760280917902AF
:1010300090917A02B701820F931F0E94430C109384
:101040007A02009379026D2D8FEE92E00E94E804FF
:1010500060CFF3E6DF120DC010927402109273029B
:1010600010927202109271021092700210926F022E
:10107000C3CF5DE3D51609F4A9C041E06D2D8FEE15
:1010800092E00E94D7038BE2D81671F18D15FCF027
:101090009AE2D91689F12D2DDD0C330B8091730264
:1010A00090917402892B09F07DC040916F0250919C
:1010B00070026AE0649FC001659F900D1124820F49
:1010C000931FC0979093700280936F0222CFEDE23E
:1010D000DE1679F0FFE284E090E0DF12DCCF90933F
:1010E00074028093730215CF1093740200937302FD
:1010F00010CF82E090E0F3CF83E090E0F0CF00915A
:101100006F02109170028091710290917202081B1F
:10111000190B72C020916F023091700280917102A0
:1011200090917202289F8001299F100D389F100D09
:10113000112462C080E190E0821B930B97FD019621
:101140009595879561E00E94D9041C8A1B8A1E8AA6
:101150001D8A188E1F8A4AE0B701C8010E94C6097D
:10116000F70101900020E9F73197AF014E195F09AF
:10117000B701CE0143960E941E05CE0143960E9400
:101180002B02CE0143960E94EE041093700200934E
:101190006F021092720210927102109274021092F9
:1011A00073022CCF40917102509172026AE0649FE9
:1011B000C001659F900D1124820F931FC0979093DB
:1011C000720280937102A5CE617068CE8091730225
:1011D000909174028230910509F491CFF4F4019753
:1011E00009F097CE00916F02109170028091710208
:1011F00090917202080F191F0E943004C80130E05C
:1012000020E0181619060CF095CF6AE070E00E94F5
:10121000FB09CB012F5F3F4FF4CF8330910509F4D9
:1012200079CF049709F075CE80916F02909170028A
:1012300060917102709172020E94FB098B01DCCFF8
:1012400010928202109286021092850210928702FA
:101250008FE292E09093810280938002ECE9F2E0C9
:101260001082148213821582369682E0E83DF807D8
:10127000B9F784E092E09093E3028093E20280E089
:1012800092E09093E5028093E40284E08093E6028A
:101290008093E70288E092E09093E1028093E0027D
:1012A0008AE090E09093E9028093E80284EF91E075
:1012B0009093EB028093EA021092EE021092ED02FC
:1012C0001092DC021092DD021092DE021092DF0218
:1012D0001092EC021092F2021092F10283E292E07C
:1012E0009093F0028093EF028DE08093F3028FEFF2
:1012F0008093F4028CE08093F50288E08093F602FC
:1013000089E08093F7028AE08093F8028BE0809373
:10131000F9021092FA021092FB021092FC02109253
:10132000FD021092FE0281E00E94380410926A02CF
:101330001092690210926C0210926B0210926E026F
:1013400010926D0245E050E069E572E089E692E0B6
:101350000E941E0510927602109275021092780279
:101360001092770210927A021092790250E040E0D7
:1013700067E472E085E792E00C941E0585E792E051
:101380000E94EE0489E692E00C94EE04BB274A30FA
:1013900031F4992322F4BDE2909581959F4F0C94EE
:1013A000D209BB27FB015527AA27880F991FAA1F1F
:1013B000A41710F0A41B83955051B9F7A05DAA3370
:1013C00008F0A95DA193009779F7B111B19311923B
:1013D000CB010C94EB09DC01FC01672F71917723A1
:1013E000E1F7329704C07C916D9370836291AE17E0
:1013F000BF07C8F3089597FB072E16F4009407D093
:1014000077FD09D00E94170A07FC05D03EF490959D
:1014100081959F4F0895709561957F4F0895EE0FC8
:10142000FF1F881F8BBF0790F691E02D1994AA1B10
:10143000BB1B51E107C0AA1FBB1FA617B70710F0BF
:10144000A61BB70B881F991F5A95A9F780959095F1
:10145000BC01CD0108950F931F93CF93DF9382308A
:10146000910510F482E090E0E0910903F0910A0305
:1014700030E020E0B0E0A0E0309799F4211531058C
:1014800009F44AC0281B390B24303105D8F58A816C
:101490009B816115710589F1FB0193838283FE01B4
:1014A00011C0408151810281138148175907E0F032
:1014B0004817590799F4109761F012960C931297F8
:1014C00013961C933296CF01DF91CF911F910F910C
:1014D00008950093090310930A03F4CF21153105F1
:1014E00051F04217530738F0A901DB019A01BD0101
:1014F000DF01F801C1CFEF01F9CF90930A03809388
:101500000903CDCFFE01E20FF31F81939193225087
:10151000310939832883D7CF2091070330910803FD
:10152000232B41F420911B0230911C0230930803BD
:10153000209307032091190230911A0221153105D9
:1015400041F42DB73EB740911D0250911E02241B5D
:10155000350BE0910703F0910803E217F307A0F4BD
:101560002E1B3F0B2817390778F0AC014E5F5F4FF9
:101570002417350748F04E0F5F1F50930803409320
:101580000703819391939FCFF0E0E0E09CCFCF934E
:10159000DF930097E9F0FC01329713821282A09149
:1015A0000903B0910A03ED0130E020E01097A1F4A7
:1015B00020813181820F931F20910703309108030E
:1015C0002817390709F061C0F0930803E093070377
:1015D000DF91CF910895EA01CE17DF07E8F54A8140
:1015E0005B819E0141155105B1F7E901FB83EA8357
:1015F00049915991C40FD51FEC17FD0761F4808103
:1016000091810296840F951FE901998388838281D5
:1016100093819B838A83F0E0E0E012968D919C9108
:1016200013970097B9F52D913C911197CD01029632
:10163000820F931F20910703309108032817390761
:1016400039F6309751F510920A0310920903B093BE
:101650000803A0930703BCCFD383C2834081518189
:10166000840F951FC817D90761F44E5F5F4F8881BB
:101670009981480F591F518340838A819B819383AD
:1016800082832115310509F0B0CFF0930A03E0936E
:1016900009039ECFFD01DC01C0CF13821282D7CF98
:1016A0004F925F926F927F928F929F92AF92BF9272
:1016B000CF92DF92EF92FF920F931F93CF93DF931E
:1016C0008C01009799F4CB01DF91CF911F910F917D
:1016D000FF90EF90DF90CF90BF90AF909F908F9052
:1016E0007F906F905F904F900C942B0AFC01E60F57
:1016F000F71F9C0122503109E217F30708F4AEC02E
:10170000D901CD91DC911197C617D70720F1C530CB
:10171000D10578F0CE0104978617970750F0C61BC5
:10172000D70B2297C193D1936D937C93CF010E94E5
:10173000C70AC801DF91CF911F910F91FF90EF90E1
:10174000DF90CF90BF90AF909F908F907F906F90E1
:101750005F904F9008955B01AC1ABD0A4C018C0E4E
:101760009D1EA0910903B0910A03512C412CF12C2C
:10177000E12C109731F580910703909108038815AB
:10178000990509F05CC04616570608F058C08091CC
:10179000190290911A02009741F48DB79EB74091BB
:1017A0001D0250911E02841B950BE817F90708F0E3
:1017B00055C0F0930803E0930703F9017183608338
:1017C000B8CF8D919C91119712966C9012971396A9
:1017D0007C901397A815B90559F56C0142E0C40E29
:1017E000D11CCA14DB0420F1AC014A195B09DA01EF
:1017F0001296159780F06282738251834083D901DB
:101800006D937C93E114F10471F0D7011396FC936E
:10181000EE9312978ECF22968C0F9D1FF901918324
:101820008083F301EFCFF0930A03E093090381CFA4
:101830004816590608F42C017D01D3019ACFCB013B
:101840000E942B0A7C01009749F0AE01B8010E946A
:10185000310CC8010E94C70A87016BCF10E000E07D
:1018600068CFFB01DC0102C001900D924150504055
:10187000D8F70895FB01DC018D91019080190110CA
:10188000D9F3990B0895FB01DC0101900D92002022
:10189000E1F7089511E0C7E3D1E000E006C0802F32
:1018A000FE010E940F0A2196011DC833D10780E076
:0818B0000807A9F7F894FFCF27
:1018B80019181716323334353738392F3435362A54
:1018C8003132332D63303D2B0100000B03800000C3
:1018D800000000E804FE01910390030000000035B9
:1018E80003F502C4025F0257726F6E67207061735E
:1018F80073776F7264212100436F7272656374207D
:1019080070617373776F72640053616D616E00313B
:041918003233340032
:00000001FF
