:100000000C9445010C9476010C9476010C947601C5
:100010000C9476010C9476010C9476010C94760184
:100020000C9476010C9476010C9476010C94760174
:100030000C9476010C94370C0C9476010C94760198
:100040000C9476010C940A0E0C9476010C947601B3
:100050000C9476010C9476010C9476010C94360D78
:100060000C9476010C9476010C9476010C94760134
:100070000C9476010C9476010C9476010C94760124
:100080000C94DC0D0C9476010C9476010C947601A2
:100090000C9476010C9476010C9476010C94760104
:1000A0000C9476010C9476010C94AE0D0C947601B0
:1000B0000C9476010C9476010C9476010C94800DCE
:1000C0000C9476010C9476010C9476010C94000D3E
:1000D0000C94D60C0C9476010C9476010C94760159
:1000E0000C9476010C94F0020C949F030C9442043F
:1000F0000C9484030C94A4030C94380E0C94710398
:100100000C94A0030C9499120C947E030C940C0292
:100110000C94D1030C9488030C948C030C943A0235
:100120000C946B020C945F030C9465030C94020412
:100130000C9474030C9469030C949A030C940D02B0
:100140000C9492030C9449020C9481060C94B20A0C
:100150000C9496030C947A030C945D020C946D033A
:100160000C94A30200002100240027002A002D0087
:100170003000330001010000040107010A01000002
:100180002200250028002B002E003100340002013F
:100190000000050108010B010000200023002600DB
:1001A00029002C002F00320000010000030106018D
:1001B00009010505050507050808080802020202ED
:1001C0000A0A0808040404040101010101010101F3
:1001D0000303030303030303040707070C0C0C0CBE
:1001E0000C0C0C0C020202020606060606060606A7
:1001F0000B0B0B0B0B0B0B0B010210202008081034
:100200002040102040800201020108040201010286
:10021000040810204080804020100804020180045F
:1002200002018040201008040201080402010102BA
:1002300004081020408001020408102040800000C3
:100240000A0B02090C0D0E08070304010000000050
:10025000000000000000000000000000000000009E
:10026000000000000000000000001211100000005B
:10027000000000000000000000000000000000007E
:10028000000000000200380E991211241FBECFEFAB
:10029000D1E2DEBFCDBF00E00CBF13E0A0E0B2E0D2
:1002A000E4E1FBE200E00BBF02C007900D92AA322E
:1002B000B107D9F725E0AAE2B3E001C01D92A0334F
:1002C000B207E1F711E0C4E4D1E000E006C02197F5
:1002D0000109802FFE010E944A13C334D10780E038
:1002E0000807A9F70E94220F0C9478150C940000BF
:1002F0008F929F92AF92BF92FF920F931F93CF93D3
:10030000DF938F3F980709F461C0853B910511F495
:1003100084EB90E0F090A2042FE22F1508F44CC07B
:100320002091A40408E512E0021B110927FD139592
:10033000000F111F000F111F2091A304C8E8D0E087
:10034000C21BD10927FDD395CC0FDD1FCC0FDD1FBC
:100350004E010D2E000CAA08BB089801012E000CBE
:10036000440B550B281939094A095B09DC010E9425
:10037000051324EB30E040E050E00E94DB12820ED7
:10038000931EA41EB51E8C169D062CF0E801801647
:1003900091060CF4E4012297CC0FDD1F2FB7F894DF
:1003A0008F2D90E0FC01EE0FFF1FE80FF91FE750C3
:1003B000FC4FD283C1832FBFDF91CF911F910F914B
:1003C000FF90BF90AF909F908F90089590E080E055
:1003D000A1CF96E0899FD0011124AB55BB4F9096D9
:1003E0007C936E935F9791E091969C939197E091A7
:1003F0001205F091130590911105992339F030976A
:1004000051F0811108C08091C1041994309719F0FE
:100410005C968C91FACF08950895AF92BF92CF92D7
:10042000DF92EF92FF920F931F93CF93DF936C01B4
:100430007B018B01040F151FEB015E01AE18BF0895
:10044000C017D10759F06991D601ED91FC91019047
:10045000F081E02DC6011995892B79F7C501DF914F
:10046000CF911F910F91FF90EF90DF90CF90BF90B1
:10047000AF900895FC01538D448D252F30E0842FDB
:1004800090E0821B930B541710F0CF9608950197BC
:100490000895FC01918D828D981761F0A28DAE0FA9
:1004A000BF2FB11D5D968C91928D9F5F9F73928F30
:1004B00090E008958FEF9FEF0895FC01918D828D5C
:1004C000981731F0828DE80FF11D858D90E0089529
:1004D0008FEF9FEF0895FC01918D228D892F90E081
:1004E000805C9F4F821B91098F73992708958CE53B
:1004F00093E00E946B0221E0892B09F420E0822F17
:100500000895FC01A48DA80FB92FB11DA35ABF4FA8
:100510002C91848D90E001968F739927848FA68902
:10052000B7892C93A089B1898C91837080648C9356
:10053000938D848D981306C00288F389E02D808105
:100540008F7D80830895EF92FF920F931F93CF9337
:10055000DF93EC0181E0888F9B8D8C8D98131AC0FE
:10056000E889F989808185FF15C09FB7F894EE89E5
:10057000FF896083E889F989808183708064808342
:100580009FBF81E090E0DF91CF911F910F91FF908D
:10059000EF900895F62E0B8D10E00F5F1F4F0F7335
:1005A0001127E02E8C8D8E110CC00FB607FCFACFF0
:1005B000E889F989808185FFF5CFCE010E9481020B
:1005C000F1CFEB8DEC0FFD2FF11DE35AFF4FF082C1
:1005D0009FB7F8940B8FEA89FB8980818062CFCF27
:1005E000CF93DF93EC01888D8823B9F0AA89BB896A
:1005F000E889F9898C9185FD03C0808186FD0DC055
:100600000FB607FCF7CF8C9185FFF2CF808185FF75
:10061000EDCFCE010E948102E9CFDF91CF91089505
:1006200080E090E0892B49F080E090E0892B29F070
:100630000E94000081110E94000080E090E0892B60
:1006400049F080E090E0892B29F00E9400008111A0
:100650000E94000080E090E0892B29F00E94770240
:1006600081110E94000080E090E0892B49F080E039
:1006700090E0892B29F00E94000081110C94000069
:1006800008958150823108F05AC0E82FF0E08827A1
:10069000E35BFC4F8F4F0C944A136D0371035F03B0
:1006A000650369039F0374037A037E03840388034D
:1006B0008C03920396039F039A03A003A4038091E3
:1006C00080008F77809380000895809180008F7DD7
:1006D000F9CF80918000877FF5CF84B58F7784BD77
:1006E000089584B58F7DFBCF8091B0008F77809384
:1006F000B00008958091B0008F7DF9CF8091900077
:100700008F77809390000895809190008F7DF9CF2E
:1007100080919000877FF5CF8091A0008F778093A4
:10072000A00008958091A0008F7DF9CF8091A00056
:10073000877FF5CF809120018F77809320010895E6
:10074000809120018F7DF9CF80912001877FF5CFA7
:10075000CF93DF93282F30E0F901E25CFD4F8491C5
:10076000F901E850FE4FD491F901EE54FE4FC491C7
:10077000CC23A1F081110E944103EC2FF0E0EE0F99
:10078000FF1FE856FE4FA591B491EC91ED2381E057
:1007900090E009F480E0DF91CF91089580E090E04F
:1007A000FACF862F0C94A8031F93CF93DF93282FA3
:1007B00030E0F901E25CFD4F8491F901E850FE4F11
:1007C000D491F901EE54FE4FC491CC23A9F0162F19
:1007D00081110E944103EC2FF0E0EE0FFF1FE25861
:1007E000FE4FA591B4918FB7F894EC91111108C008
:1007F000D095DE23DC938FBFDF91CF911F910895B9
:10080000DE2BF8CF862F642F0C94D403CF93DF9385
:1008100090E0FC01E850FE4F24918E549E4FFC0165
:1008200084918823C9F090E0880F991FFC01EC594E
:10083000FE4FA591B491FC01E258FE4FC591D491B1
:1008400061110DC09FB7F8948C91209582238C93F1
:100850008881282328839FBFDF91CF91089562303C
:1008600051F49FB7F8943C91822F809583238C9309
:10087000E8812E2BEFCF8FB7F894EC912E2B2C9391
:100880008FBFEACF862F642F0C9406043FB7F894ED
:1008900080914C0390914D03A0914E03B0914F0372
:1008A00026B5A89B05C02F3F19F00196A11DB11DCB
:1008B0003FBFBA2FA92F982F8827BC01CD01620F07
:1008C000711D811D911D42E0660F771F881F991FC2
:1008D0004A95D1F708958F929F92AF92BF92CF928F
:1008E000DF92EF92FF920E9446044B015C0185E08B
:1008F000C82ED12CE12CF12C0E94460468197909EC
:100900008A099B09683E734081059105A8F321E09F
:10091000C21AD108E108F10888EE880E83E0981E1B
:10092000A11CB11CC114D104E104F10429F7FF900A
:10093000EF90DF90CF90BF90AF909F908F900895F1
:100940002FB7F894609148037091490380914A034E
:1009500090914B032FBF08950F931F93CF93DF9375
:10096000C82FD62F86E0C89FF0011124EB55FB4F0E
:1009700011A2878D90A181309105F1F058F082305D
:100980009105F1F1039709F440C0DF91CF911F91D8
:100990000F9108956623C9F361E070E08C2F0E94E7
:1009A000E9010E94A0046093FD047093FE0480930B
:1009B000FF0490930005E9CF0E94A0040091FD047C
:1009C0001091FE042091FF0430910005AB01BC01A1
:1009D000401B510B620B730B80910F05909110051A
:1009E000B0E0A0E084179507A607B70748F462E0D7
:1009F00070E08C2FDF91CF911F910F910C94E90142
:100A000063E070E0D111C1CFF4CF70E060E0F1CFCE
:100A10006F927F928F929F92AF92BF92CF92DF920E
:100A2000EF92FF920F931F93CF93DF9381E0809318
:100A300011050E94A004009101051091020520916A
:100A4000030530910405AB01BC01401B510B620B47
:100A5000730B80910D0590910E05B0E0A0E0841716
:100A60009507A607B70708F014C1C0E080910B05F1
:100A7000C81760F4E0910705F0910805EC0FF11D2F
:100A800062E080810E940604CF5FF0CF712C812C40
:100A9000912C5401839480910C05781608F05FC066
:100AA000072D10E0E0910905F0910A05E00FF11F14
:100AB00061E080810E940604E0910905F0910A0539
:100AC000E00FF11F60E080810E94D403D501C401D2
:100AD000072C04C0880F991FAA1FBB1F0A94D2F7C6
:100AE0006C017C01E094F094612C80910B056816F8
:100AF000F8F4C62DD0E0E0910705F0910805EC0F61
:100B0000FD1F80810E94A8032496CC0FDD1FCB55CA
:100B1000DB4F892B41F4888199818C299D29998308
:100B200088836394E2CF888199818E219F21F7CFBA
:100B3000E0910905F0910A05E00FF11F61E0808165
:100B40000E94D4038091090590910A05080F191F8E
:100B500060E0F80180810E94060473949CCFC5EA8E
:100B6000D4E0FE018FEF9FEF278D30A1232B21F4DE
:100B7000148E968F858F11A2369624E0E13EF207FF
:100B800099F7F12C96E0D92E80910B05F81608F014
:100B900050C0E12C0F2D10E0000F111F03551B4F0B
:100BA00020910C05E21608F042C0F80160817181C5
:100BB0000E2C02C0769567950A94E2F7F29E90019A
:100BC00011242E0D311DE5EAF4E080E0458D568DAF
:100BD0002417350709F461C08F5F36968A30B1F764
:100BE00060FF23C0E5EAF4E090E080E0448D41112D
:100BF00017C0E0910505F0910605E20FF31F408153
:100C0000D89EF001D99EF00D1124EB55FB4F448F77
:100C1000368F258F10A2178E61E00E94AC0405C0AC
:100C2000019636968A30910509F7E394B9CFF3948B
:100C3000ABCF10E089A18111182F2696F4E0C13EB8
:100C4000DF07C1F70E94A0046093010570930205BD
:100C500080930305909304051123D9F08091C60475
:100C60008823B9F08091C4049091C504019789F458
:100C70008091C104DF91CF911F910F91FF90EF9070
:100C8000DF90CF90BF90AF909F908F907F906F90AC
:100C900008951092110580E0EDCF6170BECF0F93E3
:100CA0001F930E94A0046093640370936503809374
:100CB0006603909367038CE593E00E94490297FFD7
:100CC0001DC00E94A004009164031091650320914F
:100CD000660330916703601B710B820B930B0091CD
:100CE00060031091610320916203309163036017E8
:100CF000710782079307F8F28FEF9FEF1F910F9113
:100D0000089590E080E00895AF92BF92CF92DF9275
:100D1000EF92FF920F931F93CF93DF936B017A01B2
:100D2000EC01CD5BDC4F28813CE0389F8001399F8E
:100D3000100D1124A0908904B12C27FF1FC0FB01C6
:100D40001182108288818F5F888388819801280FA3
:100D5000311D87FD3A95F6012A153B051CF4888163
:100D60008C30C4F180819181049680349C4908F4D0
:100D700073C0F60180819181049670C088819801CA
:100D8000280F311D87FD3A952A153B05DCF6888131
:100D9000A801480F511D87FD5A95FA01EE0FFF1F5C
:100DA000E40FF51FE750FC4F808186FFCBCF888191
:100DB000F801E80FF11D87FDFA95CF01EE0FFF1F37
:100DC000E80FF91FE750FC4F808160E08F730E94AD
:100DD000D403B8CF808191812881A801420F511D91
:100DE00027FD5A959A01FA01EE0FFF1FE20FF31F3C
:100DF000E750FC4F21813281820F931FF7019183CD
:100E0000808388819801280F311D87FD3A95F9016B
:100E1000EE0FFF1FE20FF31FE750FC4F808186FFAC
:100E200022C08881080F111D87FD1A95F801EE0F69
:100E3000FF1FE00FF11FE750FC4F808161E08F73CF
:100E4000DF91CF911F910F91FF90EF90DF90CF90A6
:100E5000BF90AF900C94D40380E49CE9F701918398
:100E600080838FEF8883DF91CF911F910F91FF9047
:100E7000EF90DF90CF90BF90AF900895EF92FF92E8
:100E80001F93CF93DF937C0161E085E40E94D4033C
:100E900080910002853441F08F3FE9F0DF91CF91DE
:100EA0001F91FF90EF900895E4E8F2E0C491C7FD30
:100EB000F5CF61E085E40E940604CC2309F4DEC08E
:100EC000C23009F00AC18091B100887F83608093AD
:100ED000B100D9EFD8C085E480930002E4E8F2E0E5
:100EE000C4918C2FCF3FD1F2C23009F468C060F4B6
:100EF000CC2379F1C13009F444C087FDCFCF61E044
:100F000085E40E940604DCCFC43009F499C008F4DB
:100F100078C0C53091F71092200110922101809184
:100F2000210188608093210180912101816080935B
:100F30002101E7EFF1E0E491F0E0EE0FFF1FE2584E
:100F4000FE4F85919491EDE3F2E0E491E0932A0362
:100F5000B0CF14BC15BC84B5826084BD85B58160FA
:100F600085BDE7EFF1E0E491F0E0EE0FFF1FE258FE
:100F7000FE4F85919491EDE3F2E0E491E0932E032E
:100F800098CF10928000109281008091810088603B
:100F90008093810080918100816080938100E7EFE0
:100FA000F1E0E491F0E0EE0FFF1FE258FE4F859173
:100FB0009491EDE3F2E0E491E0932D037ACF109267
:100FC000B0001092B1008091B00082608093B000B8
:100FD0008091B10081608093B100E7EFF1E0E4918E
:100FE000F0E0EE0FFF1FE258FE4F85919491909331
:100FF000510380935003EDE3F2E0E491E093520358
:1010000058CF1092900010929100809191008860CA
:101010008093910080919100816080939100E7EF2F
:10102000F1E0E491F0E0EE0FFF1FE258FE4F8591F2
:101030009491EDE3F2E0E491E0932C03C3E039CF27
:101040001092A0001092A1008091A100886080936E
:10105000A1008091A10081608093A100E7EFF1E001
:10106000E491F0E0EE0FFF1FE258FE4F859194915E
:10107000EDE3F2E0E491E0932B031BCF85B5887F8D
:10108000836085BDDCE710E020ED37E0D7010E94EA
:10109000521328EE33E040E050E00E940D13C230BE
:1010A00009F450C00CF086C0CC23E9F1C13009F03E
:1010B000F5CE8D2F912F90938900809388002093F7
:1010C0003B0330933C0340933D0350933E03809198
:1010D0006F00826080936F00E1CEC13049F480914F
:1010E0008100887F816080938100DFE31FE1CCCFA6
:1010F000C33039F480919100887F816080939100A2
:10110000F4CFC43039F48091A100887F816080934E
:10111000A100EBCFC53049F780912101887F816024
:1011200080932101E2CFD7BD20933F03309340034A
:10113000409341035093420380916E0082608093FC
:101140006E00ACCED093B30020935303309354037E
:1011500040935503509356038091700082608093B2
:1011600070009CCE8D2F912F9093990080939800C2
:1011700020933703309338034093390350933A0355
:101180008091710082608093710088CE8D2F912FA5
:101190009093A9008093A8002093330330933403E5
:1011A00040933503509336038091720082608093A0
:1011B000720074CEC43051F3ACF2C53009F06ECE7B
:1011C0008D2F912F909329018093280120932F0335
:1011D0003093300340933103509332038091730076
:1011E0008260809373005ACECF93DF9388EE93E0B2
:1011F0000E943E0761E086E30E94D40360E087E33B
:101200000E94D403D0E0C0E0CE010E9478010E9489
:101210006B042196C53BD105B9F70E94A0046093E9
:101220005703709358038093590390935A0381E0B6
:1012300080935B03DF91CF910895CF93DF93EC010F
:1012400060E08E810E94D40361E08E810E94D4030D
:1012500060E08E810E94D4038BE891E00197F1F762
:10126000DF91CF910895CF92DF92EF92FF920F938B
:101270001F93CF93DF936C017C0187E0E80EF11C94
:10128000D0E0C0E0062F10E0B8010C2E02C075952A
:1012900067950A94E2F76170F70181917F010E94DE
:1012A000D4032196C430D10579F7C601DF91CF91DF
:1012B0001F910F91FF90EF90DF90CF900C941D093C
:1012C000CF92DF92EF92FF920F931F93CF93DF9312
:1012D000EC01F62E642F8C810E94D4038D818F3F08
:1012E00019F060E00E94D4030F2D10E08F8584FF79
:1012F00025C06E0187E0C80ED11CF12CE12CB8018D
:101300000E2C02C0759567950A94E2F76170F6019C
:1013100081916F010E94D403FFEFEF1AFF0A88E06A
:10132000E816F10461F7CE01DF91CF911F910F9183
:10133000FF90EF90DF90CF900C941D09B80184E0EE
:10134000759567958A95E1F7CE010E9433096F2D57
:10135000CE01DF91CF911F910F91FF90EF90DF9021
:10136000CF900C94330940E0682F84E195E00C9411
:101370006009CF93DF93823029F490912305986020
:1013800090932305809327051092280580E480938D
:10139000290580E180932A0580E580932B0561E093
:1013A000809118050E940604809119058F3F19F05D
:1013B00061E00E94060461E080911A050E94060423
:1013C000C4E1D5E09E01245135408091230584FD80
:1013D0000BC084E090E021962817390744F461E0BF
:1013E0008E810E940604EECF88E090E0F4CF8BE37C
:1013F0009DE00197F1F760E0809118050E94D40309
:1014000060E080911A050E94D403809119058F3FF6
:1014100019F060E00E94D4038091230584FD39C057
:1014200063E084E195E00E943309CBE4D6E4CE0189
:101430000197F1F763E084E195E00E943309219779
:10144000F1F763E084E195E00E94330983E592E0DF
:101450000197F1F762E084E195E00E943309809101
:10146000230580620E94B30984E0809324058CE008
:101470000E94B30981E00E94B3098BE39FE10197C9
:10148000F1F782E08093250586E0DF91CF910C94FF
:10149000B30980620E94B3098BE496E40197F1F7E7
:1014A0008091230580620E94B30983E592E0019751
:1014B000F1F78091230580620E94B309D0CFCF93CA
:1014C000DF9381E00E94B3098BE39FE10197F1F77D
:1014D000E1E0809127058111E0E0E195F0E0EC5E2C
:1014E000FA4FC0E1D0E08091A0049091A1049E0148
:1014F000281B390B369527958489820F80680E94B6
:10150000B3094091A0045091A10460919C04709192
:101510009D0484E195E00E940D0280919A049091CF
:101520009B04C81BD90BD695C795E0912705E230DF
:10153000B8F4E150F0E0EC5EFA4F84898C0F8068DB
:101540000E94B30940919A0450919B0460919604C3
:101550007091970484E195E0DF91CF910C940D0296
:10156000E1E0E8CF41E00E94600981E090E0089569
:10157000CF93DF93EC0188819981009711F00E944D
:10158000F513198218821D821C821B821A82DF9138
:10159000CF910895FC0180819181009711F00C9406
:1015A000F51308950F931F93CF93DF93EC01888178
:1015B0009981009759F02A813B812617370730F02F
:1015C00081E0DF91CF911F910F9108958B016F5FA3
:1015D0007F4F0E947E14009759F0998388831B8364
:1015E0000A832C813D81232B59F7FC011082E8CF1F
:1015F00080E0E7CFEF92FF920F931F93CF93DF939B
:101600001F921F92CDB7DEB78C0169831A82FC014D
:10161000E480F580FFEFEF1AFF0AB7010E94D20ABB
:10162000882381F0F8012081318184819581BE0178
:101630006F5F7F4F820F931F0E947115F801F58233
:10164000E48281E00F900F90DF91CF911F910F9175
:10165000FF90EF900895EF92FF920F931F93CF9317
:10166000DF93EC017B018A01BA010E94D20A811149
:101670000BC0CE010E94B80ACE01DF91CF911F911D
:101680000F91FF90EF9008951D830C83B70188811F
:1016900099810E947115F0CFFB0101900020E9F7BC
:1016A0003197AF01461B570B0C942B0B0F931F93D5
:1016B000CF93DF93CDB7DEB7A1970FB6F894DEBF17
:1016C0000FBECDBF8C01CB01BA01F801118210828F
:1016D00013821282158214822AE0AE014F5F5F4F9F
:1016E0000E94A912BE016F5F7F4FC8010E944C0B80
:1016F000A1960FB6F894DEBF0FBECDBFDF91CF919C
:101700001F910F910895CF93DF9388EE93E00E948D
:101710003E0760E086E30E94D40361E087E30E9415
:10172000D403C4EBD0E0CE010E9478010E946B0488
:101730002197C8F710925B036BE472E08CE994E0A8
:101740000E944C0B67E572E086E994E00E944C0B26
:10175000DF91CF910C945F0ACF93DF93EC01FB01F3
:101760008617970749F0608171816115710541F015
:10177000448155810E942B0BCE01DF91CF910895BA
:101780000E94B80AF9CFFC011182108213821282E2
:1017900015821482FB0101900020E9F73197AF0117
:1017A000461B570B0C942B0B1F93CF93DF9300D04A
:1017B00000D0CDB7DEB766E672E08CE994E00E9417
:1017C0004C0B63E772E086E994E00E944C0B0E94A8
:1017D0005F0A65EF72E0CE0101960E94C30B0E9482
:1017E0000805182F8823D9F382E390E00E943E0772
:1017F0001F32E1F460E872E08CE994E00E944C0B47
:101800006AE872E086E994E00E944C0B0E945F0A4D
:10181000CE0101960E94CA0A26960FB6F894DEBF42
:101820000FBECDBFDF91CF911F9108951D3381F47D
:10183000BE016F5F7F4F80E994E00E94AC0B63E9CB
:1018400072E08CE994E00E944C0B60EA72E0DACF1F
:10185000133639F465EF72E0CE0101960E944C0B0D
:10186000BECF612FCE0101960E94FA0AB8CF1F9217
:101870000F920FB60F9211240BB60F922F933F9336
:101880004F935F936F937F938F939F93AF93BF9388
:10189000EF93FF938091530390915403A0915503CC
:1018A000B0915603892B8A2B8B2BE1F19091520337
:1018B000E0915003F09151038081892780838091CA
:1018C000530390915403A0915503B09156031816F9
:1018D00019061A061B069CF4809153039091540339
:1018E000A0915503B09156030197A109B1098093C6
:1018F000530390935403A0935503B0935603FF9161
:10190000EF91BF91AF919F918F917F916F915F9177
:101910004F913F912F910F900BBE0F900FBE0F90E4
:101920001F90189580910002E4E8F2E0E4919FEFA7
:1019300090930002E230E9F040F4EE2389F0E130C8
:1019400091F060E00E94D403DACFE43049F110F165
:10195000E530B9F7909173009D7F90937300F1CFBC
:1019600010926E00EECF90916F009D7F90936F006C
:10197000E8CF909170009D7F9093700091E09093DC
:10198000B0009091B100987F94609093B100109254
:10199000B300D7CF909171009D7F90937100D1CF0C
:1019A000909172009D7F90937200CBCF1F920F9207
:1019B0000FB60F9211240BB60F922F933F934F93B4
:1019C0005F936F937F938F939F93AF93BF93EF93A7
:1019D000FF938CE593E00E948102FF91EF91BF910C
:1019E000AF919F918F917F916F915F914F913F91B7
:1019F0002F910F900BBE0F900FBE0F901F90189558
:101A00001F920F920FB60F9211240BB60F922F93C5
:101A10008F939F93EF93FF93E0916C03F0916D038D
:101A20008081E0917203F091730382FD1DC090816B
:101A3000809175038F5F8F7320917603821741F039
:101A4000E0917503F0E0E45AFC4F958F80937503A5
:101A5000FF91EF919F918F912F910F900BBE0F905F
:101A60000FBE0F901F9018958081F2CF1F920F929A
:101A70000FB60F9211242F933F938F939F93AF93A1
:101A8000BF938091480390914903A0914A03B0917C
:101A90004B033091470323E0230F2D3758F5019670
:101AA000A11DB11D209347038093480390934903E0
:101AB000A0934A03B0934B0380914C0390914D0344
:101AC000A0914E03B0914F030196A11DB11D8093CB
:101AD0004C0390934D03A0934E03B0934F03BF91DB
:101AE000AF919F918F913F912F910F900FBE0F90CB
:101AF0001F90189526E8230F0296A11DB11DD2CF85
:101B00001F920F920FB60F9211240BB60F922F93C4
:101B10003F934F935F936F937F938F939F93AF9375
:101B2000BF93EF93FF9348E251E064E271E090E0ED
:101B300080E00E948406FF91EF91BF91AF919F9149
:101B40008F917F916F915F914F913F912F910F9066
:101B50000BBE0F900FBE0F901F9018951F920F9203
:101B60000FB60F9211240BB60F922F933F934F9302
:101B70005F936F937F938F939F93AF93BF93EF93F5
:101B8000FF9348EA50E064EA70E083E090E00E944E
:101B90008406FF91EF91BF91AF919F918F917F91BB
:101BA0006F915F914F913F912F910F900BBE0F90CE
:101BB0000FBE0F901F9018951F920F920FB60F92A5
:101BC00011240BB60F922F933F934F935F936F9314
:101BD0007F938F939F93AF93BF93EF93FF9348E9C6
:101BE00050E064E970E082E090E00E948406FF919A
:101BF000EF91BF91AF919F918F917F916F915F9185
:101C00004F913F912F910F900BBE0F900FBE0F90F1
:101C10001F9018951F920F920FB60F9211240BB6BA
:101C20000F922F933F934F935F936F937F938F9375
:101C30009F93AF93BF93EF93FF9348E850E064E81E
:101C400070E081E090E00E948406FF91EF91BF91E7
:101C5000AF919F918F917F916F915F914F913F9144
:101C60002F910F900BBE0F900FBE0F901F901895E5
:101C700010925F0310925E0388EE93E0A0E0B0E064
:101C80008093600390936103A0936203B093630316
:101C900087E292E090935D0380935C0385ED90E092
:101CA000909369038093680384ED90E090936B03B5
:101CB00080936A0380ED90E090936D0380936C03B2
:101CC00081ED90E090936F0380936E0382ED90E03E
:101CD000909371038093700386ED90E0909373036B
:101CE000809372031092750310927603109277031B
:101CF00010927803109217051092160583E492E073
:101D000090931505809314058DE0809318058FEF4F
:101D1000809319058CE080931A0588E080931B0559
:101D200089E080931C058AE080931D058BE08093F9
:101D30001E0510921F051092200510922105109289
:101D400022051092230581E00E94B9091092A70490
:101D50001092AB041092AA041092AC0489E392E0B2
:101D60009093A6048093A504E1ECF4E01082148221
:101D700013821582369684E0ED3FF807B9F789E0C3
:101D800092E0909308058093070585E092E0909398
:101D90000A058093090584E080930B0580930C0568
:101DA0008DE092E090930605809305058AE090E02F
:101DB00090930E0580930D0584EF91E090931005AC
:101DC00080930F05109213051092120510920105D1
:101DD000109202051092030510920405109211054D
:101DE00080918904803350F591E0980F9093890495
:101DF0008093A20490E0FC01EE0FFF1FE80FF91F93
:101E0000E750FC4F88EB9BE09283818365EF72E0A3
:101E10008CE994E00E94C30B65EF72E086E994E0E0
:101E20000E94C30B65EF72E080E994E00E94C30B4F
:101E300065EF72E08AE894E00C94C30B8FEF809317
:101E4000A204E4CFCF93DF93CDB7DEB762970FB68E
:101E5000F894DEBF0FBECDBF789484B5826084BD98
:101E600084B5816084BD85B5826085BD85B581609E
:101E700085BD80916E00816080936E00109281001C
:101E800080918100826080938100809181008160D7
:101E90008093810080918000816080938000809198
:101EA000B10084608093B1008091B0008160809324
:101EB000B0008091910082608093910080919100A8
:101EC0008160809391008091900081608093900068
:101ED0008091A10082608093A1008091A100816027
:101EE0008093A1008091A00081608093A0008091E8
:101EF0002101826080932101809121018160809382
:101F000021018091200181608093200180917A00DD
:101F1000846080937A0080917A00826080937A0056
:101F200080917A00816080937A0080917A00806845
:101F300080937A001092C10061E086E30E9406045B
:101F400061E087E30E94060461E085E40E940604E4
:101F500082E00E94B9098091A204803308F054C045
:101F600061E082E00E9406048091A204282F30E004
:101F7000F901EE0FFF1FE20FF31FE750FC4F9081B6
:101F8000907C926090839EE89093A30494E6909353
:101F9000A4042CE0622F0E943E13829FB001112402
:101FA00030E020E0AB01420F531FFA01EE0FFF1F9C
:101FB000E40FF51FE750FC4F908196FD17C02F5F8F
:101FC0003F4F2C30310571F7813009F031C110924B
:101FD000800082E08093810010928500109284003E
:101FE000B19A80916F00826080936F00E091A204AB
:101FF0008E2F90E0FC01EE0FFF1FE80FF91FE75056
:10200000FC4F808180648083E0916C03F0916D03CC
:1020100082E08083E0916803F09169031082E0918F
:102020006A03F0916B038FEC808310927403E0914C
:102030007003F091710386E08083E0916E03F0916C
:102040006F03808180618083E0916E03F0916F0364
:10205000808188608083E0916E03F0916F038081BE
:1020600080688083E0916E03F0916F0380818F7DA3
:1020700080838091010290910202A0910302B091AD
:102080000402880F991FAA1FBB1F809360039093BF
:102090006103A0936203B093630390E080E00E9429
:1020A00078010E94F4080E94D40B0E94830B38EE42
:1020B000C32E33E0D32EE12CF12C0E940805182FFB
:1020C00080915B03882309F47DC00E94A004A701CE
:1020D00096010E940D13672B682B692B09F055C0E0
:1020E000409001025090020260900302709004023E
:1020F0008090570390905803A0905903B0905A03D2
:102100006CEA72E08CE994E00E944C0B0E94A004FF
:10211000840C951CA61CB71CA5019401261B370B2B
:10212000480B590BCA01B901A70196010E940D1372
:10213000BA01A901CE0101960E94560B8091960426
:1021400090919704009709F4A1C069817A81611583
:10215000710509F499C040919804509199042D811A
:102160003E814217530708F48FC00E9471158D817C
:102170009E8190939B0480939A041E821D82CE01BF
:1021800001960E94CA0A0E945F0A0E94A0048090E1
:10219000570390905803A0905903B0905A036819C0
:1021A00079098A099B098090010290900202A0900F
:1021B0000302B090040286169706A806B90610F42A
:1021C0000E94830B112309F47FC082E390E00E94F8
:1021D0003E071D3309F44DC1133609F46EC01F329A
:1021E00009F07DC16BEB72E08CE994E00E944C0B2E
:1021F00064EC72E086E994E00E944C0B0E945F0A56
:102200008CE593E00E94F00265EF72E0CE010D963E
:102210000E94C30B0E944F0697FD59C08A33910557
:1022200009F455C0682FCE010D960E94FA0AF2CF2C
:10223000823061F41092900080939100109295008A
:102240001092940088BB80937100D0CE833069F4E3
:102250001092A00082E08093A1001092A50010923D
:10226000A40089BB80937200C1CE8111BFCE1092B1
:10227000200182E080932101109225011092240117
:102280008ABB80937300B2CE0E94F51389819A8134
:1022900090939704809396048B819C8190939904EA
:1022A000809398048D819E8190939B0480939A04DF
:1022B0001A8219821C821B8260CF80915B03882363
:1022C00009F406C10E94830B0E941003F6CE80E53C
:1022D00090E00E943E07BE01635F7F4F86E994E075
:1022E0000E94AC0B0E945F0A89899A89892B09F4A4
:1022F000B1C00D851E8562ED72E0C8010E946815AF
:10230000892B39F40E94D40BCE010D960E94CA0A83
:10231000DBCF6AED72E0C8010E946815892B09F0D5
:1023200099C01092010210920202109203021092C0
:1023300004020E940805182F8823D9F382E390E055
:102340000E943E078090010290900202A09003023A
:10235000B090040280ED810F8A30F0F4AAE0B0E082
:10236000A50194010E94FA12212F110F330B205363
:1023700031098901330F220B330BDC01CB01800FB4
:10238000911FA21FB31F8093010290930202A0939A
:102390000302B0930402CDCF63EE72E08CE994E0C7
:1023A0000E944C0BB501A401CE0101960E94560B70
:1023B00061EF72E0CE0107960E94C30BA980BA803C
:1023C000A114B10409F441C00D811E81011511054C
:1023D000B1F08B859C85080F191FB801CE010796B7
:1023E0000E94D20A882389F12F8138858B859C85AC
:1023F000B501820F931F0E9471151C870B87BE01C8
:10240000695F7F4F86E994E00E94AC0BCE0107968E
:102410000E94CA0ACE0101960E94CA0A0E945F0A5F
:102420002091010230910202409103025091040276
:10243000A8EEB3E00E94FA126093010270930202C8
:1024400080930302909304025FCFCE0107960E940F
:10245000B80AD5CF6BE472E08CE994E00E944C0B93
:1024600067E572E086E994E00E944C0B0E945F0AE7
:102470004BCF20918E0430918F04809194049091E1
:10248000950428173907B1F480918A0490918B0440
:102490006091900470919104009739F16115710574
:1024A00031F4232B79F1FC01808190E029C00E9456
:1024B000681526C063E173E08CE994E00E944C0B40
:1024C0006DE173E086E994E00E944C0B0E945F0A84
:1024D00065EF72E08AE894E00E944C0BF5CE612F24
:1024E0008AE894E00E94FA0AEFCE6115710551F076
:1024F000232B41F0FB01808190E09195819591091A
:10250000892BC1F666EF72E08CE994E00E944C0BD7
:1025100067E073E086E994E00E944C0B0E945F0A3A
:1025200065EF72E08AE894E00E944C0B0E94F40888
:10253000CBCE8AE894E00E94CA0A80E994E00E9427
:10254000CA0A86E994E00E94CA0A8CE994E00C94D5
:10255000CA0ABB27FA01A62F6217710581059105EA
:10256000330B30FB66F0AA27660F771F881F991F71
:10257000AA1FA21710F0A21B63953850A9F7A05DFF
:10258000AA3308F0A95DA19336F7B111B193108277
:10259000CA010C94CB12DC01FC01672F71917723E7
:1025A000E1F7329704C07C916D9370836291AE170E
:1025B000BF07C8F30895052E97FB1EF400940E94F0
:1025C000F21257FD07D00E940D1307FC03D04EF402
:1025D0000C94F21250954095309521953F4F4F4FF6
:1025E0005F4F089590958095709561957F4F8F4FBF
:1025F0009F4F08950E942F13A59F900DB49F900D9B
:10260000A49F800D911D11240895B7FF0C94FA1218
:102610000E94FA12821B930B0895A1E21A2EAA1BA4
:10262000BB1BFD010DC0AA1FBB1FEE1FFF1FA21782
:10263000B307E407F50720F0A21BB30BE40BF50B7F
:10264000661F771F881F991F1A9469F76095709508
:10265000809590959B01AC01BD01CF010895A29F8B
:10266000B001B39FC001A39F700D811D1124911D66
:10267000B29F700D811D1124911D0895991B79E061
:1026800004C0991F961708F0961B881F7A95C9F702
:1026900080950895EE0FFF1F881F8BBF0790F6915E
:1026A000E02D19940E942F13B7FF0895821B930BFE
:1026B00008950F931F93CF93DF938230910510F409
:1026C00082E090E0E0912E05F0912F0530E020E0CF
:1026D000B0E0A0E0309799F42115310509F44AC023
:1026E000281B390B24303105D8F58A819B8161156F
:1026F000710589F1FB0193838283FE0111C0408142
:1027000051810281138148175907E0F04817590792
:1027100099F4109761F012960C93129713961C93EC
:102720003296CF01DF91CF911F910F9108950093C1
:102730002E0510932F05F4CF2115310551F04217C6
:10274000530738F0A901DB019A01BD01DF01F8014F
:10275000C1CFEF01F9CF90932F0580932E05CDCFF8
:10276000FE01E20FF31F81939193225031093983C7
:102770002883D7CF20912C0530912D05232B41F4B0
:1027800020911F023091200230932D0520932C05BB
:1027900020911D0230911E022115310541F42DB703
:1027A0003EB74091210250912202241B350BE0914B
:1027B0002C05F0912D05E217F307A0F42E1B3F0B1B
:1027C0002817390778F0AC014E5F5F4F24173507A3
:1027D00048F04E0F5F1F50932D0540932C058193B9
:1027E00091939FCFF0E0E0E09CCFCF93DF930097F1
:1027F000E9F0FC01329713821282A0912E05B0916C
:102800002F05ED0130E020E01097A1F42081318107
:10281000820F931F20912C0530912D052817390721
:1028200009F061C0F0932D05E0932C05DF91CF9165
:102830000895EA01CE17DF07E8F54A815B819E0122
:1028400041155105B1F7E901FB83EA83499159919B
:10285000C40FD51FEC17FD0761F4808191810296AA
:10286000840F951FE90199838883828193819B83DB
:102870008A83F0E0E0E012968D919C911397009787
:10288000B9F52D913C911197CD010296820F931FBE
:1028900020912C0530912D052817390739F63097EE
:1028A00051F510922F0510922E05B0932D05A0938F
:1028B0002C05BCCFD383C28340815181840F951FE7
:1028C000C817D90761F44E5F5F4F88819981480F1F
:1028D000591F518340838A819B8193838283211571
:1028E000310509F0B0CFF0932F05E0932E059ECF70
:1028F000FD01DC01C0CF13821282D7CF4F925F92CD
:102900006F927F928F929F92AF92BF92CF92DF92FF
:10291000EF92FF920F931F93CF93DF938C01009759
:1029200099F4CB01DF91CF911F910F91FF90EF9020
:10293000DF90CF90BF90AF909F908F907F906F90DF
:102940005F904F900C945913FC01E60FF71F9C0108
:1029500022503109E217F30708F4AEC0D901CD9136
:10296000DC911197C617D70720F1C530D10578F053
:10297000CE0104978617970750F0C61BD70B2297F6
:10298000C193D1936D937C93CF010E94F513C8013D
:10299000DF91CF911F910F91FF90EF90DF90CF903B
:1029A000BF90AF909F908F907F906F905F904F906F
:1029B00008955B01AC1ABD0A4C018C0E9D1EA091BE
:1029C0002E05B0912F05512C412CF12CE12C1097A4
:1029D00031F580912C0590912D058815990509F008
:1029E0005CC04616570608F058C080911D029091B1
:1029F0001E02009741F48DB79EB74091210250917D
:102A00002202841B950BE817F90708F055C0F093D4
:102A10002D05E0932C05F90171836083B8CF8D916A
:102A20009C91119712966C90129713967C90139725
:102A3000A815B90559F56C0142E0C40ED11CCA14A1
:102A4000DB0420F1AC014A195B09DA0112961597F3
:102A500080F06282738251834083D9016D937C93AD
:102A6000E114F10471F0D7011396FC93EE931297E1
:102A70008ECF22968C0F9D1FF90191838083F301E5
:102A8000EFCFF0932F05E0932E0581CF481659061E
:102A900008F42C017D01D3019ACFCB010E94591378
:102AA0007C01009749F0AE01B8010E945F15C80192
:102AB0000E94F51387016BCF10E000E068CFFB01A7
:102AC000DC0102C001900D9241505040D8F70895AA
:102AD000FB01DC018D91019080190110D9F3990B54
:102AE0000895FB01DC0101900D920020E1F70895AB
:102AF00011E0C4E4D1E000E006C0802FFE010E9496
:102B00004A132196011DC534D10780E00807A9F7B3
:042B1000F894FFCF67
:102B1400FF88130000191817163233343537383943
:102B24002F3435362A3132332D63303D2B000030BB
:102B340005800000000000A3020D023A02F0026BBF
:102B44000249025D020000000042040204D10300B5
:102B5400000000B20A0D0281060C02536166652072
:102B6400436C6F73656400456E74657220506173C5
:102B740073776F726400506C6561736520456E7481
:102B84006572004E65772050617373776F726400CD
:102B94004F7065726174696F6E0043616E63656C3A
:102BA40065640050617373776F72642048617300C9
:102BB4004265656E205365742121210077696C6C30
:102BC40020636C6F736520696E3A00536574746991
:102BD4006E677300456E74657220436F6D6D616E30
:102BE4006400736574706173730073657474696DE4
:102BF40065720054696D6572206368616E6765640F
:102C040000746F3A2000436F7272656374205061E0
:102C14007373776F72640053616665204F70656EDD
:102C2400656400496E636F7272656374005061730A
:0A2C340073776F7264203A282800BD
:00000001FF
